:040000004EEF00F0CF
:100008005082FACF0AF0FBCF0BF0D9CF0CF0DACF41
:100018000DF0F3CF0EF0F4CF0FF00E01C2BBCAAB58
:1000280003D034EC4EF028D0F2AC26D0C5B9CDA917
:1000380009D001D821D00500FA6E0201ED51FD6EFC
:10004800EE510BD0C5BBCDAB0CD001D815D00500F7
:10005800FA6E0201EB51FD6EEC51FE6EFF6AFA502A
:100068001200C6B1CEA103D0AAEC4BF005D0C6B39E
:10007800CEA302D0C2EC36F00FC0F4FF0EC0F3FFDF
:100088000DC0DAFF0CC0D9FF0BC0FBFF0AC0FAFF96
:080098005092110032EF3FF01D
:100F0000002CA0989F8A9F7684168922A0908F76C5
:100F1000A06EA066A05EA056A04EA046A018A0A4F9
:100F2000940037EF0CF0E0C018F0E1C019F0C4EC09
:100F300014F0E0C012F0E1C013F0010E146E81EC69
:100F400048F0E0C0D9FFE1C0DAFF00EE11F0060E74
:100F5000DBCFEBFFE806FCE2CBEC4CF01200010E1D
:100F600001018E6F00018551D8B40ED0E0C0D9FFC9
:100F7000E1C0DAFF00EE10F0060EDBCFEBFFE80673
:100F8000FCE230EC18F0D5D7E0C012F0E1C013F06D
:100F9000000E146E81EC48F0D4D78551D8B408D037
:100FA000010E05EC4CF0000E05EC4CF0000E05D0E7
:100FB0000101F151D8A404D0010E0001856F19D0B0
:100FC000000120EE02F0E051D926E151DA22020EB2
:100FD000DE6E000EDD6EE0C0D9FFE1C0DAFF00EE8C
:100FE00011F0060EDBCFEBFFE806FCE2CBEC4CF099
:100FF000CBD78551E26FE36B20EE02F0E051D926AA
:10100000E151DA22E2C0DEFFE3C0DDFFE0C0D9FF3C
:10101000E1C0DAFF00EE11F0060EDBCFEBFFE806D1
:10102000FCE2CBEC4CF0E0C012F0E1C013F0010E9A
:10103000146E81EC48F0E0C0D9FFE1C0DAFF00EEA9
:1010400011F0060EDBCFEBFFE806FCE2CBEC4CF038
:1010500001018E05D8B499EC47F0000E01018E6FA6
:10106000120020EE01F0E051D926E151DA22000E03
:10107000DF6EB851E26FE36B20EE02F0E051D9264B
:10108000E151DA22E2C0DEFFE3C0DDFF000EE86FCF
:1010900014D0E8C02EF0000E1EEC41F0E806D8A4F3
:1010A0000AD0000120EE02F0E051D926E151DA2207
:1010B000DE06000EDD5A0001E82BB851E85DD8A02D
:1010C000E8D7E0C0D9FFE1C0DAFF00EE11F0060E6C
:1010D000DBCFEBFFE806FCE2CBEC4CF02AD720EEAE
:1010E00001F0E051D926E151DA22000EDF6E20EE48
:1010F00002F0E051D926E151DA22000EDE6E000E38
:10110000DD6E000EE96F14D0E9C02EF0000E1EEC6B
:1011100041F0E806D8A40AD0000120EE02F0E05128
:10112000D926E151DA22DE2A000EDD220001E92B68
:10113000B851E95DD8B0C5D7E7D7000EF76F000EFC
:10114000ED6F2ED0EDC02EF0000E1EEC41F0000928
:10115000D8A424D00001ED51E26FE36B20EE02F041
:10116000E051D926E151DA22E2C0DEFFE3C0DDFF23
:1011700020EE01F0E051D926E151DA22F7C0DFFF7D
:10118000F72BE0C0D9FFE1C0DAFF00EE11F0060E48
:10119000DBCFEBFFE806FCE2CBEC4CF00001ED2BE3
:1011A000B851ED5DD8B0C5D6CDD7000EF76F000EA3
:1011B000EE6F2ED0EEC02EF0000E1EEC41F0E806D1
:1011C000D8A424D00001EE51E26FE36B20EE02F0D0
:1011D000E051D926E151DA22E2C0DEFFE3C0DDFFB3
:1011E00020EE01F0E051D926E151DA22F7C0DFFF0D
:1011F000F72BE0C0D9FFE1C0DAFF00EE11F0060ED8
:10120000DBCFEBFFE806FCE2CBEC4CF00001EE2B71
:10121000B851EE5DD8B08DD6CDD7010E01018E6FDD
:1012200000018551D8B4B0D601018D51D8A424D085
:10123000000120EE02F0E051D926E151DA22DECFA2
:1012400085F1DDCF86F1E0C012F0E1C013F0010EB0
:10125000146E81EC48F0E0C0D9FFE1C0DAFF00EE87
:1012600011F0060EDBCFEBFFE806FCE2CBEC4CF016
:10127000010E01018D6F1200000120EE02F0E0511D
:10128000D926E151DA22DECFE2F0DDCFE3F0010131
:1012900085510001E46F010186510001E56FE66BA5
:1012A000E76BE5C0E7F0E4C0E6F0E56BE46BE25124
:1012B000E425F86FE351E521F96F000EE621FA6F9E
:1012C000000EE721FB6FF8C02EF0F9C02FF0FAC036
:1012D00030F0FBC031F0000E326EEC0E336E346A2B
:1012E0004CEC31F00009D8A44DD0000EF16FF1C0E4
:1012F0002EF0000E1EEC41F0E806D8A42DD000011F
:1013000020EE01F0E051D926E151DA22DF50D8A4D5
:1013100023D0F8C0D8F0F9C0D9F0FAC0DAF0FBC099
:10132000DBF0F1C0DCF0000EEDEC45F0E0C012F0B7
:10133000E1C013F0010E146E81EC48F0E0C0D9FF5B
:10134000E1C0DAFF00EE11F0060EDBCFEBFFE8069E
:10135000FCE2CBEC4CF021D0F1C02EF0000E1EECE4
:1013600041F0E806D8A409D0000120EE01F0E051D8
:10137000D926E151DA22DF060ED00001F151B81969
:10138000D8A409D0E0C012F0E1C013F0000E146E32
:1013900081EC48F0D3D7F12BAAD7000E01018D6F55
:1013A0001200010E01018E6F00018551D8B4ECD5F9
:1013B000000EF26FF2C02EF0000E1EEC41F000099C
:1013C000D8A410D0000120EE01F0E051D926E1515F
:1013D000DA22DF50D8A406D0F2C03AF0000ECEECEC
:1013E00043F0A4D7F2C02EF0000E1EEC41F000092D
:1013F000D8A409D0000120EE01F0E051D926E15136
:10140000DA22DF0605D00001F251B819D8B4BAD7F4
:10141000F22BD0D7000EF36FF3C02EF0000E1EECAF
:1014200041F00009D8A42AD0000120EE01F0E051DB
:10143000D926E151DA22DF50D8A420D0F80E2E6E42
:10144000F3C02FF0000E25EC46F0000120EE02F074
:10145000E051D926E151DA22F8C0DEFFF9C0DDFF04
:10146000E0C0D9FFE1C0DAFF00EE11F0060EDBCFDD
:10147000EBFFE806FCE2CBEC4CF0D1D1F3C02EF050
:10148000000E1EEC41F00009D8A409D0000120EEA6
:1014900001F0E051D926E151DA22DF0605D0000142
:1014A000F351B819D8B470D5F32BB6D720EE01F0AC
:1014B000E051D926E151DA22000EDF6EB951E26F18
:1014C000E36B20EE02F0E051D926E151DA22E2C0CE
:1014D000DEFFE3C0DDFF000EEA6F14D0EAC02EF09D
:1014E000010E1EEC41F0E806D8A40AD0000120EE5F
:1014F00002F0E051D926E151DA22DE06000EDD5A73
:101500000001EA2BB951EA5DD8B0DBD5E7D720EE70
:1015100001F0E051D926E151DA22000EDF6E20EE13
:1015200002F0E051D926E151DA22000EDE6E000E03
:10153000DD6E000EEB6F14D0EBC02EF0010E1EEC32
:1015400041F0E806D8A40AD0000120EE02F0E051F4
:10155000D926E151DA22DE2A000EDD220001EB2B32
:10156000B951EB5DD8B0ADD5E7D7000EF76F000EDF
:10157000EF6F2ED0EFC02EF0010E1EEC41F00009EF
:10158000D8A424D00001EF51E26FE36B20EE02F00B
:10159000E051D926E151DA22E2C0DEFFE3C0DDFFEF
:1015A00020EE01F0E051D926E151DA22F7C0DFFF49
:1015B000F72BE0C0D9FFE1C0DAFF00EE11F0060E14
:1015C000DBCFEBFFE806FCE2CBEC4CF00001EF2BAD
:1015D000B951EF5DD8B0ADD4CDD7000EF76F000E86
:1015E000F06F2ED0F0C02EF0010E1EEC41F0E80698
:1015F000D8A424D00001F051E26FE36B20EE02F09A
:10160000E051D926E151DA22E2C0DEFFE3C0DDFF7E
:1016100020EE01F0E051D926E151DA22F7C0DFFFD8
:10162000F72BE0C0D9FFE1C0DAFF00EE11F0060EA3
:10163000DBCFEBFFE806FCE2CBEC4CF00001F02B3B
:10164000B951F05DD8B075D4CDD7010E01018E6FC0
:1016500000018551D8B498D401018D51D8B4E8D592
:10166000000120EE02F0E051D926E151DA22DECF6E
:10167000E2F0DDCFE3F0010185510001E46F0101EB
:1016800086510001E56FE66BE76BE5C0E7F0E4C06B
:10169000E6F0E56BE46BE251E425F86FE351E521F8
:1016A000F96F000EE621FA6F000EE721FB6FF8C01C
:1016B0002EF0F9C02FF0FAC030F0FBC031F0000E70
:1016C000326EEC0E336E346A4CEC31F00009D8A463
:1016D00059D6000EF46FF4C02EF0010E1EEC41F04E
:1016E000E806D8A418D0000120EE01F0E051D92678
:1016F000E151DA22DF50D8A40ED0F8C0D8F0F9C0FA
:10170000D9F0FAC0DAF0FBC0DBF0F4C0DCF0010E77
:10171000EDEC45F00BD6F4C02EF0010E1EEC41F0BE
:10172000E806D8A409D0000120EE01F0E051D92646
:10173000E151DA22DF0605D00001F451B919D8B41D
:1017400021D6F42BC8D7010E01018E6F00018551FF
:10175000D8B41AD4000EF56FF5C02EF0010E1EECB1
:1017600041F00009D8A410D0000120EE01F0E051B2
:10177000D926E151DA22DF50D8A406D0F5C03AF0DC
:10178000010ECEEC43F0D2D5F5C02EF0010E1EECCA
:1017900041F00009D8A409D0000120EE01F0E05189
:1017A000D926E151DA22DF0605D00001F551B91939
:1017B000D8B4E8D5F52BD0D7000EF66FF6C02EF0D2
:1017C000010E1EEC41F00009D8A435D0000120EE36
:1017D00001F0E051D926E151DA22DF50D8A42BD014
:1017E000F80E2E6EF6C02FF0010E25EC46F000012B
:1017F00020EE02F0E051D926E151DA22F8C0DEFFF6
:10180000F9C0DDFFE0C0D9FFE1C0DAFF00EE11F062
:10181000060EDBCFEBFFE806FCE2CBEC4CF0000160
:1018200020EE02F0E051D926E151DA22FAC0DEFFC3
:10183000FBC0DDFF46D4F6C02EF0010E1EEC41F0D9
:101840000009D8A409D0000120EE01F0E051D9260A
:10185000E151DA22DF0606D00001F651B919D8B4F9
:10186000C4EF07F0F62BAAD799EC47F01200E0C0BE
:10187000D9FFE1C0DAFFDF50E26FE36BE351000A0A
:10188000D8A4C4EF07F0E251000AD8B493EF07F0F0
:10189000010AD8B4AFEF07F0030AD8B4CDEF07F0D0
:1018A000010AD8B499EF07F0070AD8B431EF08F06D
:1018B000010AD8B414D4030AD8B43FD4010AD8B466
:1018C00074D40F0AD8B4A9D4010AD8B46AD5030ACB
:1018D000D8B4A0D5010AD8B4E9D5070AD8B417D628
:1018E000010AD8B442D6030AD8B477D6010AD8B4CC
:1018F000ACD61F0AD8B427D7010AD8B45DD7030ADB
:10190000D8B4B2D7C4EF07F0A2D020EE04F0E9516A
:10191000D926EA51DA22DE04DE10D8A406D0E9C0C6
:10192000D9FFEAC0DAFF010E4CD020EE04F0E951F5
:10193000D926EA51DA22050EDE18DE10D8A406D028
:10194000E9C0D9FFEAC0DAFF030E3BD020EE04F075
:10195000E951D926EA51DA22080EDE18DE10D8A4A1
:1019600006D0E9C0D9FFEAC0DAFF040E2AD020EE83
:1019700004F0E951D926EA51DA22140EDE18DE10FD
:10198000D8A487D0E9C0D9FFEAC0DAFF060E19D083
:1019900020EE04F0E951D926EA51DA22020EDE18CF
:1019A000DE10D8A406D0E9C0D9FFEAC0DAFF020EE3
:1019B00008D020EE04F0E951D926EA51DA22030ECC
:1019C0003BD0DE6E000EDD6E64D020EE04F0E951F7
:1019D000D926EA51DA22040EDE18DE10D8A4E9D79F
:1019E0002FD020EE04F0E951D926EA51DA22080E70
:1019F000DE18DE10D8A4DDD7E9C0D9FFEAC0DAFFCF
:101A0000050EDFD720EE04F0E951D926EA51DA229B
:101A1000090EDE18DE10D8A408D0E9C0D9FFEAC04C
:101A2000DAFF040EDE6E000EDD6E20EE04F0E951EA
:101A3000D926EA51DA22040EDE18DE10D8A429D005
:101A4000E9C0D9FFEAC0DAFF000EBBD7FFD7E9C073
:101A5000D9FFEAC0DAFFDF50EB6FEC6BEC51000A04
:101A6000D8A4F4D7EB51000AD8B44FD7010AD8B4A0
:101A70008FD7030AD8B4D9D7010AD8B4A6D7070A92
:101A8000D8B4AFD7010AD8B4BDD7030AD8B4CDD7DC
:101A9000DDD7BD0E126E020E136E000E156E000E17
:101AA000146EF7EC47F0C1D3060E01013B19D8A420
:101AB0002FD0000EAD6FC80EAC6F010E406F000E40
:101AC000686F68C13AF0665102EC1BF00009D8B4A7
:101AD0001200BD0E126E020E136E000E156E080E71
:101AE000146EF7EC47F00A0E106E4950E8EC4BF01C
:101AF000F60DF35049241C6E000E1E6E140E1D6E62
:101B00000A0E106E4950E8EC4BF091EC4FF01200C9
:101B1000050E3B19D8A42FD0000EAD6FC80EAC6FC8
:101B2000010E406F010E686F68C13AF0665102EC19
:101B30001BF00009D8B41200BD0E126E020E136E17
:101B4000000E156E080E146EF7EC47F00A0E106EBC
:101B50004950E8EC4BF0F60DF35049241C6E000E92
:101B60001E6E140E1D6E0A0E106E4950E8EC4BF0FE
:101B700091EC4FF012004D50D8A423D0000EAD6F61
:101B8000640EAC6F6851D8A403D06705686F01D0AC
:101B900068076851020D520EF324D96E010EF4202D
:101BA000DA6EDF501C6E6851020D510EF324D96EAF
:101BB000010EF420DA6EDF50F5EC4EF0010E4F6EA0
:101BC0001200170E4D18D8A421D0000EAD6F640E70
:101BD000AC6F682B6751685DD8A002D0000E686FAB
:101BE0006851020D520EF324D96E010EF420DA6E04
:101BF000DF501C6E6851020D510EF324D96E010E98
:101C0000F420DA6EDF50F5EC4EF0D8D70C0E66619A
:101C10009BD0270E4D18D8A453D00A0E4E6450D036
:101C2000000EAD6F640EAC6F68C13AF0665102EC05
:101C30001BF00009D8B4C2D7BD0E126E020E136E8F
:101C4000000E156E010E146EF7EC47F0980E1C0F87
:101C50000001EB6FEB51471801E14852D8B409D0AD
:101C6000980E1B0FEB6FEB51471801E14852D8A4B7
:101C700016D04950020D520EF324D96E010EF420F5
:101C8000DA6EDF501C6E4950020D510EF324D96EEE
:101C9000010EF420DA6EDF50F5EC4EF08FD70A0E0D
:101CA000106E4950E8EC4BF0F60DF35049241C6ED1
:101CB0000A0E106E4950E8EC4BF0F5EC4EF07ED772
:101CC000ADBF08D0AD5103E1AC05D8A003D04D5055
:101CD000D8A41ED0020E66611BD0000EAD6F000EA0
:101CE000AC6FF10E126E010E136E000E156E070E24
:101CF000146EF7EC47F0180E1C6E180EF5EC4EF053
:101D0000000E0101696F010E4F6E49EC50F0120098
:101D1000ADBF08D0AD5103E1AC05D8A003D04D5004
:101D2000D8A404D065514DEC25F048D7ADBF05D0FF
:101D3000AD5102E1AC05D8B01200010E666512008B
:101D400065514DEC25F03AD7070E4D18D8A432D086
:101D50000A0E4E642FD00D0E6619D8B42BD0000E8B
:101D6000AD6F640EAC6F68C13AF0665102EC1BF0C7
:101D70000009D8B423D7BD0E126E020E136E000EEA
:101D8000156E080E146EF7EC47F00A0E106E4950EF
:101D9000E8EC4BF0F60DF35049241C6E000E1E6E5D
:101DA000140E1D6E0A0E106E4950E8EC4BF091ECCB
:101DB0004FF004D70D0E6619D8A427D0AA51AB1145
:101DC000D8A423D0000E0001B86F000EB96F000E2A
:101DD000BE6F020E05EC4CF0F10E126E010E136E8A
:101DE000000E156E070E146EF7EC47F0180E1C6E01
:101DF000180EF5EC4EF0010E4F6E49EC50F0000E4F
:101E00000101AD6F000EAC6F1200ADBF08D0AD5137
:101E100003E1AC05D8A003D04D50D8A41200F10EB8
:101E2000126E010E136E000E156E070E146EF7EC97
:101E300047F0180E1C6E180EF5EC4EF049EC50F001
:101E4000010E4F6EDCD74D50D8A447D0000E0101D3
:101E5000AD6F640EAC6F49504B5CD8A003D04AC044
:101E600049F001D04906980E1C0F0001EB6FEB51B1
:101E7000471801E14852D8B409D0980E1B0FEB6FF8
:101E8000EB51471801E14852D8A416D04950020D31
:101E9000520EF324D96E010EF420DA6EDF501C6E60
:101EA0004950020D510EF324D96E010EF420DA6E62
:101EB000DF50F5EC4EF082D60A0E106E4950E8EC79
:101EC0004BF0F60DF35049241C6E0A0E106E49506B
:101ED000E8EC4BF0F5EC4EF071D6170E4D18D8A487
:101EE00045D0000E0101AD6F640EAC6F492A495018
:101EF0004A5CD8A04BC049F0980E1C0F0001EB6F54
:101F0000EB51471801E14852D8B409D0980E1B0F85
:101F1000EB6FEB51471801E14852D8A416D0495055
:101F2000020D520EF324D96E010EF420DA6EDF504A
:101F30001C6E4950020D510EF324D96E010EF4208F
:101F4000DA6EDF50F5EC4EF039D60A0E106E4950BD
:101F5000E8EC4BF0F60DF35049241C6E0A0E106E9F
:101F60004950E8EC4BF0F5EC4EF028D6270E4D1812
:101F7000D8A423D0090E4E6420D0000E0101AD6F0D
:101F8000640EAC6F47C0D9FF48C0DAFF49C0DFFF1D
:101F9000BD0E126E020E136E000E156E020E146E42
:101FA000F7EC47F0010E1C6E190EF5EC4EF0000E2A
:101FB0000101AB6F280EAA6F01D60101ADBF08D099
:101FC000AD5103E1AC05D8A003D04D50D8A4120008
:101FD000000EAD6F640EAC6F66514DEC25F0BD0E7A
:101FE000126E020E136E000E156E030E146EF7ECD9
:101FF00047F0E4D50101ABBF05D0AB5102E1AA0522
:10200000D8B01200000EAD6F640EAC6F6605D8A498
:1020100004D0080E6819D8B40AD0980E1C0F00011D
:10202000EB6FEB51471801E14852D8A405D00001ED
:10203000B4517FEC34F023D001016605D8B404D04C
:102040000A0E6619D8A404D0010E05EC4CF017D086
:102050006805D8A40ED047C0D9FF48C0DAFFDF50CA
:10206000D8B407D0060E6619D8A403D0090E000113
:102070009A6F010E05EC4CF0000E05EC4CF0BD0E15
:10208000126E020E136E000E156E040E146EF7EC37
:1020900047F00101682B020E666105D0692B66517D
:1020A0004DEC25F012006751685DD8A005D0692B72
:1020B00065514DEC25F0120066514DEC25F01200F3
:1020C0000101ADBF05D0AD5102E1AC05D8B01200A1
:1020D0000001FC51FD11D8A410D00101692B6651FB
:1020E0004DEC25F0BD0E126E020E136E000E156E35
:1020F000040E146EF7EC47F01200000E0101AD6FF4
:102100003C0EAC6FF6C210F0F7C211F0F8C212F03C
:10211000F9C213F0FCC014F0FDC015F0166A176A7E
:102120008DEC43F01050496EFCC014F0FDC015F06A
:10213000166A176AF6C210F0F7C211F0F8C212F070
:10214000F9C213F08DEC43F010C01DF011C01EF069
:1021500012C01FF013C020F0FCC021F0FDC022F01F
:10216000236A246A32EC49F01D500201F65DF66FD5
:102170001E50F759F76F1F50F859F86F2050F95952
:10218000F96FFCC010F0FDC011F0000E136E640E6C
:10219000126EB2EC49F010C0FCF011C0FDF00A0E56
:1021A000106E4950E8EC4BF0F60DF35049241C6ECC
:1021B000000E1E6E0A0E1D6E0A0E106E4950E8ECDF
:1021C0004BF091EC4FF012000101FE05D8A404D0B1
:1021D000000E496E000EFE6F24EC20F01200D8ECC9
:1021E0003EF0120086EC4CF001012651D8A41200FA
:1021F000F10E126E010E136E000E156E070E146EA8
:10220000F7EC47F0BD0E126E020E136E000E156E47
:10221000040E146EF7EC47F0180E1C6E180EF5EC59
:102220004EF0020E05EC4CF0E8D5E9C0D9FFEAC04B
:10223000DAFFDF500001EB6FEC6BEC51000AD8A421
:102240001200EB51000AD8B42FD4010AD8B4FBD540
:10225000030AD8B4CFD6010AD8B432D7070AD8B403
:10226000B3D7010AD8B4BBD7030AD8A41200BAD78F
:1022700098EC2FF03A6EB8D020EE04F0DC51D9265D
:10228000DD51DA220A0EDE18DE10D8A40DD0A751D7
:10229000D8B40AD001012A51D8A406D0DCC0D9FF95
:1022A000DDC0DAFF020E8AD0000120EE04F0DC511E
:1022B000D926DD51DA220A0EDE18DE10D8A40DD0A0
:1022C000A751D8B404D001012A05D8A406D0DCC097
:1022D000D9FFDDC0DAFF040E71D0000120EE04F05A
:1022E000DC51D926DD51DA220B0EDE18DE10D8A41F
:1022F0009BD0DCC0D9FFDDC0DAFF010E5FD020EE3D
:1023000004F0DC51D926DD51DA220A0EDE18DE1087
:10231000D8A407D0A751D8B404D001012A51D8B409
:10232000BDD7000120EE04F0DC51D926DD51DA22C0
:102330000A0EDE18DE10D8A407D0A751D8B4C7D72C
:1023400001012A05D8B4C3D7000120EE04F0DC5106
:10235000D926DD51DA22100EDE18DE10D8A464D0A2
:102360003CD020EE04F0DC51D926DD51DA220B0EF0
:10237000DE18DE10D8A4E9D7DCC0D9FFDDC0DAFF53
:10238000030E1CD020EE04F0DC51D926DD51DA22F8
:102390000A0EDE18DE10D8A4D8D799D720EE04F0A4
:1023A000DC51D926DD51DA220B0EDE18DE10D8A45E
:1023B000CCD7DCC0D9FFDDC0DAFF050EDE6E000E23
:1023C000DD6E32D020EE04F0DC51D926DD51DA2268
:1023D0000A0EDE18DE10D8A4B8D7DCC0D9FFDDC0E5
:1023E000DAFF000EEBD7FFD7DCC0D9FFDDC0DAFF84
:1023F000DF500001DE6FDF6BDF51000AD8A4F3D796
:10240000DE51000AD8B438D7010AD8B478D7030A05
:10241000D8B4A7D7010AD8B4B5D7070AD8B4BED75D
:10242000010AD8B4CFD7DFD7B20E126E020E136EE8
:10243000000E156E000E146EF7EC47F085D2010108
:102440000305D8A43AD0010E0001816FB20E126EBE
:10245000020E136E000E156E0A0E146EF7EC47F0A6
:10246000010E0101006F4DEC44F0A751D8B416D015
:1024700001012A51D8A412D0010ED56F2C0ED46FB1
:10248000000ED36F780ED26F000EE36F140EE26F62
:10249000010E476F000E0001816F1200000E010156
:1024A000476F000ED36F500ED26F000EE36F140E05
:1024B000E26F000E0001816F1200B20E126E020E6A
:1024C000136E000E156E0B0E146EF7EC47F0030E34
:1024D0000101006F010E476F120001010305D8B41E
:1024E0000FD000018105D8B40BD0270E4D18D8B4F9
:1024F00003D03A04D8A428D001012A05D8A424D0B6
:10250000010E0001816F000E0101006FC3BF05D0F5
:10251000C35102E1C205D8B01200B20E126E020E13
:10252000136E000E156E0A0E146EF7EC47F0010ED6
:102530000101006F4DEC44F0A751D8B4AFD70101B1
:102540002A51D8B499D7AAD701010051D8A403D0F1
:1025500001EC47F01200000EC36F280EC26F12008C
:1025600001010405D8A4D5BF09D0D55103E1D40594
:10257000D8A004D000018105D8A42AD0010E000102
:10258000816F000E0101006FC3BF05D0C35102E18E
:10259000C205D8B01200B20E126E020E136E000EFB
:1025A000156E0B0E146EF7EC47F0030E0101006F71
:1025B000000ED56F640ED46F000ED36F640ED26F11
:1025C000000EE36F140EE26F000E0001816F120027
:1025D00001010051D8B4BCD7000EC36F280EC26FE2
:1025E000E3BF05D0E35102E1E205D8B01200D3BF4A
:1025F0001200D35103E1D205D8A012006EC010F032
:102600006FC011F0126A136A30C114F031C115F0B5
:1026100032C116F033C117F068EC47F010C06EF00D
:1026200011C06FF0120001010305D8B404D00001FD
:102630008105D8A420D0010E0001816F000E010198
:10264000006FC3BF05D0C35102E1C205D8B012006C
:10265000B20E126E020E136E000E156E0A0E146E7E
:10266000F7EC47F0010E0101006F000E476F000EFE
:10267000D36F3C0EA4D701010051D8B469D7000E26
:10268000C36F280EC26FE3BF05D0E35102E1E2053C
:10269000D8B01200D3BF1200D35103E1D205D8A0A5
:1026A000120070C010F071C011F0126A136A30C1CC
:1026B00014F031C115F032C116F033C117F068ECD7
:1026C00047F010C070F011C071F012000101040554
:1026D000D8B412D000018105D8B40ED0010147054D
:1026E000D8A42DD0270E4D18D8B403D03A04D8A4BE
:1026F00026D02A05D8A423D0000E0101176F000EA2
:10270000476F010E0001816F000E0101006FC3BF12
:1027100005D0C35102E1C205D8B01200B20E126E4C
:10272000020E136E000E156E0B0E146EF7EC47F0D2
:10273000030E0101006F000ED36F500E40D7005101
:10274000D8B406D7270E4D18D8B403D03A04D8A46D
:102750000FD02A05D8A40CD04751D8A409D0010E17
:10276000476F010E4F6E000ED36F500ED26F1200E6
:102770004705D8A40CD0000EC36F280EC26FD3BF7C
:102780001200D35103E1D205D8A0120037D7010EB1
:10279000176F000EC36F280EC26FE3BF05D0E35161
:1027A00002E1E205D8B01200D3BF1200D35103E119
:1027B000D205D8A012006AC010F06BC011F0126AE6
:1027C000136A2EC114F02FC115F0166A176A68EC4F
:1027D00047F010C06AF011C06BF012000101030550
:1027E000D8B40DD04705D8A470D0270E4D18D8B452
:1027F00003D03A04D8A469D02A05D8A466D0010E23
:102800001C6F000E176F000E476F000E006FB20EA8
:10281000126E020E136E000E156E0A0E146EF7EC99
:1028200047F0E60E126E010E136E000E156E130EBB
:10283000146EF7EC47F060C0D0F061C0D1F062C018
:10284000D2F063C0D3F064C0CCF065C0CDF066C0F8
:10285000CEF067C0CFF001012A05D8A405D068C02A
:1028600099F069C098F005D0040E0001996F040E2C
:10287000986F6CC0C8F06DC0C9F06AC0CAF06BC078
:10288000CBF06EC0C4F06FC0C5F00001C66BC76B63
:1028900070C0C0F071C0C1F0C26BC36B000E05EC1C
:1028A0004CF0030E05EC4CF0020E05EC4CF0000E63
:1028B0000101266F000E1E6F000E1F6F000E206FAD
:1028C000000E216F000E486F12000051D8B440D6A0
:1028D000270E4D18D8B403D03A04D8A403D02A0543
:1028E000D8B43DD74705D8A408D0D3BF1200D351E0
:1028F00003E1D205D8A01200D4D6010E176F000E46
:10290000C36F280EC26FE3BF05D0E35102E1E205B9
:10291000D8B01200D3BF1200D35103E1D205D8A022
:1029200012006CC010F06DC011F0126A136A2EC153
:1029300014F02FC115F0166A176A68EC47F010C042
:102940006CF011C06DF01200DCC0D9FFDDC0DAFF01
:10295000DF500001DE6FDF6BDF51000AD8A41200E8
:10296000DE51000AD8B46BD5010AD8B4B6D5030A33
:10297000D8B4F6D5010AD8B456D6070AD8B4A6D624
:10298000010AD8A412002AD7BDD220EE03F01850B5
:10299000D9261950DA2299C0DFFF20EE02F0185034
:1029A000D9261950DA2298C0DFFF18C0D9FF19C004
:1029B000DAFF00EE11F0060EDBCFEBFFE806FCE2DB
:1029C000CBEC4CF0120020EE03F01850D926195031
:1029D000DA229BC0DFFF20EE02F01850D9261950F2
:1029E000DA229AC0DFFFE1D720EE03F01850D92693
:1029F0001950DA229CC0DFFF2DD220EE03F01850D0
:102A0000D9261950DA229EC0DFFF20EE02F01850BE
:102A1000D9261950DA229DC0DFFFC7D720EE03F078
:102A20001850D9261950DA22A0C0DFFF20EE02F09C
:102A30001850D9261950DA229FC0DFFFB6D720EEF2
:102A400003F01850D9261950DA22A2C0DFFF20EE79
:102A500002F01850D9261950DA22A1C0DFFFA5D7FD
:102A600020EE03F01850D9261950DA22A3C0DFFF58
:102A7000F1D120EE03F01850D9261950DA22A4C063
:102A8000DFFFE8D120EE03F01850D9261950DA22E2
:102A9000A5C0DFFFDFD120EE03F01850D926195072
:102AA000DA22A6C0DFFFD6D120EE03F01850D926D7
:102AB0001950DA22A7C0DFFFCDD120EE03F0185065
:102AC000D9261950DA22A8C0DFFFC4D120EE03F0C6
:102AD0001850D9261950DA22A9C0DFFFBBD120EE49
:102AE00003F01850D9261950DA22ABC0DFFF20EED0
:102AF00002F01850D9261950DA22AAC0DFFF55D7A4
:102B000020EE03F01850D9261950DA22ACC0DFFFAE
:102B1000A1D120EE03F01850D9261950DA22ADC009
:102B2000DFFF98D120EE03F01850D9261950DA2291
:102B3000AEC0DFFF8FD120EE03F01850D926195018
:102B4000DA22AFC0DFFF86D120EE03F01850D9267D
:102B50001950DA22B0C0DFFF7DD120EE03F018500B
:102B6000D9261950DA22B1C0DFFF74D120EE03F06C
:102B70001850D9261950DA22B3C0DFFF6BD120EEEE
:102B800003F01850D9261950DA22B4C0DFFF62D101
:102B900020EE03F01850D9261950DA22B9C0DFFF11
:102BA00020EE02F01850D9261950DA22B8C0DFFF03
:102BB000FCD620EEBCF010EE02F01850E1261950C1
:102BC000E222DECFE6FFDDCFE5FF18C0D9FF19C056
:102BD000DAFF00EE11F0060EDBCFEBFFE806FCE2B9
:102BE000CBEC4CF020EEBAF010EE02F01850E126DB
:102BF0001950E222DECFE6FFDDCFE5FF18C0D9FF96
:102C000019C0DAFF00EE11F0060EDBCFEBFFE8068D
:102C1000FCE2CBEC4CF0120020EE03F01850D92669
:102C20001950DA22BEC0DFFF15D120EEC2F010EE3F
:102C300002F01850E1261950E222DECFE6FFDDCF88
:102C4000E5FF18C0D9FF19C0DAFF00EE11F0060E3B
:102C5000DBCFEBFFE806FCE2CBEC4CF020EEC0F063
:102C600010EE02F01850E1261950E222DECFE6FF06
:102C7000DDCFE5FF18C0D9FF19C0DAFF00EE11F073
:102C8000060EDBCFEBFFE806FCE2CBEC4CF01200CB
:102C900020EEC6F010EE02F01850E1261950E222A4
:102CA000DECFE6FFDDCFE5FF18C0D9FF19C0DAFFA0
:102CB00000EE11F0060EDBCFEBFFE806FCE2CBECFA
:102CC0004CF020EEC4F010EE02F01850E12619503E
:102CD000E222DECFE6FFDDCFE5FF18C0D9FF19C045
:102CE000DAFF00EE11F0060EDBCFEBFFE806FCE2A8
:102CF000CBEC4CF0120020EE02F01850D9261950FF
:102D0000DA22C8C0DEFFC9C0DDFF4FD620EE02F0D8
:102D10001850D9261950DA22CAC0DEFFCBC0DDFF19
:102D200044D620EECEF010EE02F01850E1261950F5
:102D3000E222DECFE6FFDDCFE5FF18C0D9FF19C0E4
:102D4000DAFF00EE11F0060EDBCFEBFFE806FCE247
:102D5000CBEC4CF020EECCF010EE02F01850E12657
:102D60001950E222DECFE6FFDDCFE5FF18C0D9FF24
:102D700019C0DAFF00EE11F0060EDBCFEBFFE8061C
:102D8000FCE2CBEC4CF0120020EED2F010EE02F0A0
:102D90001850E1261950E222DECFE6FFDDCFE5FF35
:102DA00018C0D9FF19C0DAFF00EE11F0060EDBCF14
:102DB000EBFFE806FCE2CBEC4CF020EED0F010EE9E
:102DC00002F01850E1261950E222DECFE6FFDDCFF7
:102DD000E5FF18C0D9FF19C0DAFF00EE11F0060EAA
:102DE000DBCFEBFFE806FCE2CBEC4CF0120020EE70
:102DF00003F01850D9261950DA228BC0DFFF2AD0F1
:102E000020EE03F01850D9261950DA2201C1DFFF55
:102E100020EE02F01850D9261950DA2202C1DFFF45
:102E2000C4D520EE03F01850D9261950DA2203C178
:102E3000DFFF20EE02F01850D9261950DA2204C123
:102E4000DFFFB3D520EE03F01850D9261950DA224F
:102E50001CC1DFFF20EE02F01850D9261950DA22EB
:102E6000000EDF6EA2D521EE20F010EE02F0185019
:102E7000E1261950E222DECFE6FFDDCFE5FF18C0E4
:102E8000D9FF19C0DAFF00EE11F0060EDBCFEBFF21
:102E9000E806FCE2CBEC4CF021EE1EF010EE02F066
:102EA0001850E1261950E222DECFE6FFDDCFE5FF24
:102EB00018C0D9FF19C0DAFF00EE11F0060EDBCF03
:102EC000EBFFE806FCE2CBEC4CF0120020EE03F046
:102ED0001850D9261950DA2248C1DFFF20EE02F03F
:102EE0001850D9261950DA2249C1DFFF5ED520EEED
:102EF00002F01850D9261950DA22000EDE6E000EAC
:102F0000DD6E53D520EE01F01850D9261950DA2283
:102F1000DF501A6E1B6A1B50000AD8A412001A5008
:102F2000000AD8B432D5010AD8B4E1D7030AD8B41C
:102F300064D5010AD8B4E4D5070AD8B4D8D7010AB1
:102F4000D8B46CD5030AD8B4D2D7010AD8B4BED548
:102F50000F0AD8B402D6010AD8B4C9D7030AD8B424
:102F6000D8D5010AD8B4C3D7070AD8B4C0D7010A44
:102F7000D8B4BDD7030AD8B4BAD7010AD8B4B7D7E2
:102F80001F0AD8B402D5010AD8B41DD5030AD8B493
:102F90002BD5010AD8B431D5070AD8B43FD5010AD8
:102FA000D8B44DD5030AD8B45BD5010AD8B461D5DD
:102FB0000F0AD8B467D5010AD8B46DD5030AD8B4BE
:102FC00073D5010AD8B479D5070AD8B47FD5010AD8
:102FD000D8B485D5030AD8B493D5010AD8B499D505
:102FE0003F0AD8B49FD5010AD8B4A5D5030AD8B4EE
:102FF000ABD5010AD8B4B1D5070AD8B4B7D5010A00
:10300000D8B4BDD5030AD8B4C3D5010AD8B4D1D534
:103010000E0AD8B401D6030AD8B407D6060AD8B423
:1030200037D6020AD8B467D6010AD8B46FD61F0AB9
:10303000D8B477D6020AD8B4A7D6060AD8B4D7D659
:10304000010AD8B4DDD6030AD8B4EBD6010AD8B445
:10305000F9D60F0AD8B407D7020AD8A4120036D777
:1030600011C01FF0206A000E226E100E216E40D299
:1030700012C098F013C099F0120012C09AF013C059
:103080009BF0120013C09CF0120012C09DF013C000
:103090009EF0120012C09FF013C0A0F0120012C0E8
:1030A000A1F013C0A2F0120013C0A3F0120013C0CD
:1030B000A4F0120013C0A5F0120013C0A6F0120075
:1030C00013C0A7F0120013C0A8F0120013C0A9F09B
:1030D000120012C0AAF013C0ABF0120013C0ACF083
:1030E000120013C0ADF0120013C0AEF0120013C0F6
:1030F000AFF0120013C0B0F0120013C0B1F0120014
:1031000013C0B3F0120013C0B4F0120012C0B8F034
:1031100013C0B9F012001250176E1350186E196ACE
:103120001A6A18C01AF017C019F0186A176ABA514B
:103130001710BA6FBB511810BB6FBC511910BC6F80
:10314000BD511A10BD6F121C176E131C186E196A30
:103150001A6A18C01AF017C019F0186A176A171CF3
:103160001B6E181C1C6E191C1D6E1A1C1E6EBA518B
:103170001B14BA6FBB511C14BB6FBC511D14BC6F28
:10318000BD511E14BD6F12001250BA11BA6F135008
:10319000BB11BB6F000EBC11BC6F000EBD11BD6F2B
:1031A000121C176E131C186E196A1A6A171C1B6EF4
:1031B000181C1C6E191C1D6E1A1C1E6EBA511B1495
:1031C000BA6FBB511C14BB6FBC511D14BC6FBD51F9
:1031D0001E14BD6F120013C0BEF012001250176E05
:1031E0001350186E196A1A6A18C01AF017C019F02D
:1031F000186A176AC0511710C06FC1511810C16FFB
:10320000C2511910C26FC3511A10C36F121C176E2E
:10321000131C186E196A1A6A18C01AF017C019F030
:10322000186A176A171C1B6E181C1C6E191C1D6E61
:103230001A1C1E6EC0511B14C06FC1511C14C16FEB
:10324000C2511D14C26FC3511E14C36F120012501D
:10325000C011C06F1350C111C16F000EC211C26FF7
:10326000000EC311C36F121C176E131C186E196A5F
:103270001A6A171C1B6E181C1C6E191C1D6E1A1C5A
:103280001E6EC0511B14C06FC1511C14C16FC251BE
:103290001D14C26FC3511E14C36F12001250176E5B
:1032A0001350186E196A1A6A18C01AF017C019F06C
:1032B000186A176AC4511710C46FC5511810C56F2A
:1032C000C6511910C66FC7511A10C76F121C176E5E
:1032D000131C186E196A1A6A18C01AF017C019F070
:1032E000186A176A171C1B6E181C1C6E191C1D6EA1
:1032F0001A1C1E6EC4511B14C46FC5511C14C56F1B
:10330000C6511D14C66FC7511E14C76F120012504C
:10331000C411C46F1350C511C56F000EC611C66F1E
:10332000000EC711C76F121C176E131C186E196A96
:103330001A6A171C1B6E181C1C6E191C1D6E1A1C99
:103340001E6EC4511B14C46FC5511C14C56FC651E9
:103350001D14C66FC7511E14C76F120012C0C8F0EB
:1033600013C0C9F0120012C0CAF013C0CBF0120093
:103370001250176E1350186E196A1A6A18C01AF094
:1033800017C019F0186A176ACC511710CC6FCD51BD
:103390001810CD6FCE511910CE6FCF511A10CF6FBC
:1033A000121C176E131C186E196A1A6A18C01AF0CC
:1033B00017C019F0186A176A171C1B6E181C1C6EB0
:1033C000191C1D6E1A1C1E6ECC511B14CC6FCD51D6
:1033D0001C14CD6FCE511D14CE6FCF511E14CF6F64
:1033E00012001250CC11CC6F1350CD11CD6F000EC6
:1033F000CE11CE6F000ECF11CF6F121C176E131CA3
:10340000186E196A1A6A171C1B6E181C1C6E191C80
:103410001D6E1A1C1E6ECC511B14CC6FCD511C148A
:10342000CD6FCE511D14CE6FCF511E14CF6F120031
:103430001250176E1350186E196A1A6A18C01AF0D3
:1034400017C019F0186A176AD0511710D06FD151F0
:103450001810D16FD2511910D26FD3511A10D36FE7
:10346000121C176E131C186E196A1A6A18C01AF00B
:1034700017C019F0186A176A171C1B6E181C1C6EEF
:10348000191C1D6E1A1C1E6ED0511B14D06FD15109
:103490001C14D16FD2511D14D26FD3511E14D36F8F
:1034A00012001250D011D06F1350D111D16F000EF5
:1034B000D211D26F000ED311D36F121C176E131CD2
:1034C000186E196A1A6A171C1B6E181C1C6E191CC0
:1034D0001D6E1A1C1E6ED0511B14D06FD1511C14BE
:1034E000D16FD2511D14D26FD3511E14D36F12005D
:1034F0001150176E186A1850000AD8A412001750FD
:10350000000AD8B4B5D5020AD8B4BFD5010AD8B4D8
:10351000E5D5060AD8B4BED5020AD8B4D7D50F0A65
:10352000D8B4EBD5020AD8B4DCD51A0AD8B4A0D5E1
:10353000010AD8B4A2D5030AD8B4A4D5010AD8B4D4
:10354000A4D5070AD8B4A6D5010AD8B4A8D5030AC9
:10355000D8B4AAD5010AD8B4AAD50F0AD8B4AAD526
:10356000010AD8B4AAD5030AD8B4AAD5010AD8B496
:10357000AAD5070AD8B4AAD5010AD8B4AAD5030A8D
:10358000D8B4ACD5010AD8B4ACD53F0AD8B4ACD5C0
:10359000010AD8B4ACD5030AD8B4ACD5010AD8B462
:1035A000ACD5070AD8B4ACD5010AD8B4ACD5030A57
:1035B000D8B4ACD5010AD8B4AED50F0AD8B4E4D586
:1035C000010AD8B408D6030AD8B408D6010AD8B478
:1035D0003ED6070AD8B462D6010AD8B498D6030AF0
:1035E000D8B4BCD6010AD8B4BED61F0AD8B4C0D647
:1035F000010AD8B4F6D6030AD8B41AD7010AD8A457
:1036000012004FD70001DE6F000E0001E16F67D29C
:1036100068C169F1000E4B6E34D0040E4DEC25F0FC
:1036200087D2050E4DEC25F083D2060E4DEC25F029
:103630007FD2630E4A6E9CC049F09C0E476E486A6A
:10364000010EE16F75D2070E4DEC25F071D2080E18
:103650004DEC25F06DD2090E4DEC25F069D2020E2D
:103660004A6EA4C049F0A40EE9D7030E4A6EA5C065
:1036700049F0A50EE3D7010E4A6EA6C049F0A60E8A
:10368000DDD73A50DC6FDD6BDD51000AD8A450D293
:10369000DC51000AD8B4C1D7010AD8B4C2D7030A92
:1036A000D8B4C3D7010AD8B4C4D7070AD8B4CBD783
:1036B000010AD8B4CCD7030AD8B4CDD7010AD8B4FC
:1036C000CED70F0AD8B4D1D7010AD8B4D4D730D2C4
:1036D00068C169F1010E4A6E000E4B6E57D00A0E9A
:1036E0004DEC25F025D20B0E4DEC25F021D2630ECA
:1036F0004A6EACC049F0AC0EA1D7090E4A6E010E5D
:103700004B6EADC049F0AD0E99D7AFC049F0AF0ECA
:1037100095D7090E4A6E010E4B6EB0C049F0B00E3F
:103720008DD7000E496E000E0101AD6F000EAC6F1B
:10373000270E0001FD6F100EFC6F000E0101C56F1A
:10374000000EC46F3CC1F6F23DC1F7F23EC1F8F283
:103750003FC1F9F2BD0E126E020E136E000E156E11
:10376000050E146EF7EC47F0E3D1000E496E010E22
:10377000E16F000E476E000E486EDAD1030E4A6EFE
:10378000000E4B6EB1C049F0B10E58D73A50DC6F05
:10379000DD6BDD51000AD8A4CBD1DC51000AD8B4CE
:1037A0009ED7010AD8B49FD7030AD8B4A0D7010A7C
:1037B000D8B4A3D7070AD8B4BBD1010AD8B4A5D7C7
:1037C000030AD8B4A6D7010AD8B4ABD70F0AD8B425
:1037D000CCD7010AD8B4D2D7ABD1BD0E126E020E2F
:1037E000136E000E156E140E146EF7EC47F0E60E15
:1037F000126E010E136E000E156E140E146EF7ECA1
:1038000047F0010E0101266F000E2A6F010E05EC34
:103810004CF08ED1BD0E126E020E136E000E156EA0
:10382000140E146EF7EC47F0E60E126E010E136ED6
:10383000000E156E140E146EF7EC47F0010E010128
:10384000266F010E2A6F010E05EC4CF071D1B4C049
:1038500049F0030E4DEC25F0B40E476E486A010E98
:103860000001E16F020E4A6E000E4B6E61D1B3C0D3
:1038700049F0020E4DEC25F0B30E476E486A010E7A
:103880000001E16F010EEFD73A50DC6FDD6BDD51C7
:10389000000AD8A44DD1DC51000AD8B49ED7010A41
:1038A000D8B4B8D7030AD8B4D2D7010AD8B4DFD76E
:1038B0003FD1980E01D0990E476E486A0ED03A500B
:1038C000DC6FDD6BDD51000AD8A407D0DC51000AA3
:1038D000D8B4EFD7010AD8B4EED72D0E4A6E000E39
:1038E0004B6E010EE16F47C0D9FF48C0DAFFDF50D1
:1038F000496E1ED1090E4A6E000E4B6E0FD0020E9D
:103900009B6102D0000E01D0090E4B6E9A0E03D0BF
:103910009B0E01D0A70E476E486AE3D73A50DC6F82
:10392000DD6BDD51000AD8A4DCD7DC51000AD8B425
:10393000E6D7010AD8B4ECD7030AD8B4EBD7D1D76D
:103940009D0E01D09E0E476E486A0ED03A50DC6F35
:10395000DD6BDD51000AD8A407D0DC51000AD8B4D1
:10396000EFD7010AD8B4EED7630EB8D79F0E34D084
:10397000A00E32D03A50DC6FDD6BDD51000AD8A4C6
:103980002DD0DC51000AD8B4F1D7010AD8B4F0D751
:1039900025D0A10E21D0A20E1FD0A30E1DD0AE0E99
:1039A0001BD03A50DC6FDD6BDD51000AD8A416D075
:1039B000DC51000AD8B4EDD7010AD8B4ECD7030A19
:1039C000D8B4EBD7010AD8B4EAD708D0A80E476E0E
:1039D000486A020E83D7A90E476E486A010E7ED749
:1039E0003A50DC6FDD6BDD51000AD8A47AD7DC5188
:1039F000000AD8B4EBD7010AD8B4EDD772D7AA0E13
:103A0000476E486A090E6AD7AB0EFAD73A50DC6F98
:103A1000DD6BDD51000AD8A464D7DC51000AD8B4AC
:103A2000EED7010AD8B4F0D75CD7FC0E476E010E72
:103A3000486E000EDF6F0DD0DFC0FCF1DFC02EF04E
:103A4000010168511EEC41F00009D8A408D0000122
:103A5000DF2B20EEB8F0DF51DE5CD8B0EDD720EEE2
:103A6000B8F018D0000EE06F0DD0E0C0FCF1E0C05F
:103A70002EF0010168511EEC41F00009D8A408D0D5
:103A80000001E02B20EEB9F0E051DE5CD8B0EDD7BC
:103A900020EEB9F0DF504A6E0ED03A50DC6FDD6B8D
:103AA000DD51000AD8A407D0DC51000AD8B4BDD734
:103AB000010AD8B4D7D747C0D9FF48C0DAFFDF50D2
:103AC000466E000E4B6E010E0001E16F47C0D9FF3C
:103AD00048C0DAFFDF50496EE8EC4EF029D0DE51E5
:103AE000DC6FDD6BDD51000AD8A422D0DC51000A66
:103AF000D8B48ED5010AD8B4EBD5050AD8B4C4D64B
:103B0000010AD8B4DCD6030AD8B4F4D6010AD8B472
:103B10001DD70F0AD8B42ED7010AD8B442D7030A4A
:103B2000D8B45ED7010AD8B471D7070AD8B4B5D7CC
:103B30000001E151120053D08551D8A466D020EE87
:103B400004F0ED51D926EE51DA22060EDE18DE1011
:103B5000D8A406D0EDC0D9FFEEC0DAFF010E1DD00B
:103B600020EE04F0ED51D926EE51DA22110EDE18C6
:103B7000DE10D8A44AD0EDC0D9FFEEC0DAFF020EA5
:103B80000CD020EE04F0ED51D926EE51DA22070ECA
:103B9000DE18DE10D8A439D00FD0DE6E000EDD6E38
:103BA00034D020EE04F0ED51D926EE51DA22070E82
:103BB000DE18DE10D8A406D0EDC0D9FFEEC0DAFFC3
:103BC000000EEBD720EE04F0ED51D926EE51DA22AB
:103BD000060EDE18DE10D8A418D0BCD7FFD7EDC073
:103BE000D9FFEEC0DAFFDF50EF6FF06BF051000A43
:103BF000D8A4F4D7EF51000AD8B49ED7010AD8B49C
:103C0000C0D7030AD8B4CDD7E9D7F10E126E010E92
:103C1000136E000E156E000E146EF7EC47F0FDD11A
:103C2000270E4D18D8A416D0640E4E6413D0010E82
:103C30004DEC25F0F10E126E010E136E000E156E96
:103C4000060E146EF7EC47F0010E4F6E000E0001E9
:103C5000806F1200270E4D18D8A40BD0140E4E649E
:103C600008D0000E1C6E100EF5EC4EF0010E806FA9
:103C700012008005D8A404D0000E4DEC25F0DAD750
:103C8000070E4D18D8A407D0780E4E6404D00D0E40
:103C90004DEC25F0CFD7070E4D18D8A40BD0140E3D
:103CA0004E6408D0130E1C6E050EF5EC4EF0020E9D
:103CB000806F1200020E8019D8A404D00C0E4DECB7
:103CC00025F0B8D74D50D8A409D001010351D8A48C
:103CD00005D0010E096F030E006F1200170E4D186C
:103CE000D8A409D001010451D8A405D0010E096F50
:103CF000010E006F120001010905D8A405D0000EC5
:103D0000096F000E006F1200060E3B18D8B404D0E5
:103D1000050E3B18D8A415D0630E446412D00C0EC7
:103D20004DEC25F0F10E126E010E136E000E156EA5
:103D3000060E146EF7EC47F03BC03BF1010E456EEA
:103D40001200ABBF05D0AB5111E1AA05D8B01200EB
:103D50000305D8A406D00C0E1C6E0F0EF5EC4EF029
:103D60001200180E1C6E180EF5EC4EF01200BD0E6F
:103D7000E96F020EEA6F84EC0CF01200000E0101F4
:103D80008F6F040EE619E711D8A413D00001A40523
:103D9000D8A407D001015005D8A403D0010E8F6F1D
:103DA00008D00001A405D8B404D001012351D8A43F
:103DB000F5D701010051D8A46BD0040EE619E71124
:103DC000D8A403D08F51D8B408D0E605E711D8B4F1
:103DD00004D0E651E711D8A45BD0270E4D18D8A423
:103DE00015D0640E4E6412D0010E4DEC25F0F10E8C
:103DF000126E010E136E000E156E060E146EF7ECA9
:103E000047F0010E4F6E000E000138D0270E4D18FE
:103E1000D8A40AD0140E4E6407D0000E1C6E100EEB
:103E2000F5EC4EF0010E2AD000018005D8A40ED08A
:103E3000000E4DEC25F0010E4F6E000E0001806F5C
:103E4000000E0101F26F010EF16F1200070E4D1806
:103E5000D8A407D0780E4E6404D00D0E4DEC25F09A
:103E6000C6D7070E4D18D8A40BD0140E4E6408D038
:103E7000130E1C6E050EF5EC4EF0020E806F08D08E
:103E8000020E8019D8A404D00C0E4DEC25F0D2D629
:103E90000101ABBF05D0AB5102E1AA05D8B01200B9
:103EA000270E4D18D8B41200070E4D18D8B41200C2
:103EB000030E0019D8A411D0120E1C6E000E1E6E37
:103EC0000A0E1D6E0C0E91EC4FF0000E0101AB6F4F
:103ED000040EAA6F000E4F6F1200020E0019D8B424
:103EE00003D00005D8A40AD0100E1C6E000E1E6E62
:103EF0000A0E1D6E000E91EC4FF0E7D70051D8A4CA
:103F00000FD0E605E711D8A40BD0F10E126E010E0A
:103F1000136E000E156E070E146EF7EC47F01200CC
:103F20000051D8A474D0040EE619E711D8A46FD0BC
:103F30000001A405D8B40BD001012351D8B407D097
:103F40000B05D8B413D0030E0B19D8B40FD0000151
:103F5000A405D8A426D001015005D8A422D0020E71
:103F60000B19D8B41ED02351D8B41BD0000EAB6FA0
:103F70000A0EAA6F4F05D8A40AD0100E1C6E000EB0
:103F80001E6E0A0E1D6E0A0E91EC4FF012000F0EFF
:103F90001C6E000E1E6E0A0E1D6E0A0E91EC4FF086
:103FA00012000001A405D8B408D001012351D8B4EF
:103FB00004D0020E0B19D8B40CD00001A405D8A46B
:103FC00016D001015005D8A412D0020E0B19D8A4A6
:103FD0000ED0000EAB6F0A0EAA6F100E1C6E000EF4
:103FE0001E6E0A0E1D6E0A0E91EC4FF012000101BA
:103FF0000405D8A406D0000E1C6E0F0EF5EC4EF092
:104000001200180E1C6E180EF5EC4EF01200180E71
:104010001C6E180EF5EC4EF01200EDC0D9FFEEC08C
:10402000DAFFDF500001EF6FF06BF051000AD8A407
:104030001200EF51000AD8B4F3D5010AD8B497D6CC
:10404000030AD8A412009AD6E40E1B6E2BEC4AF099
:104050000001E86F0101ADBF08D0AD5103E1AC052F
:10406000D8A003D04D50D8A428D0F10E126E010E66
:10407000136E000E156E070E146EF7EC47F0BD0EB2
:10408000126E020E136E000E156E030E146EF7EC18
:1040900047F0000E0101406F000E3B6F180E1C6EC2
:1040A000180EF5EC4EF049EC50F0010E4F6E000E7C
:1040B0000101AD6F000EAC6F12004D50D8A45BD063
:1040C0004A50D8B458D0000EAD6F640EAC6F495052
:1040D0004B5CD8A003D04AC049F001D0490649C082
:1040E0002EF068511EEC41F0E806D8B404D04A50D6
:1040F0004918D8A421D00A0E106E4950BDEC4DF0DD
:104100001C6E000E1E6E140E1D6E0A0E106E4950AF
:10411000BDEC4DF00001E06FE051495C146E156A92
:10412000D8A01506000E176E0A0E166E09EC43F0A5
:10413000145091EC4FF01CD00A0E106E4950BDEC9B
:104140004DF01C6E0A0E106E4950BDEC4DF0000192
:10415000E06FE051495C146E156AD8A01506000E98
:10416000176E0A0E166E09EC43F01450F5EC4EF083
:10417000010E4F6E1200170E4D18D8A457D04A509A
:10418000D8B454D0000EAD6F640EAC6F492A4950BC
:104190004A5CD8A04BC049F049C02EF068511EECD3
:1041A00041F0E806D8B404D04A504918D8A421D028
:1041B0000A0E106E4950BDEC4DF01C6E000E1E6EC6
:1041C000140E1D6E0A0E106E4950BDEC4DF000012C
:1041D000E06FE051495C146E156AD8A01506000E18
:1041E000176E0A0E166E09EC43F0145091EC4FF066
:1041F000BFD70A0E106E4950BDEC4DF01C6E0A0E72
:10420000106E4950BDEC4DF00001E06FE051495C8B
:10421000146E156AD8A01506000E176E0A0E166EDB
:1042200009EC43F014500FEC4FF0A2D7630E4A6430
:104230001AD0630E496417D06851D8A40AD0130E5F
:104240001C6E000E1E6E0A0E1D6E120E91EC4FF0CB
:104250001200100E1C6E000E1E6E0A0E1D6E120E47
:1042600091EC4FF012000001E829D8B4A8D0E85131
:10427000D8B40FD0E805D8B40CD0020EE819D8B4E1
:1042800008D0040EE819D8B404D0080EE819D8A450
:1042900096D0E4C02EF0E5C02FF0E6C030F0E7C0C5
:1042A00031F0000E326EE20E336E346A4CEC31F0B7
:1042B000E16F46EC50F00001E36FE151D8A4120029
:1042C000E351D8B403D0BE51D8A41200E4C0D8F052
:1042D000E5C0D9F0E6C0DAF0E7C0DBF049C0DCF0B9
:1042E00001016851EDEC45F001016851D8A409D0F5
:1042F0000001B8514918D8A404D0630EB86101D0A8
:10430000B82B01016805D8A409D00001B95149189A
:10431000D8A404D0630EB96101D0B92BBD0E126EC2
:10432000020E136E000E156E080E146EF7EC47F0B9
:10433000000E0101406F000E3B6F000EAB6F280EA8
:10434000AA6F0A0E106E4950BDEC4DF01C6E000EA7
:104350001E6E040E1D6E0A0E106E4950BDEC4DF01F
:104360000001E06FE051495C146E156AD8A0150693
:10437000000E176E0A0E166E09EC43F0145091EC05
:104380004FF049504A18D8B403D04A50D8A412006C
:104390000001B851D8A408D0B951D8A405D0E35130
:1043A000D8A402D0010EBE6F492A47C0D9FF48C029
:1043B000DAFF49C0DFFF020E05EC4CF012004A5054
:1043C0004918D8B41200070E4D18D8A41200270EB1
:1043D0004E641200000E0101AD6F640EAC6F49C057
:1043E0003AF06851CEEC43F00A0E106E4950BDEC25
:1043F0004DF01C6E000E1E6E140E1D6E0A0E106E19
:104400004950BDEC4DF00001E06FE051495C146E85
:10441000156AD8A01506000E176E0A0E166E09EC66
:1044200043F0145091EC4FF012000101F105F2112C
:10443000D8A406D0060E0201BD19BE11D8A41200E0
:1044400001011D05D8A4CED0B5EC45F0CBD020EEAF
:1044500004F0E751D926E851DA220A0EDE18DE1000
:10446000D8A406D0E7C0D9FFE8C0DAFF010EB5D066
:1044700020EE04F0E751D926E851DA220B0EDE18BF
:10448000DE10D8A4CFD038D020EE04F0E751D926E2
:10449000E851DA220C0EDE18DE10D8A472D0E7C084
:1044A000D9FFE8C0DAFF020E98D020EE04F0E75101
:1044B000D926E851DA220D0EDE18DE10D8B41CD051
:1044C00020EE04F0E751D926E851DA220E0EDE186C
:1044D000DE10D8A42DD0E7C0D9FFE8C0DAFF030E64
:1044E0007CD020EE04F0E751D926E851DA220D0EF7
:1044F000DE18DE10D8A406D0E7C0D9FFE8C0DAFF86
:10450000040E6BD020EE04F0E751D926E851DA22F0
:104510000F0EDE18DE10D8B4A5D720EE04F0E75158
:10452000D926E851DA220C0EDE18DE10D8B4B7D73F
:1045300020EE04F0E751D926E851DA22100E44D0DB
:1045400020EE04F0E751D926E851DA220E0EDE18EB
:10455000DE10D8B4C0D720EE04F0E751D926E851D8
:10456000DA220C0EDE18DE10D8B499D720EE04F053
:10457000E751D926E851DA22100EDE18DE10D8B441
:1045800027D020EE04F0E751D926E851DA22140EA4
:10459000DE18DE10D8A446D0E7C0D9FFE8C0DAFFA5
:1045A000050E1BD020EE04F0E751D926E851DA229F
:1045B000130EDE18DE10D8B455D720EE04F0E75104
:1045C000D926E851DA22120EDE18DE10D8A42AD03D
:1045D000E7C0D9FFE8C0DAFF000EDE6E000EDD6E28
:1045E00021D0FFD7E7C0D9FFE8C0DAFFDF500001D4
:1045F000E96FEA6BEA51000AD8A4F3D7E951000A3F
:10460000D8B425D7010AD8B43FD7030AD8B44DD7B8
:10461000010AD8B466D7070AD8B492D7010AD8B429
:10462000C1D7DFD7E60E126E010E136E000E156EA7
:10463000000E146EF7EC47F07ED0000E0101DD6F26
:10464000640EDC6F010E486F020E4219D8B403D01D
:10465000030E436528D098EC2FF00001EB6F140E89
:10466000106E000E126E140E116E0E0EB5EC4CF0A4
:10467000000EAB6F0A0EAA6F0001EB51D8A40BD04D
:10468000270E4D18D8B407D04D50D8B404D0170E0B
:104690004D18D8A41200000E0101426F000E436FA6
:1046A000010E4F6E1200010E1C6F010E3C27000E12
:1046B0003D233E233F23000E4A6F000E1E6F000E67
:1046C0001F6F000E206F000E216F000E486F000E4E
:1046D000436F000E006F000EAB6F280EAA6F0C0E1A
:1046E000106E000E126E040E116E0F0EB5EC4CF033
:1046F000E60E126E010E136E000E156E0A0E146E8B
:10470000F7EC47F012008AEC3FF0120049EC29F078
:10471000000E0101DD6F640EDC6F1200B8EC2DF0AD
:10472000F7D7C8EC26F0F4D7B20EDC6F020EDD6FBF
:1047300038EC11F0EDD7E7C0D9FFE8C0DAFFDF5061
:104740000001E96FEA6BEA51000AD8A41200E951AE
:10475000000AD8B472D7010AD8B4D5D7030AD8B49E
:10476000D5D7010AD8B4DDD7070AD8B4D7D7010AFC
:10477000D8A41200D9D701014005D8A407D0000E53
:10478000116E140E106ECAEC4BF010D0E651E7110A
:10479000D8A40CD0000E286F000E296F030E000164
:1047A000A519D8B402D0879401D0878401011D05D2
:1047B000D8B405D0040EE619E711D8A41CD0B1BFB7
:1047C0001AD0B15103E1B005D8A015D0B1BF06D0C1
:1047D000B15111E13D0EB05DD8B00DD0020E000117
:1047E000B119D8A408D0000E126E040E116E010E7D
:1047F00067EC41F01200030E01010019D8A44FD05C
:10480000000E286F2951D8A413D0030E0001B1194E
:10481000D8A40ED0000E0101E16F280EE06F000E4B
:10482000126E000E116E040E67EC41F0010E296F3E
:104830000101E1BF05D0E15105E1E005D8B002D0AA
:104840000001B1510001B105D8A410D00101E1BFB0
:1048500005D0E1510BE1E005D8B008D0000E126E92
:10486000050E116E030E67EC41F007D0000E126EBC
:10487000000E116E030E67EC41F00001A551D8A4A3
:1048800007D0000E116E0A0E106ECAEC4BF012002B
:10489000000E116E000E106ECAEC4BF012000051AB
:1048A000D8A442D0E605E711D8A43ED01D05D8A46F
:1048B000838E0001B105D8A417D0020EB419D8B464
:1048C00003D0B405D8A408D0000E126E000E116EED
:1048D000040E67EC41F013D0000E126E280E116E1C
:1048E000040E67EC41F00BD0030EB119D8B407D019
:1048F000000E126E000E116E040E67EC41F0030EF6
:104900000001A519D8B412000101C1BF07D0C151DF
:10491000C011BF11BDE1BE05D8B0BAD78794000E53
:10492000BD6F000EBC6F12000051D8A448D000012A
:104930009D51D8A404D001010005D8B40CD00001C9
:104940009E51D8A417D09C51D8B414D0020E0101A6
:104950000019D8A40FD0000E286F000E296F030E87
:104960000001A519D8B41200020EA519D8B412007E
:10497000879412000001B105D8A408D0000E126E71
:10498000140E116E010E67EC41F007D0000E126E8E
:10499000000E116E010E67EC41F00001A505D8B4C0
:1049A00004D0030EA519D8A402D087941200A551F3
:1049B000D8B46ED7020EA519D8A4120069D7000E7C
:1049C000296F2851D8A40CD0030E0001B119D8A426
:1049D00007D0000E0101E16F280EE06F010E286F75
:1049E0000101E1BF05D0E15105E1E005D8B002D0F9
:1049F0000001B151040E0101E619E711D8A41BD042
:104A0000000E286F000E296F00019D51D8A40AD016
:104A10009E51D8B403D09C51D8A404D0020EA4193E
:104A2000D8A407D0000E126E000E116E010E67ECB6
:104A300041F0879412000001B105D8A408D0000EFF
:104A4000126E0A0E116E020E67EC41F007D0000ED6
:104A5000126E000E116E020E67EC41F00001A551BE
:104A6000D8A407D0000E116E140E106ECAEC4BF0D5
:104A70000DD0A505D8B404D0020EA519D8A406D02F
:104A8000000E116E000E106ECAEC4BF0030E00010A
:104A9000A519D8A4120087941200226E000E0101FD
:104AA000AD6F640EAC6F22506619D8B406D0010EFB
:104AB000226403D0000E686F05D0020E226002D07F
:104AC00069C168F1000E656FF6D0000E666F0A0EC0
:104AD000676F000E696F000E236E2350020D510E9A
:104AE000F324D96E010EF420DA6E100EDF6E23501F
:104AF000020D520EF324D96E010EF420DA6E23C09B
:104B0000DFFF232A090E2364E8D707D1010E666F61
:104B10000A0E676F000E696F000E236E2350020DA0
:104B2000510EF324D96E010EF420DA6E0E0EDF6EF4
:104B30002350020D520EF324D96E010EF420DA6ECA
:104B400023C0DFFF232A090E2364E8D7E6D0000E36
:104B5000656F040E666F040E676F0A0E516F130EB9
:104B6000526F170E536F0A0E546F050E556F210EBC
:104B7000566F0D0E576F010E51D0000E656F050E6A
:104B8000666F020E676F0D0E516F0A0E526F0D0E9B
:104B9000536F0F0E8ED0000E656F060E666F030EFC
:104BA000676F0F0E516F000E526F0F0E536F050E91
:104BB000546F0F0E556F0D0E73D0000E656F070EFC
:104BC000666F020E676F0A0E516F0F0E526F0A0E5C
:104BD000536F100E6ED0000E656F080E666F020EDA
:104BE000676F120E516F0E0E526F110E536F0C0E37
:104BF00060D0000E656F090E666F040E676F120EAF
:104C0000516F0A0E526F110E536F0A0E546F110E30
:104C1000556F120E566F050E576F150E586F7DD0DB
:104C2000010E656F0A0E666F020E676F110E516FEF
:104C3000100E526F100E536F120E3BD0010E656FA7
:104C40000B0E666F020E676F140E516F240E526FBB
:104C5000140E536F230E2DD00C0E666F000E686F6E
:104C6000020E676F050E516F130E526F050EB0D70F
:104C70000D0E666F010E676F0D0E516F120E526FA3
:104C8000000EAB6F3C0EAA6F48D0050E516F0C0E94
:104C9000526F050E536F0E0E546F220E556F140E89
:104CA000566F3BD0120E516F0E0E526F140E536F93
:104CB000150E546F32D02250206E216A2150000A06
:104CC000D8A42BD02050000AD8B4FFD6010AD8B4FB
:104CD0001DD7030AD8B4E6D7010AD8B4D6D7070A35
:104CE000D8B435D7010AD8B448D7030AD8B453D7B3
:104CF000010AD8B462D70F0AD8B46DD7010AD8B464
:104D000078D7030AD8B48CD7010AD8B497D7070A42
:104D1000D8B4A2D7010AD8B4ABD701016751685DF6
:104D2000D8A002D0000E686F0D0E2218D8A41AD099
:104D30006851020D520EF324D96E010EF420DA6E82
:104D4000DF501C6E000E1E6E0A0E1D6E6851020DA5
:104D5000510EF324D96E010EF420DA6EDF5091EC7F
:104D60004FF012006851020D520EF324D96E010E5D
:104D7000F420DA6EDF501C6E6851020D510EF324E0
:104D8000D96E010EF420DA6EDF50F5EC4EF0120011
:104D900098EC2FF0336EDFEC3FF0326E000E010125
:104DA000916F02EC4FF0000E0101506F030E43654E
:104DB0000DD0000E006FE60E126E010E136E000E87
:104DC000156E100E146EF7EC47F012000305D8B400
:104DD0000CD0185119111A111B11D8A45FD02651EB
:104DE000D8A45CD04851D8A459D0020E0001A5190E
:104DF000D8A418D0AC511D6E1E6A1F6A206AB00E6E
:104E0000216E040E226E000E236E000E246E32EC14
:104E100049F01DC0BEF11EC0BFF11FC0C0F120C0CF
:104E2000C1F109D0000E0101BE6F000EBF6F000E70
:104E3000C06F000EC16F000E0101126F010E1C6FDA
:104E4000010E3C27000E3D233E233F23000E4A6FF8
:104E5000000E1E6F000E1F6F000E206F000E216FE0
:104E6000000E486F000E436F000E006F000EAB6F18
:104E7000280EAA6F0C0E106E000E126E040E116E2C
:104E80000F0EB5EC4CF0E60E126E010E136E000E16
:104E9000156E0F0E146EF7EC47F012003204D8B402
:104EA00011D0C9BF21D0C95103E1C805D8A01CD079
:104EB0004105D8A419D0CFBF05D0CF5115E1CE05FB
:104EC000D8B012D02751D8A40FD03204D8A4432B85
:104ED000432B010E276F000EC36F0A0EC26F000E28
:104EE000DF6F1E0EDE6F1200C9BF2ED0C95103E165
:104EF000C805D8A029D02705D8A426D04505D8A410
:104F000005D0000E006F97EC38F055D7C3BF05D021
:104F1000C35117E1C205D8B014D04A05D8A403D0B4
:104F20005DEC46F004D00EEC4EF097EC38F0000E3D
:104F30000101276F010E446F000ECF6F140ECE6F6C
:104F40001200000E006F12002705D8A417D0000E23
:104F5000006FC3BF05D0C35160E1C205D8B01200D5
:104F60004A05D8A403D05DEC46F004D00EEC4EF018
:104F700097EC38F0000E0101276F12000051D8A401
:104F80000BD0020E3218D8B402D0432BBAD797EC0C
:104F900038F0B0EC4EF01200D1BF05D0D1510BE18A
:104FA000D005D8B008D04605D8A405D097EC38F085
:104FB000000E466FEED70001A805D8B404D0020E4B
:104FC000A819D8A405D0040E3318D8B41200E1D71C
:104FD0003350D8B41200A405D8A413D097EC38F0FD
:104FE000B0EC4EF0020E3318D8A41200020E0001ED
:104FF000A419D8B4120087EC4FF0010E01014F6FD5
:105000001200040E3318D8B4C4D7010E0101276F63
:10501000000EC36F0A0EC26F12001200000E8EB691
:10502000010E0001896F8B51D8A4120016D1000126
:105030008951D8A404D0030E01019C6F12007E0791
:10504000D8A07F077FAF1200F60E7E5DFF0E7F595E
:10505000D8B01200000E01019C6F120000018951AE
:10506000D8B42CD0020E01019C6FC80E00018D2512
:10507000D96EDA6A020EDA22D890DF327FBF08D00A
:10508000C80E8D25D96EDA6A020EDA22800EDF266E
:10509000000E7F6F000E7E6F8C2B8CC001F0070E10
:1050A0000116D8B48D2B410E8C19D8A41200000E15
:1050B00001019C6F010E00018B6F12007E4B7F2B54
:1050C0007FBF12007F5104E10A0E7E5DD8A012005E
:1050D000010E01019C6F000E00018D6F000E8C6FA0
:1050E000120000018951D8B430D07FBF0ED07F515B
:1050F00004E1140E7E5DD8A008D07FBF1ED07F5182
:1051000004E12D0E7E5DD8A018D07FBFA3D77F51BC
:1051100004E1500E7E5DD8A09DD77FBF06D07F51A1
:1051200099E1640E7E5DD8B095D7FF0E7F6FF60EC5
:105130007E6F040E01019C6F1200000E7F6F000E47
:105140007E6F020E01019C6F12007E4B7F2B1200BE
:1051500000018951D8A456D0050E01019C6FC80EDC
:1051600000018D25D96EDA6A020EDA22D890DF327C
:105170007FBF08D0C80E8D25D96EDA6A020EDA22FA
:10518000800EDF26000E7F6F000E7E6F8C2B8CC092
:1051900001F0070E0116D8A409D08D2BC80E8D255D
:1051A000D96EDA6A020EDA22000EDF6E0D0E8C194D
:1051B000D8A41200000E01019C6F00018A05D8A43A
:1051C0001AD00201C85101018919D8A40FD00201D7
:1051D000C95101018A19D8A409D0010E00018B6FB1
:1051E000000E0201CA6F000ECB6F1200C8C289F117
:1051F000C9C28AF11200010E8A6FC8C289F1C9C200
:105200008AF112007E4B7F2B7FBF12007F5104E199
:105210000A0E7E5DD8A012001DD700018951D8B4B6
:1052200004D0040E01019C6F12007E07D8A07F07F6
:105230007FAF1200F60E7E5DFF0E7F59D8B01200D0
:1052400047D7010E9C6F000E00017F6F000E7E6F2E
:10525000000E8D6F000E8C6F120001019C51016ECB
:10526000026A0250000AD8A4ECD70150000AD8B450
:10527000E8D7010AD8B435D7030AD8B4D8D6010A7A
:10528000D8B4ECD6070AD8B463D7010AD8B4C5D7C6
:10529000D8D7DFEC3FF00001E46F32EC40F00001C2
:1052A000E56F98EC2FF00001E66FA9EC2CF002EC12
:1052B0004FF0000E0101506F0001E4515AEC4EF026
:1052C000030E010143650DD0000E006FE60E126E55
:1052D000010E136E000E156E100E146EF7EC47F0F3
:1052E0001200020E0019D8A413D0AFBF05D0AF51E1
:1052F0000FE1AE05D8B00CD03EEC3DF0B0EC4EF076
:1053000087EC4FF0010E0101506F010E916F1200FA
:105310000405D8B410D0185119111A111B11D8A4B2
:105320002FD02651D8A42CD04851D8A429D0020E71
:105330001C19D8A425D0040E1C6FD0C01EF1D1C0FA
:105340001FF1D2C020F1D3C021F1000E126F000E68
:10535000486F010E226F000E436F000EAB6F280ED8
:10536000AA6F000E106E000E126E040E116E0F0E5C
:10537000B5EC4CF0B0EC4EF0010E0101506F120094
:105380000001E505D8B412D00101C9BF25D0C9512B
:1053900003E1C805D8A020D04105D8A41DD0CFBFB7
:1053A00005D0CF5119E1CE05D8B016D00101275153
:1053B000D8A412D00001E505D8B402D00101432BD6
:1053C000010E0101276F000EC36F0A0EC26F000E9F
:1053D000DF6F1E0EDE6F1200C9BF2DD0C95103E171
:1053E000C805D8A028D02705D8A425D04405D8A41E
:1053F00005D0000E006F97EC38F068D7C3BF05D01A
:10540000C35116E1C205D8B013D0FBEC4DF03EEC11
:105410003DF0000E276F010E456F000ECF6F140E8A
:10542000CE6F000ED16F280ED06F010E466F1200A6
:10543000000E006F12002705D8A40AD0000E006FDE
:10544000C3BFE3D7C3514EE1C205D8B01200DDD7C8
:105450000051D8A418D0C3BF05D0C35114E1C20570
:10546000D8B011D0020E0001E519D8B407D001015F
:10547000432B000E006F3EEC3DF028D73EEC3DF094
:10548000B0EC4EF012000001A805D8A405D0030E20
:10549000E619D8B41200F4D7020EE619D8A411D038
:1054A000020E01010019D8A40CD0020E0001A419AB
:1054B000D8B407D03EEC3DF0B0EC4EF087EC4FF0A6
:1054C00012000001E605D8B408D0030EE619D8B4DE
:1054D00004D0040EE619D8A41200020EA419D8B400
:1054E0001200CCD712000101185119111A111B1109
:1054F000D8A40DD04251D8B40AD02651D8A407D090
:105500004851D8A404D0000E006F020E07D0420507
:10551000D8A405D00051D8A402D0000E426F00518B
:10552000C8EC44F0186E1850D8A40AD0010E01013E
:105530000D6FA5BF120087928790000E166F1200A4
:105540000001AF05D8A422D07905D8A41FD001014D
:105550000051D8A41BD01850D8A4C7BF17D0C7512A
:1055600003E1C605D8A012D0DFBF05D0DF510EE1A0
:10557000DE05D8B00BD0C7BF06D0C75103E1120E6D
:10558000C65DD8B0120087828780D7D71804D8B4F8
:1055900004D0020E1818D8A463D001010451D8A475
:1055A0005FD091B204D00001B351D8B406D091B00D
:1055B0004FD00001B305D8A44BD091B003D0B35164
:1055C000D8B405D091B23AD0B305D8A437D0000EE4
:1055D00001010D6F000EA56FC80EA46F000EB96F0C
:1055E000140EB86F0305D8B403D01C05D8A424D07A
:1055F000000198510A0DF3CF12F0F4CF13F0B0511F
:105600001226000E13221250CC25146E1350CD21F9
:10561000156E000ECE21166E000ECF21176E500EA5
:1056200014240101186F000E1520196F000E1620AA
:105630001A6F000E17201B6F020E1C6F0001B35172
:10564000D8A402D0878001D08782010E0101166F95
:105650000001B351D8A402D08792120087901200A3
:10566000030E1818D8A4120001010351D8A4120087
:1056700091B004D00001B351D8B406D091B250D04B
:105680000001B305D8A44CD091B203D0B351D8B423
:1056900005D091B03BD0B305D8A438D0000E01019D
:1056A0000D6F000EA56FC80EA46F000EB96F140E1B
:1056B000B86F0405D8B404D0040E1C19D8A424D0A3
:1056C000000199510A0DF3CF12F0F4CF13F0B0514D
:1056D0001226000E13221250D025146E1350D12121
:1056E000156E000ED221166E000ED321176E500ECD
:1056F00014240101186F000E1520196F000E1620DA
:105700001A6F000E17201B6F030E1C6F0001B351A0
:10571000D8A402D0878201D08780020E0101166FC3
:105720000001B351D8A402D08790120087921200D2
:1057300075EC3EF0936F7B05D8A40FD0CBBF08D09B
:10574000CB5103E1CA05D8A003D0000E946F05D059
:105750007D517F5DD8A07EC193F18DA671D0965109
:10576000D8A46ED09551D8A416D0FA0E0001842585
:10577000D96EDA6A020EDA220101D8909731DF6E13
:1057800000018451D8A402D0010E01D0000E846F14
:10579000000E0101976F500E936507D0C7BF08D068
:1057A000C75103E1C605D8A003D0869E000E0C6F3A
:1057B000952BFA0E00018425D96EDA6A020EDA22E0
:1057C00001019551DE5CD8B044D0590E4D6505D02D
:1057D0006A0E4D6102D0010E01D0000E156F500E01
:1057E000A36F000E4D6F010E946F010E966F7F2B0D
:1057F0000001AF05D8A40ED00101C7BF0BD0C7511F
:1058000003E1C605D8A006D0010E7F6522D0000EA8
:105810007F6F1FD001017C517DC105F0066A05260E
:10582000000E06227F51076E086A0550075C08507B
:10583000800A096E0650800A0958D8B0E8D709D006
:105840008DB607D09651D8B404D0000E966F000ED6
:10585000956F8DB6972B4D2B005104EC45F0000150
:10586000836FAF05D8A42ED00101C7BF2BD0C7517D
:1058700003E1C605D8A026D0DFBF05D0DF5122E165
:10588000DE05D8B01FD000018351D8B43AD0010151
:105890009405D8A436D0A5BF05D0A55132E1A40502
:1058A000D8B02FD07F51D8A42CD0C7BF06D0C751B5
:1058B00028E10C0EC65DD8B024D0868EEC0EA56F04
:1058C000780E1AD000018351D8B41BD00101935136
:1058D000A35DD8B016D09405D8A413D0A5BF05D029
:1058E000A5510FE1A405D8B00CD00D51D8A409D012
:1058F000868EFF0EA56F380EA46F010E0C6F000E82
:10590000946F150E0101A36102D0C7BF04D000013E
:105910008351D8A404D0869E000E01010C6F0001B3
:105920008351D8B40CD00101A5BF09D0A55103E122
:10593000A405D8A004D0A407D8A0A5071200000190
:105940008351D8A412000101A5AF1200A44BA52BCE
:10595000120001012605D8A417D04705D8A414D0F9
:105960007B51D8A408D0000ECB6F0A0ECA6F000E70
:10597000CD6F140ECC6F29EC4FF0010E7B6F000E33
:105980000F6F000E0E6F12002605D8B403D0090564
:10599000D8A407D0000E0F6F000E0E6F000E7B6FA5
:1059A0001200030E0019D8A468D0030ECAEC3CF014
:1059B000295001011E5D2A501F592B502059215199
:1059C000800A0001DA6F2C50800ADA59D8A004D07E
:1059D00001014805D8A451D000019951D8B404D090
:1059E00001011251D8B40CD0010111BF05D01151E1
:1059F00044E11005D8B041D00001AB51D8B43DD03E
:105A000001017B51D8A422D01251D8A41FD0000E7E
:105A1000CD6F140ECC6F0001AB51D8B408D0000E7E
:105A20000101276F010E126F79EC4AF00FD0000EC2
:105A30000101CB6F0A0ECA6F29EC4FF0010E7B6F8C
:105A4000000E0F6F000E0E6F000E126F010111BFDE
:105A500005D0115102E11005D8B012001205D8A4EA
:105A600012000001AB51D8B41200000E0101CB6F3F
:105A7000020ECA6F000E126F7ED701010051BDECFD
:105A800039F0E806D8A442D09851D8B404D0010126
:105A90001251D8B40CD0010111BF05D0115136E11B
:105AA0001005D8B033D00001AB51D8B42FD00101CC
:105AB0007B51D8A422D01251D8A41FD0000ECD6F94
:105AC000140ECC6F0001AB51D8B408D0000E010108
:105AD000276F010E126F79EC4AF00FD0000E010112
:105AE000CB6F0A0ECA6F000E126F29EC4FF0010E39
:105AF0007B6F000E0F6F000E0E6F010111BFAED74E
:105B0000115135E11005D8B01200A8D7010111BF1D
:105B100012D0115103E11005D8A00DD00051D8B416
:105B20000AD01351105D106F1151D8A01105116FDB
:105B3000000E7B6F12000FBF10D00F5103E10E0556
:105B4000D8A00BD00051D8B408D014510E5D0E6F00
:105B50000F51D8A00F050F6FEBD7000E116F000E7D
:105B6000106F000E0F6F000E0E6F000E7B6F120095
:105B7000DFEC3FF0206E2050D8B407D001019151E6
:105B8000D8A403D002EC4FF008D02050D8B405D0F0
:105B900001019105D8B487EC4FF098EC2FF0216EFD
:105BA00020505AEC4EF08EB213D000019D51D8B463
:105BB0000FD001012351D8B40BD0350E4D18D8B4F5
:105BC00007D0020E0001A419D8A402D0000E216E45
:105BD0002150D8B45DD0000E0101AB6F3C0EAA6F0E
:105BE000020E0001A419D8A40DD09D51D8A40AD04A
:105BF0002104D8B404D0040E2118D8A403D0FBEC9F
:105C00004DF01200A851D8B414D0030E2118D8A416
:105C10000BD001010451D8A407D0040E1C19D8B42C
:105C200003D00EEC4EF01200040E2118D8A412007E
:105C3000E6D7030E01010B19D8A409D02104D8A47A
:105C400006D00EEC4EF0000E0101276F1200030E7D
:105C50000B19D8A407D0020E2118D8A403D05DECEC
:105C600046F0F1D7030E2118D8A405D0040E1C1954
:105C7000D8B41200E6D700019D51D8B407D0020E67
:105C8000A419D8A403D002EC4FF012002050CED7B4
:105C90008EB20BD000019D51D8B407D09D51140D88
:105CA000F3CFB0F1F4CFB1F1120001013A05D8A45D
:105CB0000FD02050D8A40CD0000E3A6FADC023F105
:105CC0000001AD51140DF3CFB0F1F4CFB1F11200DA
:105CD000B1BF05D0B15113E1B005D8B010D000016B
:105CE000A405D8A40CD001015005D8A408D0235194
:105CF000D8B405D0000E236F000E506F80D701017D
:105D0000B1BF05D0B15119E1B005D8B016D000012E
:105D1000A405D8B412D001012351D8B40ED0000E7E
:105D2000236F2705D8A403D0000E276F7AD7FBEC8A
:105D30004DF0000E0101486F120001012205D8A4A8
:105D400012002050D8A41200ABBF06D0AB5103E123
:105D5000020EAA5DD8B01200000E226F1200E2C03F
:105D600010F0E3C011F0E0C012F0E1C013F0000E3B
:105D7000156E080E146E07EC4BF0080E0001E225BC
:105D8000106E000EE321116EE2C012F0E3C013F0BA
:105D9000000E156E040E146E07EC4BF0000120EEA1
:105DA0000CF0E251D926E351DA2210EE07F0E2516D
:105DB000E126E351E222E750E46FE4390F0BDF6E96
:105DC000E2C010F0E3C011F021EC4CF0E96FE951B2
:105DD000D8A419D020EE04F0E251D926E351DA22FA
:105DE000DECF2EF0DECF2FF0DECF30F0DECF31F081
:105DF000000E326E0F0EE225336E000EE321346E7C
:105E00004CEC31F004D0A651D8A402D0000EE96FBA
:105E100020EE04F0E251D926E351DA22FF0EDE141F
:105E2000E46FFF0EDE14E56FFF0EDE14E66F0F0E5B
:105E3000DE14E76F20EE04F0E251D926E351DA22B6
:105E4000E4C0DEFFE5C0DEFFE6C0DEFFE7C0DEFF48
:105E5000E2C038F0E3C039F0DBEC48F0E951D8A4F7
:105E60001BD0E2C010F0E3C011F03BEC4CF0000995
:105E7000D8A408D020EE0EF0E251D926E351DA2260
:105E8000010E07D020EE0EF0E251D926E351DA22BE
:105E9000000EDF6E000E1200060EE919D8B404D011
:105EA000050EE919D8A41BD020EE04F0E251D92642
:105EB000E351DA22DECF2EF0DECF2FF0DECF30F04E
:105EC000DECF31F0010E326E0F0EE225336E000E82
:105ED000E321346E4CEC31F00009D8B4DBD7E2C0DA
:105EE00010F0E3C011F03BEC4CF00009D8A40DD049
:105EF000BE05D8B4CFD720EE0EF0E251D926E3513B
:105F0000DA22010EDF6EE9511200E2C024F0E3C094
:105F100025F081EC42F00001E86FE805D8A4BAD77B
:105F200020EE0EF0E251D926E351DA22000EEAD734
:105F300001012651D8A4C0D0C9BF19D0C95103E16D
:105F4000C805D8A014D0010E1C6E000E1E6E140ED3
:105F50001D6E120E91EC4FF0000E0101AB6F0A0E98
:105F6000AA6F010E456E010E4F6E000E1200000169
:105F7000A851D8B42FD0350E4D18D8A417D0000E84
:105F80000101AB6F0A0EAA6F000E1C6E000E1E6E92
:105F9000040E1D6E120E91EC4FF0020E0001A819B6
:105FA000D8A402D0010E4F6E030E1200330E4D180E
:105FB000D8A4DBD7000E0101AB6F0A0EAA6F050E45
:105FC0001C6E000E1E6E040E1D6E120E91EC4FF034
:105FD000040E1200350E4D18D8A416D0000E010183
:105FE000AB6F280EAA6F000E1C6E000E1E6E040E04
:105FF0001D6E120E91EC4FF00001A905D8B4D2D756
:10600000010E4F6E010E1200330E4D18D8A419D098
:10601000000E0101AB6F280EAA6F050E1C6E000E5C
:106020001E6E040E1D6E120E91EC4FF00001A905BC
:10603000D8A403D0010E4F6ECBD7010E4F6E020EC7
:106040001200360E4D18D8A40FD0000E0101AB6F10
:10605000280EAA6F130E1C6E000E1E6E040E1D6E0F
:10606000100E91EC4FF0CCD73B50D8B423D0060E95
:106070003B18D8B41FD0050E3B18D8B41BD00A0E5D
:10608000106E4350E8EC4BF0F60DF35043241C6EB9
:10609000000E1E6E040E1D6E0A0E106E4350E8ECCC
:1060A0004BF091EC4FF0000E0101AB6F280EAA6F80
:1060B000010E456E3B5012003B50D8B41BD00A0E67
:1060C000106E4350E8EC4BF0F60DF35043241C6E79
:1060D000000E1E6E040E1D6E0A0E106E4350E8EC8C
:1060E0004BF091EC4FF0000E0101AB6F140EAA6F54
:1060F000010E456E3B501200000E3A6E2D0E00014F
:10610000986504D0030E986F010E3A6E2D0E9965B6
:1061100004D0030E996F010E3A6E9A51D8B403D091
:10612000090E9A6504D0090E9A6F010E3A6E090E97
:106130009B6504D0000E9B6F010E3A6E630E9C654A
:1061400004D00A0E9C6F010E3A6E630E9D6504D05A
:10615000000E9D6F010E3A6E630E9E6504D0000E18
:106160009E6F010E3A6E010E9F6504D0000E9F6F68
:10617000010E3A6E010EA06504D0000EA06F010E54
:106180003A6E010EA16504D0000EA16F010E3A6EA9
:10619000010EA26504D0010EA26F010E3A6E010E2F
:1061A000A36504D0000EA36F010E3A6E020EA46523
:1061B00004D0000EA46F010E3A6E030EA56504D044
:1061C000000EA56F010E3A6E010EA66504D0000EFA
:1061D000A66F010E3A6E090EA76504D0000EA76FD8
:1061E000010E3A6E020EA86504D0000EA86F010ED3
:1061F0003A6E010EA96504D0000EA96F010E3A6E29
:10620000090EAA6504D0000EAA6F010E3A6E630E45
:10621000AC6504D0030EAC6F010E3A6E090EAD658D
:1062200004D0000EAD6F010E3A6E010EAF6504D0C2
:10623000000EAF6F010E3A6EB051D8B403D0090E04
:10624000B06504D0050EB06F010E3A6E030EB16555
:1062500004D0030EB16F010E3A6E010EAE6504D08C
:10626000000EAE6F010E3A6E010EB36504D0010E42
:10627000B36F010E3A6E090EAB6504D0000EAB6F22
:10628000010E3A6E3A50D8B41200000E05EC4CF0F4
:10629000010E05EC4CF01200000E396E3204D8A449
:1062A00009D0FF0E356EFF0E366EFF0E376E0F0EE5
:1062B000386E04D03568366837683868000E3A6E34
:1062C00056D03AC0D8F0030ED817D8A41CD0000E70
:1062D000396E3A50D86FD96BD890D837D937D89013
:1062E000D837D937000ED825226E020ED921236E59
:1062F000A20E246E020E256E000E276E100E266E64
:10630000500E40EC45F03950040DA20EF324D96E26
:10631000020EF420DA6EDECFD8F0DECFD9F0DECF79
:10632000DAF0DECFDBF035500001D815DC6F3650E7
:10633000D915DD6F3750DA15DE6F3850DB15DF6F9A
:106340002E50DC1912E12F50DD190FE13050DE190B
:106350000CE13150DF19D8A408D033C0D9FF34C0C4
:10636000DAFF3AC0DFFF010E1200392A3A2AB8518B
:106370003A5CD8A0A6D7000E3A6E56D03AC0D8F0F4
:10638000030ED817D8A41CD0000E396E3A50D86F1F
:10639000D96BD890D837D937D890D837D937000E9D
:1063A000D825226E050ED921236EA20E246E020E70
:1063B000256E000E276E100E266E500E40EC45F036
:1063C0003950040DA20EF324D96E020EF420DA6EB9
:1063D000DECFD8F0DECFD9F0DECFDAF0DECFDBF0E3
:1063E00035500001D815DC6F3650D915DD6F3750A8
:1063F000DA15DE6F3850DB15DF6F2E50DC1912E135
:106400002F50DD190FE13050DE190CE13150DF194A
:10641000D8A408D033C0D9FF34C0DAFF3AC0DFFFB8
:10642000020E1200392A3A2AB9513A5CD8A0A6D7EE
:10643000000E1200B5BF0AD0B55103E1B405D8A0D3
:1064400005D0000ED96F140ED86F07D0D9BF09D070
:10645000D95103E1D805D8A004D0040E216EB00EA6
:1064600003D0000E216E000E206E7B51D8A45BD0AD
:10647000030E0019D8A405D0C8C034F1C9C035F145
:1064800004D0CAC034F1CBC035F1366B376B37510D
:106490003611351104E1650E345DD8A009D03751AD
:1064A000361106E1C50E345D3B0E3559D8A004D037
:1064B000C40E346F3B0E58D09BC022F022502202F3
:1064C000F3CF10F0F4CF11F0000E136E0A0E126E1F
:1064D00021EC4EF010C01AF011C01BF022C010F0D9
:1064E000116AFF0E136E380E126E21EC4EF0105032
:1064F0001A2611501B22140E1A241C6E050E1B2086
:106500001D6E1E6A1DBE1E061E501F6E01013451F7
:106510001C24346F35511D20356F36511E20366FC7
:1065200037511F2046D0030E0019D8A409D0C0C08F
:1065300034F1C1C035F1C2C036F1C3C037F108D063
:10654000C4C034F1C5C035F1C6C036F1C7C037F19B
:10655000375136110EE1890E345D130E3559D8B01E
:1065600008D0880E346F130E356F000E366F000E94
:1065700020D0A7C010F0116AFE0E136E0C0E126E22
:1065800021EC4EF0380E10241A6E180E11201B6EDE
:106590001C6A1BBE1C061C501D6E1A500101345D86
:1065A000346F1B503559356F1C503659366F1D509E
:1065B0003759376F20503425166E21503521176E0C
:1065C000000E3621186E000E3721196E1200A60E2D
:1065D000016E010E026ED2EC4DF0E40E016E010E62
:1065E000026ED2EC4DF0A80E016E010E026ED2ECDE
:1065F0004DF0AA0E016E010E026ED2EC4DF0AC0E03
:10660000016E010E026ED2EC4DF0AE0E016E010E67
:10661000026ED2EC4DF0B00E016E010E026ED2ECA5
:106620004DF0B20E016E010E026ED2EC4DF0B40EC2
:10663000016E010E026ED2EC4DF0B80E016E010E2D
:10664000026ED2EC4DF0BA0E016E010E026ED2EC6B
:106650004DF0BC0E016E010E026ED2EC4DF0C20E7A
:10666000016E010E026ED2EC4DF0C40E016E010EF1
:10667000026ED2EC4DF0C60E016E010E026ED2EC2F
:106680004DF0C80E016E010E026ED2EC4DF0CA0E36
:10669000016E010E026ED2EC4DF0CC0E016E010EB9
:1066A000026ED2EC4DF0CE0E016E010E026ED2ECF7
:1066B0004DF0E00E016E010E026ED2EC4DF0E20ED6
:1066C000016E010E026ED2EC4DF00001AF51D8B454
:1066D00008D00101C7BF05D0C75109E1C605D8B030
:1066E00006D0D00E016E010E026ED2EC4DF0D20E2D
:1066F000016E010E026ED2EC4DF0D40E016E010E51
:10670000026ED2EC4DF0D60E016E010E026ED2EC8E
:106710004DF0D80E016E010E026ED2EC4DF0DA0E85
:10672000016E010E026ED2EC4DF0DC0E016E010E18
:10673000026ED2EC4DF0DE0E016E010E026ED2EC56
:106740004DF00101C1BF1200C151C011BF1103E1E1
:10675000BE05D8A01200FF0EBE27FF0EBF23FF0EFE
:10676000C023FF0EC123120000018B51D8B4B9D051
:106770008A51D8A40BD0C80EE06F020EE16F920EC2
:10678000E26F020EE36FAFEC2EF00AD0C80EE06F9E
:10679000020EE16F920EE26F020EE36FAFEC41F07A
:1067A000876F9EC288F096C281F197C282F198C22B
:1067B00083F199C284F19AC287F19BC288F1A0C289
:1067C0009BF101012605D8A41ED000018751D8B441
:1067D00044D088513C18D8A440D0010181513D18C3
:1067E0003CE182513E1839E183513F1836E1845132
:1067F0004018D8A432D0000187513B18D8A42DD01E
:10680000000E446E38D000018751D8B426D087518D
:106810003B18D8B40FD00101B3BF05D0B3510AE182
:10682000B205D8B007D08751411817E188514218F6
:10683000D8A413D0000188513C18D8A40ED001016F
:1068400081513D180AE182513E1807E183513F18FA
:1068500004E184514018D8B403D0000E456ED0D75F
:10686000B3BF05D0B35107E1B205D8B004D0020ED2
:106870009B19D8B4F2D7000E0101B36F0A0EB26FA4
:1068800087C03BF03B50D8B41AD0000188513C1867
:10689000D8A415D0010181513D1811E182513E1853
:1068A0000EE183513F180BE184514018D8A407D062
:1068B0008751411804E188514218D8B40ED088C0DD
:1068C0003CF081C13DF082C13EF083C13FF084C104
:1068D00040F0A1C243F0000E446E87C141F088C170
:1068E00042F04504D8A403D0000E3B6E12003B508A
:1068F000D8B41200FA0E44601200442A12003A6E14
:10690000030E0001986F090E9A6F030E996F000E27
:106910009F6F000EA06F000EA16F010EA26F000E00
:10692000A36F000EA56F000EA66F000EA76F000EDE
:10693000A86F000E9E6F030EAC6F000EAD6F000EC1
