:040000004EEF00F0CF
:100008005082FACF0AF0FBCF0BF0D9CF0CF0DACF41
:100018000DF0F3CF0EF0F4CF0FF00E01C2BBCAAB58
:1000280003D0F6EC4BF028D0F2AC26D0C5B9CDA958
:1000380009D001D821D00500FA6E0201ED51FD6EFC
:10004800EE510BD0C5BBCDAB0CD001D815D00500F7
:10005800FA6E0201EB51FD6EEC51FE6EFF6AFA502A
:100068001200C6B1CEA103D0A8EC49F005D0C6B3A2
:10007800CEA302D0A0EC33F00FC0F4FF0EC0F3FF04
:100088000DC0DAFF0CC0D9FF0BC0FBFF0AC0FAFF96
:08009800509211007BEF3BF0D8
:100F000000A89B149B069B0480A2849E9B728BF27C
:100F10009BEA9BE29BDA9BD29BCA9BC29B949BD091
:100F20008F0053EF0CF0E0C018F0E1C019F0BCECFA
:100F300026F0E0C012F0E1C013F0010E146E44EC94
:100F400046F0E0C0D9FFE1C0DAFF00EE11F0060E76
:100F5000DBCFEBFFE806FCE28FEC4AF01200010E5B
:100F600001014E6F00017B51D8B40ED0E0C0D9FF13
:100F7000E1C0DAFF00EE16F0060EDBCFEBFFE8066D
:100F8000FCE240EC1AF0D5D7E0C012F0E1C013F05B
:100F9000000E146E44EC46F0D4D77B51D8B40AD07E
:100FA000010E7FEC48F0000E7FEC48F0000E0001CF
:100FB0007B6F1DD00101F151D8B419D0000120EE92
:100FC00002F0E051D926E151DA22020EDE6E000E67
:100FD000DD6EE0C0D9FFE1C0DAFF00EE11F0060ED1
:100FE000DBCFEBFFE806FCE28FEC4AF0CDD7000147
:100FF0007B51E26FE36B20EE02F0E051D926E15124
:10100000DA22E2C0DEFFE3C0DDFFE0C0D9FFE1C0CD
:10101000DAFF00EE11F0060EDBCFEBFFE806FCE294
:101020008FEC4AF0E0C012F0E1C013F0010E146E34
:1010300044EC46F0E0C0D9FFE1C0DAFF00EE11F069
:10104000060EDBCFEBFFE806FCE28FEC4AF0010175
:101050004E05D8B48AEC45F0000E01014E6F120027
:1010600020EE01F0E051D926E151DA22000EDF6EC8
:101070000101C6510001E26FE36B20EE02F0E05186
:10108000D926E151DA22E2C0DEFFE3C0DDFF000E27
:10109000E86F14D0E8C02EF0000EE3EC3EF0E80656
:1010A000D8A40AD0000120EE02F0E051D926E15187
:1010B000DA22DE06000EDD5A0001E82B0101C651DE
:1010C0000001E85DD8A0E6D7E0C0D9FFE1C0DAFFB3
:1010D00000EE11F0060EDBCFEBFFE806FCE28FEC32
:1010E0004AF027D720EE01F0E051D926E151DA226B
:1010F000000EDF6E20EE02F0E051D926E151DA2237
:10110000000EDE6E000EDD6E000EE96F14D0E9C039
:101110002EF0000EE3EC3EF0E806D8A40AD0000161
:1011200020EE02F0E051D926E151DA22DE2A000E4B
:10113000DD220001E92B0101C6510001E95DD8B0B3
:10114000C3D7E5D7000EF76F000EED6F2ED0EDC0C0
:101150002EF0000EE3EC3EF00009D8A424D00001EC
:10116000ED51E26FE36B20EE02F0E051D926E15140
:10117000DA22E2C0DEFFE3C0DDFF20EE01F0E05145
:10118000D926E151DA22F7C0DFFFF72BE0C0D9FF03
:10119000E1C0DAFF00EE11F0060EDBCFEBFFE80650
:1011A000FCE28FEC4AF00001ED2B0101C651000179
:1011B000ED5DD8B0BED6CBD7000EF76F000EEE6F48
:1011C0002ED0EEC02EF0000EE3EC3EF0E806D8A4E0
:1011D00024D00001EE51E26FE36B20EE02F0E0510B
:1011E000D926E151DA22E2C0DEFFE3C0DDFF20EEC6
:1011F00001F0E051D926E151DA22F7C0DFFFF72BE9
:10120000E0C0D9FFE1C0DAFF00EE11F0060EDBCF3F
:10121000EBFFE806FCE28FEC4AF00001EE2B010147
:10122000C6510001EE5DD8B084D6CBD7010E0101C6
:101230004E6F00017B51D8B4A7D66E51D8A423D0ED
:1012400020EE02F0E051D926E151DA22DECF46F15C
:10125000DDCF47F1E0C012F0E1C013F0010E146ED3
:1012600044EC46F0E0C0D9FFE1C0DAFF00EE11F037
:10127000060EDBCFEBFFE806FCE28FEC4AF0010E36
:1012800000016E6F120020EE02F0E051D926E1510C
:10129000DA22DECFE2F0DDCFE3F0010146510001BA
:1012A000E46F010147510001E56FE66BE76BE5C0B4
:1012B000E7F0E4C0E6F0E56BE46BE251E425F86F9B
:1012C000E351E521F96F000EE621FA6F000EE721E8
:1012D000FB6FF8C02EF0F9C02FF0FAC030F0FBC061
:1012E00031F0000E326EEC0E336E346AE5EC2EF007
:1012F0000009D8A44FD0000E0001F16FF1C02EF00C
:10130000000EE3EC3EF0E806D8A42DD0000120EE5C
:1013100001F0E051D926E151DA22DF50D8A423D0E0
:10132000F8C0D8F0F9C0D9F0FAC0DAF0FBC0DBF0B1
:10133000F1C0DCF0000E04EC43F0E0C012F0E1C0BC
:1013400013F0010E146E44EC46F0E0C0D9FFE1C08A
:10135000DAFF00EE11F0060EDBCFEBFFE806FCE251
:101360008FEC4AF023D0F1C02EF0000EE3EC3EF0FB
:10137000E806D8A409D0000120EE01F0E051D926FA
:10138000E151DA22DF060FD00001F1510101C61947
:10139000D8A409D0E0C012F0E1C013F0000E146E22
:1013A00044EC46F0D2D70001F12BA8D7000E000183
:1013B0006E6F1200010E01014E6F00017B51D8B417
:1013C000E3D5000EF26FF2C02EF0000EE3EC3EF01B
:1013D0000009D8A410D0000120EE01F0E051D92678
:1013E000E151DA22DF50D8A406D0F2C0D8F0000EC6
:1013F000CFEC40F0A2D7F2C02EF0000EE3EC3EF0AE
:101400000009D8A409D0000120EE01F0E051D9264E
:10141000E151DA22DF0606D00001F2510101C619BE
:10142000D8B4B8D70001F22BCED7000EF36FF3C0BB
:101430002EF0000EE3EC3EF00009D8A42AD0000103
:1014400020EE01F0E051D926E151DA22DF50D8A494
:1014500020D0F80E2E6EF3C02FF0000E76EC43F085
:10146000000120EE02F0E051D926E151DA22F8C065
:10147000DEFFF9C0DDFFE0C0D9FFE1C0DAFF00EE1A
:1014800011F0060EDBCFEBFFE806FCE28FEC4AF032
:10149000E0D1F3C02EF0000EE3EC3EF00009D8A43A
:1014A00009D0000120EE01F0E051D926E151DA2205
:1014B000DF0606D00001F3510101C619D8B464D586
:1014C0000001F32BB4D720EE01F0E051D926E15111
:1014D000DA22000EDF6E0101C7510001E26FE36BFB
:1014E00020EE02F0E051D926E151DA22E2C0DEFF1F
:1014F000E3C0DDFF000EEA6F14D0EAC02EF0010E4B
:10150000E3EC3EF0E806D8A40AD0000120EE02F099
:10151000E051D926E151DA22DE06000EDD5A000143
:10152000EA2B0101C7510001EA5DD8B0CDD5E5D75E
:1015300020EE01F0E051D926E151DA22000EDF6EF3
:1015400020EE02F0E051D926E151DA22000EDE6EE3
:10155000000EDD6E000EEB6F14D0EBC02EF0010E0E
:10156000E3EC3EF0E806D8A40AD0000120EE02F039
:10157000E051D926E151DA22DE2A000EDD220001F7
:10158000EB2B0101C7510001EB5DD8B09DD5E5D72C
:10159000000EF76F000EEF6F2ED0EFC02EF0010E91
:1015A000E3EC3EF00009D8A424D00001EF51E26F33
:1015B000E36B20EE02F0E051D926E151DA22E2C0DD
:1015C000DEFFE3C0DDFF20EE01F0E051D926E1515E
:1015D000DA22F7C0DFFFF72BE0C0D9FFE1C0DAFF66
:1015E00000EE11F0060EDBCFEBFFE806FCE28FEC1D
:1015F0004AF00001EF2B0101C7510001EF5DD8B0A7
:1016000098D4CBD7000EF76F000EF06F2ED0F0C03D
:101610002EF0010EE3EC3EF0E806D8A424D0000141
:10162000F051E26FE36B20EE02F0E051D926E15178
:10163000DA22E2C0DEFFE3C0DDFF20EE01F0E05180
:10164000D926E151DA22F7C0DFFFF72BE0C0D9FF3E
:10165000E1C0DAFF00EE11F0060EDBCFEBFFE8068B
:10166000FCE28FEC4AF00001F02B0101C7510001B0
:10167000F05DD8B05ED4CBD7010E01014E6F0001F2
:101680007B51D8B481D46E51D8B4DAD520EE02F0B3
:10169000E051D926E151DA22DECFE2F0DDCFE3F0EE
:1016A000010146510001E46F010147510001E56F5E
:1016B000E66BE76BE5C0E7F0E4C0E6F0E56BE46BF2
:1016C000E251E425F86FE351E521F96F000EE621C0
:1016D000FA6F000EE721FB6FF8C02EF0F9C02FF073
:1016E000FAC030F0FBC031F0000E326EEC0E336EFB
:1016F000346AE5EC2EF00009D8A44CD6000E0001A7
:10170000F46FF4C02EF0010EE3EC3EF0E806D8A42E
:1017100018D0000120EE01F0E051D926E151DA2283
:10172000DF50D8A40ED0F8C0D8F0F9C0D9F0FAC074
:10173000DAF0FBC0DBF0F4C0DCF0010E04EC43F0A7
:10174000FCD5F4C02EF0010EE3EC3EF0E806D8A480
:1017500009D0000120EE01F0E051D926E151DA2252
:10176000DF0606D00001F4510101C719D8B412D622
:101770000001F42BC6D7010E01014E6F00017B5111
:10178000D8B402D4000EF56FF5C02EF0010EE3ECD4
:101790003EF00009D8A410D0000120EE01F0E05185
:1017A000D926E151DA22DF50D8A406D0F5C0D8F00E
:1017B000010ECFEC40F0C1D5F5C02EF0010EE3ECE8
:1017C0003EF00009D8A409D0000120EE01F0E0515C
:1017D000D926E151DA22DF0606D00001F5510101D8
:1017E000C719D8B4D7D50001F52BCED7000EF66FA8
:1017F000F6C02EF0010EE3EC3EF00009D8A435D07F
:10180000000120EE01F0E051D926E151DA22DF504B
:10181000D8A42BD0F80E2E6EF6C02FF0010E76EC69
:1018200043F0000120EE02F0E051D926E151DA2226
:10183000F8C0DEFFF9C0DDFFE0C0D9FFE1C0DAFF8C
:1018400000EE11F0060EDBCFEBFFE806FCE28FECBA
:101850004AF0000120EE02F0E051D926E151DA22EF
:10186000FAC0DEFFFBC0DDFF2FD4F6C02EF0010E64
:10187000E3EC3EF00009D8A409D0000120EE01F00D
:10188000E051D926E151DA22DF0607D00001F651F6
:101890000101C719D8B4C4EF07F00001F62BA8D78F
:1018A0008AEC45F01200E0C0D9FFE1C0DAFFDF505A
:1018B000E26FE36BE351000AD8A4C4EF07F0E251F2
:1018C000000AD8B493EF07F0010AD8B4AFEF07F0DD
:1018D000030AD8B4CDEF07F0010AD8B499EF07F0A6
:1018E000070AD8B430EF08F0010AD8B472EF08F054
:1018F000030AD8B427D4010AD8B45ED40F0AD8B4E6
:1019000095D4010AD8B456D5030AD8B48ED5010AA5
:10191000D8B4D9D5070AD8B40BD6010AD8B438D66A
:10192000030AD8B46FD6010AD8B4A6D61F0AD8B411
:1019300022D7010AD8B45AD7030AD8B4B1D7C4EF12
:1019400007F0A2D020EE04F0E951D926EA51DA22BC
:10195000DE04DE10D8A406D0E9C0D9FFEAC0DAFF61
:10196000010E4CD020EE04F0E951D926EA51DA22DA
:10197000050EDE18DE10D8A406D0E9C0D9FFEAC0F3
:10198000DAFF030E3BD020EE04F0E951D926EA51EC
:10199000DA22080EDE18DE10D8A406D0E9C0D9FF7E
:1019A000EAC0DAFF040E2AD020EE04F0E951D9266D
:1019B000EA51DA22140EDE18DE10D8A487D0E9C06E
:1019C000D9FFEAC0DAFF060E19D020EE04F0E95183
:1019D000D926EA51DA22020EDE18DE10D8A406D08B
:1019E000E9C0D9FFEAC0DAFF020E08D020EE04F009
:1019F000E951D926EA51DA22030E3BD0DE6E000E01
:101A0000DD6E64D020EE04F0E951D926EA51DA22E5
:101A1000040EDE18DE10D8A4E9D72FD020EE04F093
:101A2000E951D926EA51DA22080EDE18DE10D8A4D0
:101A3000DDD7E9C0D9FFEAC0DAFF050EDFD720EE17
:101A400004F0E951D926EA51DA22090EDE18DE1037
:101A5000D8A408D0E9C0D9FFEAC0DAFF040EDE6ED0
:101A6000000EDD6E20EE04F0E951D926EA51DA22AB
:101A7000040EDE18DE10D8A429D0E9C0D9FFEAC0D0
:101A8000DAFF000EBBD7FFD7E9C0D9FFEAC0DAFF03
:101A9000DF50EB6FEC6BEC51000AD8A4F4D7EB519C
:101AA000000AD8B44FD7010AD8B48FD7030AD8B4E4
:101AB000D9D7010AD8B4A6D7070AD8B4AFD7010A34
:101AC000D8B4BDD7030AD8B4CDD7DDD7BD0E126EBA
:101AD000020E136E000E156E000E146EE8EC45F04B
:101AE000B9D3060E01019019D8A431D0000E00011F
:101AF0009E6FC80E9D6F010E0101956F000E176F4E
:101B000017C1DDF01551F1EC14F00009D8B4120042
:101B1000BD0E126E020E136E000E156E080E146EC0
:101B2000E8EC45F00A0E106E4950C7EC49F0F60D8E
:101B3000F35049241C6E000E1E6E140E1D6E0A0E0C
:101B4000106E4950C7EC49F04FEC4DF01200050EF5
:101B50009019D8A431D0000E00019E6FC80E9D6F61
:101B6000010E0101956F010E176F17C1DDF01551C0
:101B7000F1EC14F00009D8B41200BD0E126E020E82
:101B8000136E000E156E080E146EE8EC45F00A0E8A
:101B9000106E4950C7EC49F0F60DF35049241C6E05
:101BA000000E1E6E140E1D6E0A0E106E4950C7EC0C
:101BB00049F04FEC4DF012004D50D8A425D0000E46
:101BC00000019E6F640E9D6F01011751D8A403D0D0
:101BD0001605176F01D017071751020D010EF324D8
:101BE000D96E010EF420DA6EDF501C6E1751020D13
:101BF000000EF324D96E010EF420DA6EDF50A9EC4A
:101C00004CF0010E4F6E1200170E4D18D8A423D0C1
:101C1000000E00019E6F640E9D6F0101172B16517F
:101C2000175DD8A002D0000E176F1751020D010EDC
:101C3000F324D96E010EF420DA6EDF501C6E1751BA
:101C4000020D000EF324D96E010EF420DA6EDF507F
:101C5000A9EC4CF0D6D70C0E15619ED0270E4D186E
:101C6000D8A450D00A0E4E644DD0000E00019E6FD5
:101C7000640E9D6F17C1DDF001011551F1EC14F0F8
:101C80000009D8B4BED7BD0E126E020E136E000E40
:101C9000156E010E146EE8EC45F0C20E471804E113
:101CA000010E4818D8B407D0C10E47181AE1010E2A
:101CB0004818D8A416D04950020D010EF324D96E4D
:101CC000010EF420DA6EDF501C6E4950020D000E3A
:101CD000F324D96E010EF420DA6EDF50A9EC4CF03B
:101CE00090D70A0E106E4950C7EC49F0F60DF3502C
:101CF00049241C6E0A0E106E4950C7EC49F0A9EC3D
:101D00004CF07FD700019EBF08D09E5103E19D0596
:101D1000D8A003D04D50D8A420D0020E01011561E7
:101D20001CD0000E00019E6F000E9D6FF10E126E12
:101D3000010E136E000E156E070E146EE8EC45F0E2
:101D4000180E1C6E180EA9EC4CF0000E0101186F55
:101D5000010E4F6E07EC4EF0120000019EBF08D03E
:101D60009E5103E19D05D8A003D04D50D8A405D0C5
:101D70000101145191EC21F044D79EBF05D09E5132
:101D800002E19D05D8B01200010E01011565120097
:101D9000145191EC21F035D7070E4D18D8A434D04A
:101DA0000A0E4E6431D00D0E1519D8B42DD0000E88
:101DB00000019E6F640E9D6F17C1DDF0010115518A
:101DC000F1EC14F00009D8B41CD7BD0E126E020E4F
:101DD000136E000E156E080E146EE8EC45F00A0E38
:101DE000106E4950C7EC49F0F60DF35049241C6EB3
:101DF000000E1E6E140E1D6E0A0E106E4950C7ECBA
:101E000049F04FEC4DF0FDD60D0E1519D8A428D091
:101E100000019B519C11D8A423D0000E0101C66F74
:101E2000000EC76F000ECC6F020E7FEC48F0F10E73
:101E3000126E010E136E000E156E070E146EE8EC96
:101E400045F0180E1C6E180EA9EC4CF0010E4F6EEA
:101E500007EC4EF0000E00019E6F000E9D6F120009
:101E600000019EBF08D09E5103E19D05D8A003D07C
:101E70004D50D8A41200F10E126E010E136E000E1A
:101E8000156E070E146EE8EC45F0180E1C6E180E59
:101E9000A9EC4CF007EC4EF0010E4F6EDBD74D5025
:101EA000D8A441D0000E9E6F640E9D6F49504B5CCC
:101EB000D8A003D04AC049F001D04906C20E471845
:101EC00004E1010E4818D8B407D0C10E47181AE132
:101ED000010E4818D8A416D04950020D010EF32463
:101EE000D96E010EF420DA6EDF501C6E4950020DDF
:101EF000000EF324D96E010EF420DA6EDF50A9EC47
:101F00004CF07FD60A0E106E4950C7EC49F0F60D22
:101F1000F35049241C6E0A0E106E4950C7EC49F06C
:101F2000A9EC4CF06ED6170E4D18D8A43FD0000E79
:101F30009E6F640E9D6F492A49504A5CD8A04BC0E1
:101F400049F0C20E471804E1010E4818D8B407D072
:101F5000C10E47181AE1010E4818D8A416D04950EE
:101F6000020D010EF324D96E010EF420DA6EDF505B
:101F70001C6E4950020D000EF324D96E010EF420A0
:101F8000DA6EDF50A9EC4CF03CD60A0E106E4950C8
:101F9000C7EC49F0F60DF35049241C6E0A0E106E82
:101FA0004950C7EC49F0A9EC4CF02BD6270E4D1840
:101FB000D8A421D0090E4E641ED0000E9E6F640E70
:101FC0009D6F47C0D9FF48C0DAFF49C0DFFFBD0E93
:101FD000126E020E136E000E156E020E146EE8ECF9
:101FE00045F0010E1C6E190EA9EC4CF0000E9C6F12
:101FF000280E9B6F06D69EBF08D09E5103E19D051B
:10200000D8A003D04D50D8A41200000E9E6F640ECD
:102010009D6F0101155191EC21F0BD0E126E020E63
:10202000136E000E156E030E146EE8EC45F0E9D544
:102030009CBF05D09C5102E19B05D8B01200000E58
:102040009E6F640E9D6F01011505D8A404D0080E83
:102050001719D8B407D0C20E471808E1010E481866
:10206000D8A404D0C25152EC31F021D01505D8B417
:1020700004D00A0E1519D8A404D0010E7FEC48F044
:1020800016D01705D8A40DD047C0D9FF48C0DAFF35
:10209000DF50D8B406D0060E1519D8A402D0090E08
:1020A000A86F010E7FEC48F0000E7FEC48F0BD0EEB
:1020B000126E020E136E000E156E040E146EE8EC16
:1020C00045F00101172B020E156105D0182B155193
:1020D00091EC21F012001651175DD8A005D0182BF5
:1020E000145191EC21F01200155191EC21F01200E5
:1020F0009EBF05D09E5102E19D05D8B01200FC5153
:10210000FD11D8A410D00101182B155191EC21F02C
:10211000BD0E126E020E136E000E156E040E146EBE
:10212000E8EC45F01200000E9E6F3C0E9D6FF6C26B
:1021300010F0F7C211F0F8C212F0F9C213F0FCC0AF
:1021400014F0FDC015F0166A176A53EC41F01050F8
:10215000496EFCC014F0FDC015F0166A176AF6C28D
:1021600010F0F7C211F0F8C212F0F9C213F053ECFC
:1021700041F010C01DF011C01EF012C01FF013C0BE
:1021800020F0FCC021F0FDC022F0236A246AC8ECD4
:1021900046F01D500201F65DF66F1E50F759F76FBD
:1021A0001F50F859F86F2050F959F96FFCC010F022
:1021B000FDC011F0000E136E640E126E48EC47F075
:1021C00010C0FCF011C0FDF00A0E106E4950C7ECB3
:1021D00049F0F60DF35049241C6E000E1E6E0A0ED7
:1021E0001D6E0A0E106E4950C7EC49F04FEC4DF0D1
:1021F00012000101FE05D8A404D0000E496E000EA5
:10220000FE6F6DEC1CF0120007EC3DF0120049EC83
:102210004AF001017B51D8A41200F10E126E010E9A
:10222000136E000E156E070E146EE8EC45F0BD0E31
:10223000126E020E136E000E156E040E146EE8EC94
:1022400045F0180E1C6E180EA9EC4CF0020E7FEC37
:1022500048F0FED5E9C0D9FFEAC0DAFFDF5000013F
:10226000EB6FEC6BEC51000AD8A41200EB51000AA2
:10227000D8B437D4010AD8B412D6030AD8B4D8D601
:10228000010AD8B435D7070AD8B4B3D7010AD8B4ED
:10229000BBD7030AD8A41200BAD700EC2EF0000175
:1022A000E16FB8D020EE04F0DD51D926DE51DA22FC
:1022B0000A0EDE18DE10D8A40DD00101B551D8B435
:1022C00009D07F51D8A406D0DDC0D9FFDEC0DAFF27
:1022D000020E8AD0000120EE04F0DD51D926DE5135
:1022E000DA220A0EDE18DE10D8A40DD00101B55195
:1022F000D8B403D07F05D8A406D0DDC0D9FFDEC096
:10230000DAFF040E71D0000120EE04F0DD51D92671
:10231000DE51DA220B0EDE18DE10D8A49AD0DDC012
:10232000D9FFDEC0DAFF010E5FD020EE04F0DD51F0
:10233000D926DE51DA220A0EDE18DE10D8A407D024
:102340000101B551D8B403D07F51D8B4BDD7000135
:1023500020EE04F0DD51D926DE51DA220A0EDE1815
:10236000DE10D8A407D00101B551D8B4C6D77F0577
:10237000D8B4C3D7000120EE04F0DD51D926DE51D8
:10238000DA22100EDE18DE10D8A463D03CD020EE86
:1023900004F0DD51D926DE51DA220B0EDE18DE10F4
:1023A000D8A4E9D7DDC0D9FFDEC0DAFF030E1CD008
:1023B00020EE04F0DD51D926DE51DA220A0EDE18B5
:1023C000DE10D8A4D8D799D720EE04F0DD51D92655
:1023D000DE51DA220B0EDE18DE10D8A4CCD7DDC019
:1023E000D9FFDEC0DAFF050EDE6E000EDD6E31D0E5
:1023F00020EE04F0DD51D926DE51DA220A0EDE1875
:10240000DE10D8A4B8D7DDC0D9FFDEC0DAFF000ED9
:10241000EBD7FFD7DDC0D9FFDEC0DAFFDF50DF6FBB
:10242000E06BE051000AD8A4F4D7DF51000AD8B419
:1024300039D7010AD8B479D7030AD8B4A8D7010A82
:10244000D8B4B6D7070AD8B4BFD7010AD8B4D0D702
:10245000E0D7B20E126E020E136E000E156E000E55
:10246000146EE8EC45F09DD201015805D8A43AD08D
:10247000010E0001706FB20E126E020E136E000E8E
:10248000156E0A0E146EE8EC45F0010E0101556F51
:1024900014EC42F0B551D8B417D07F51D8A414D061
:1024A000010E0001C66F2C0EC56F000EC46F780EB2
:1024B000C36F000ED46F140ED36F010E01019C6F19
:1024C000000E0001706F1200000E9C6F000E0001E4
:1024D000C46F500EC36F000ED46F140ED36F000E76
:1024E000706F1200B20E126E020E136E000E156E99
:1024F0000B0E146EE8EC45F0030E0101556F010E52
:102500009C6F120001015805D8B40FD0000170056E
:10251000D8B40BD0270E4D18D8B403D0E105D8A4F9
:1025200028D001017F05D8A424D0010E0001706FCE
:10253000000E0101556F0001B4BF05D0B45102E196
:10254000B305D8B01200B20E126E020E136E000E5A
:10255000156E0A0E146EE8EC45F0010E0101556F80
:1025600014EC42F0B551D8B4AFD77F51D8B498D756
:10257000ABD701015551D8A403D0F6EC44F01200BA
:10258000000E0001B46F280EB36F1200010159054F
:10259000D8B40BD00001C6BF08D0C65103E1C505B1
:1025A000D8A003D07005D8A42BD0010E0001706F05
:1025B000000E0101556F0001B4BF05D0B45102E116
:1025C000B305D8B01200B20E126E020E136E000EDA
:1025D000156E0B0E146EE8EC45F0030E0101556FFD
:1025E000000E0001C66F640EC56F000EC46F640E4E
:1025F000C36F000ED46F140ED36F000E706F1200F5
:1026000001015551D8B4B9D7000E0001B46F280E9E
:10261000B36FD4BF05D0D45102E1D305D8B01200B6
:10262000C4BF1200C45103E1C305D8A0120027C1E2
:1026300010F028C111F0126A136A85C114F086C126
:1026400015F087C116F088C117F02AEC45F010C0CC
:1026500027F111C028F1120001015805D8B404D0A7
:1026600000017005D8A422D0010E0001706F000E89
:102670000101556F0001B4BF05D0B45102E1B305AB
:10268000D8B01200B20E126E020E136E000E156E4E
:102690000A0E146EE8EC45F0010E0101556F000EB4
:1026A0009C6F000E0001C46F3C0EA2D70101555172
:1026B000D8B463D7000E0001B46F280EB36FD4BF37
:1026C00005D0D45102E1D305D8B01200C4BF120026
:1026D000C45103E1C305D8A0120029C110F02AC1DA
:1026E00011F0126A136A85C114F086C115F087C112
:1026F00016F088C117F02AEC45F010C029F111C07E
:102700002AF1120001015905D8B414D00001700556
:10271000D8B410D001019C05D8A431D0270E4D1893
:10272000D8B404D00001E105D8A429D001017F0567
:10273000D8A425D0000E01016C6F000E9C6F010E15
:102740000001706F000E0101556F0001B4BF05D08C
:10275000B45102E1B305D8B01200B20E126E020EEF
:10276000136E000E156E0B0E146EE8EC45F0030EA2
:102770000101556F000E0001C46F500E39D70101E1
:102780005551D8B4FAD6270E4D18D8B404D000014C
:10279000E105D8A411D001017F05D8A40DD09C512A
:1027A000D8A40AD0010E9C6F010E4F6E000E0001DE
:1027B000C46F500EC36F120001019C05D8A40DD048
:1027C000000E0001B46F280EB36FC4BF1200C451D5
:1027D00003E1C305D8A012002AD7010E6C6F000ECA
:1027E0000001B46F280EB36FD4BF05D0D45102E1FD
:1027F000D305D8B01200C4BF1200C45103E1C30511
:10280000D8A0120023C110F024C111F0126A136A7B
:1028100083C114F084C115F0166A176A2AEC45F0DA
:1028200010C023F111C024F1120001015805D8B4E1
:102830000FD09C05D8A470D0270E4D18D8B404D062
:102840000001E105D8A468D001017F05D8A464D0B7
:10285000010E716F000E6C6F000E9C6F000E556FB5
:10286000B20E126E020E136E000E156E0A0E146E6C
:10287000E8EC45F0E60E126E010E136E000E156EBA
:10288000130E146EE8EC45F019C1DEF11AC1DFF148
:102890001BC1E0F11CC1E1F11DC1DAF11EC1DBF188
:1028A0001FC1DCF120C1DDF101017F05D8A405D0F5
:1028B00021C1A7F122C1A6F104D0040EA76F040E16
:1028C000A66F25C1D6F126C1D7F123C1D8F124C105
:1028D000D9F127C1D2F128C1D3F1D46BD56B29C16D
:1028E000CEF12AC1CFF1D06BD16B000E7FEC48F056
:1028F000030E7FEC48F0020E7FEC48F0000E010161
:102900007B6F000E736F000E746F000E756F000EFC
:10291000766F000E9D6F120001015551D8B42DD66F
:10292000270E4D18D8B404D00001E105D8A404D076
:1029300001017F05D8B436D701019C05D8A409D080
:102940000001C4BF1200C45103E1C305D8A01200A6
:10295000C4D6010E6C6F000E0001B46F280EB36F69
:10296000D4BF05D0D45102E1D305D8B01200C4BF02
:102970001200C45103E1C305D8A0120025C110F014
:1029800026C111F0126A136A83C114F084C115F0D4
:10299000166A176A2AEC45F010C025F111C026F11D
:1029A0001200DDC0D9FFDEC0DAFFDF500001DF6FAB
:1029B000E06BE051000AD8A41200DF51000AD8B43D
:1029C00053D5010AD8B49ED5030AD8B4DFD5010A7D
:1029D000D8B442D6070AD8B495D6010AD8A41200B2
:1029E00024D70001E06F000E0001E36F9BD217C1F6
:1029F00018F1000E4B6E3BD0040E91EC21F0BBD2CF
:102A0000050E91EC21F0B7D2060E91EC21F0B3D275
:102A1000630E4A6EAAC149F0AA0E476E010E486EB7
:102A2000010EE36FA8D2070E91EC21F0A4D2080E9C
:102A300091EC21F0A0D2090E91EC21F09CD2020E73
:102A40004A6EB2C149F0B20E476E010EE8D7030ECE
:102A50004A6EB3C149F0B30E476E010EE0D7010EC6
:102A60004A6EB4C149F0B40E476E010ED8D7DD519D
:102A7000DE6FDF6BDF51000AD8A47DD2DE51000A81
:102A8000D8B4BAD7010AD8B4BBD7030AD8B4BCD7D4
:102A9000010AD8B4BDD7070AD8B4C5D7010AD8B43B
:102AA000C6D7030AD8B4C7D7010AD8B4C8D70F0A03
:102AB000D8B4CDD7010AD8B4D2D75DD217C118F196
:102AC000010E4A6E000E4B6E5ED00A0E91EC21F0A4
:102AD00052D20B0E91EC21F04ED2630E4A6EBAC167
:102AE00049F0BA0E476E010E9AD7090E4A6E010ED2
:102AF0004B6EBBC149F0BB0E476E010E90D7BDC1F6
:102B000049F0BD0E476E010E8AD7090E4A6E010EBE
:102B10004B6EBEC149F0BE0E476E010E80D7000E4F
:102B2000496E000E9E6F000E9D6F270EFD6F100EFA
:102B3000FC6F000EB66F000EB56F91C1F6F292C138
:102B4000F7F293C1F8F294C1F9F2BD0E126E020EC3
:102B5000136E000E156E050E146EE8EC45F00BD2E8
:102B6000000E496E010EE36F000E476E000E486EB8
:102B700002D2030E4A6E000E4B6EBFC149F0BF0E6B
:102B8000476E010E4CD7DD51DE6FDF6BDF51000A5F
:102B9000D8A4F1D1DE51000AD8B497D7010AD8B42D
:102BA00098D7030AD8B499D7010AD8B49ED7070A90
:102BB000D8B4E1D1010AD8B4A2D7030AD8B4A5D7B2
:102BC000010AD8B4ACD70F0AD8B4CAD7010AD8B40E
:102BD000D0D7D1D1BD0E126E020E136E000E156E3F
:102BE000140E146EE8EC45F0E60E126E010E136E34
:102BF000000E156E140E146EE8EC45F0010E010186
:102C00007B6F000E7F6F010E7FEC48F0B4D1BD0EDC
:102C1000126E020E136E000E156E140E146EE8EC9A
:102C200045F0E60E126E010E136E000E156E140EB8
:102C3000146EE8EC45F0010E01017B6F010E7F6F11
:102C4000010E7FEC48F097D1C2C149F0030E91EC20
:102C500021F0C20E476E010E486E010E0001E36FB7
:102C6000020E4A6E000E4B6E86D1C1C149F0020EB3
:102C700091EC21F0C10E476E010E486E010E00016D
:102C8000E36F010EEED7DD51DE6FDF6BDF51000A1F
:102C9000D8A471D1DE51000AD8B49CD7010AD8B4A7
:102CA000B6D7030AD8B4D0D7010AD8B4DED763D1D7
:102CB000A60E476E010E03D0A70E476E010E486E9A
:102CC0000ED0DD51DE6FDF6BDF51000AD8A407D0D4
:102CD000DE51000AD8B4ECD7010AD8B4EDD72D0ED6
:102CE0004A6E000E4B6E010EE36F47C0D9FF48C01D
:102CF000DAFFDF50496E3FD1090E4A6E000E4B6E6F
:102D000015D0020E0101A96102D0000E01D0090EFA
:102D10004B6EA80E476E010E07D0A90E476E010E2E
:102D200003D0B50E476E010E486E11D0DD51DE6F37
:102D3000DF6BDF51000AD8A40AD0DE51000AD8B4F4
:102D4000E0D7010AD8B4E9D7030AD8B4EAD7010E0C
:102D50000001CAD7AB0E476E010E03D0AC0E476E12
:102D6000010E486E0ED0DD51DE6FDF6BDF51000AC1
:102D7000D8A407D0DE51000AD8B4ECD7010AD8B4E1
:102D8000EDD7630EADD7AD0E476E010E23D0AE0E5C
:102D9000476E010E1FD0DD51DE6FDF6BDF51000A81
:102DA000D8A407D0DE51000AD8B4EDD7010AD8B4B0
:102DB000EED7010E95D7AF0E476E010E0BD0B00EB9
:102DC000476E010E07D0B10E476E010E03D0BC0E48
:102DD000476E010E486EEDD7DD51DE6FDF6BDF51C0
:102DE000000AD8A4E6D7DE51000AD8B4E4D7010A15
:102DF000D8B4E5D7030AD8B4E6D7010AD8B4E7D7E0
:102E0000D8D7B60E476E010E486E020E4A6E000EFF
:102E10004B6E9DD7B70E476E010E486E010EF6D76A
:102E2000DD51DE6FDF6BDF51000AD8A490D7DE5191
:102E3000000AD8B4E6D7010AD8B4ECD788D7B80EC0
:102E4000476E010E486E090EE1D7B90E476E010EAE
:102E5000F9D7DD51DE6FDF6BDF51000AD8A477D7D9
:102E6000DE51000AD8B4EBD7010AD8B4EED76FD739
:102E7000FC0E476E010E486E000EE16F0DD0E1C0F2
:102E8000FCF1E1C02EF001011751E3EC3EF0000926
:102E9000D8A408D00001E12B21EEC6F0E151DE5CA0
:102EA000D8B0EDD721EEC6F018D0000EE26F0DD0ED
:102EB000E2C0FCF1E2C02EF001011751E3EC3EF05C
:102EC0000009D8A408D00001E22B21EEC7F0E2519E
:102ED000DE5CD8B0EDD721EEC7F0DF504A6E0ED0E1
:102EE000DD51DE6FDF6BDF51000AD8A407D0DE5161
:102EF000000AD8B4BDD7010AD8B4D7D747C0D9FF84
:102F000048C0DAFFDF50466E000E4B6E010E000126
:102F1000E36F47C0D9FF48C0DAFFDF50496EDDECF0
:102F20004CF029D0E051DE6FDF6BDF51000AD8A4EE
:102F300022D0DE51000AD8B45AD5010AD8B4BED581
:102F4000050AD8B4A0D6010AD8B4BBD6030AD8B4AF
:102F5000D3D6010AD8B407D70F0AD8B41CD7010AB0
:102F6000D8B43AD7030AD8B45BD7010AD8B471D71A
:102F7000070AD8B4B5D70001E351120053D07B51F2
:102F8000D8A466D020EE04F0ED51D926EE51DA2215
:102F9000060EDE18DE10D8A406D0EDC0D9FFEEC0B4
:102FA000DAFF010E1DD020EE04F0ED51D926EE51CE
:102FB000DA22110EDE18DE10D8A44AD0EDC0D9FFF7
:102FC000EEC0DAFF020E0CD020EE04F0ED51D9264F
:102FD000EE51DA22070EDE18DE10D8A439D00FD059
:102FE000DE6E000EDD6E34D020EE04F0ED51D926F9
:102FF000EE51DA22070EDE18DE10D8A406D0EDC09E
:10300000D9FFEEC0DAFF000EEBD720EE04F0ED5151
:10301000D926EE51DA22060EDE18DE10D8A418D01A
:10302000BCD7FFD7EDC0D9FFEEC0DAFFDF50EF6F9E
:10303000F06BF051000AD8A4F4D7EF51000AD8B4CD
:103040009ED7010AD8B4C0D7030AD8B4CDD7E9D7E0
:10305000F10E126E010E136E000E156E000E146E40
:10306000E8EC45F0F6D1270E4D18D8A416D0640E22
:103070004E6413D0010E91EC21F0F10E126E010E90
:10308000136E000E156E060E146EE8EC45F0010E80
:103090004F6E000E00016F6F1200270E4D18D8A45E
:1030A0000BD0140E4E6408D0000E1C6E100EA9EC4E
:1030B0004CF0010E6F6F12006F05D8A404D0000E03
:1030C00091EC21F0DAD7070E4D18D8A407D0780E6E
:1030D0004E6404D00D0E91EC21F0CFD7070E4D18A1
:1030E000D8A40BD0140E4E6408D0130E1C6E050E1F
:1030F000A9EC4CF0020E6F6F1200020E6F19D8A4EB
:1031000004D00C0E91EC21F0B8D74D50D8A409D0C2
:1031100001015851D8A405D0010E5E6F030E556F02
:103120001200170E4D18D8A409D001015951D8A486
:1031300005D0010E5E6F010E556F120001015E0594
:10314000D8A405D0000E5E6F000E556F1200060E5B
:103150003B18D8B404D0050E3B18D8A415D0630E84
:10316000446412D00C0E91EC21F0F10E126E010E9F
:10317000136E000E156E060E146EE8EC45F03BC0A3
:1031800090F1010E456E120000019CBF05D09C51CC
:1031900012E19B05D8B0120001015805D8A406D051
:1031A0000C0E1C6E0F0EA9EC4CF01200180E1C6ECB
:1031B000180EA9EC4CF01200BD0EE96F020EEA6F7A
:1031C000A1EC0CF01200000E01014F6F040EE61985
:1031D000E711D8A40FD0B205D8A406D0A505D8A46D
:1031E00003D0010E4F6F06D0B205D8B403D078518A
:1031F000D8A4F7D75551D8A46BD0040EE619E7111F
:10320000D8A403D04F51D8B408D0E605E711D8B4FC
:1032100004D0E651E711D8A45BD0270E4D18D8A4EE
:1032200015D0640E4E6412D0010E91EC21F0F10E17
:10323000126E010E136E000E156E060E146EE8EC83
:1032400045F0010E4F6E000E000138D0270E4D18CC
:10325000D8A40AD0140E4E6407D0000E1C6E100EB7
:10326000A9EC4CF0010E2AD000016F05D8A40ED0B5
:10327000000E91EC21F0010E4F6E000E00016F6FF9
:10328000000E0101F26F010EF16F1200070E4D18D2
:10329000D8A407D0780E4E6404D00D0E91EC21F026
:1032A000C6D7070E4D18D8A40BD0140E4E6408D004
:1032B000130E1C6E050EA9EC4CF0020E6F6F08D0B9
:1032C000020E6F19D8A404D00C0E91EC21F0D5D6C3
:1032D00000019CBF05D09C5102E19B05D8B01200B3
:1032E000270E4D18D8B41200070E4D18D8B412008E
:1032F000030E01015519D8A412D0120E1C6E000E37
:103300001E6E0A0E1D6E0C0E4FEC4DF0000E0001ED
:103310009C6F040E9B6F000E0101A46F1200020E41
:103320005519D8B403D05505D8A40AD0100E1C6E78
:10333000000E1E6E0A0E1D6E000E4FEC4DF0E6D70D
:103340005551D8A40FD0E605E711D8A40BD0F10E43
:10335000126E010E136E000E156E070E146EE8EC61
:1033600045F012005551D8A46ED0040EE619E711AD
:10337000D8A469D0B205D8B40AD07851D8B407D04F
:103380006005D8B411D0030E6019D8B40DD0B205C1
:10339000D8A427D0A505D8A424D0020E6019D8B48B
:1033A00020D07851D8B41DD0000E00019C6F0A0EB9
:1033B0009B6F0101A405D8A40AD0100E1C6E000E4C
:1033C0001E6E0A0E1D6E0A0E4FEC4DF012000F0E0F
:1033D0001C6E000E1E6E0A0E1D6E0A0E4FEC4DF096
:1033E0001200B205D8B407D07851D8B404D0020E78
:1033F0006019D8B40AD0B205D8A416D0A505D8A4AF
:1034000013D0020E6019D8A40FD0000E00019C6FDB
:103410000A0E9B6F100E1C6E000E1E6E0A0E1D6EA5
:103420000A0E4FEC4DF012005905D8A406D0000E3C
:103430001C6E0F0EA9EC4CF01200180E1C6E180E2C
:10344000A9EC4CF01200180E1C6E180EA9EC4CF0F2
:103450001200EDC0D9FFEEC0DAFFDF500001EF6FC0
:10346000F06BF051000AD8A41200EF51000AD8B452
:10347000FAD5010AD8B4A0D6030AD8A41200A3D65C
:10348000000E326E000E316E31C010F032C011F0FD
:10349000000E136E050E126ED0EC4BF0030E1024CE
:1034A000D96E040E1120DA6E1750DE18D8B40AD186
:1034B0002AD131C010F032C011F0000E136E050E8B
:1034C000126ED0EC4BF0020E1024D96E040E1120B7
:1034D000DA6EDF501D6E020E1D261D50160FD96EBE
:1034E000DA6A31C010F032C011F0000E136E050E12
:1034F000126ED0EC4BF0000E1024E16E040E112081
:10350000E26EE6CF1EF0E5CF1FF01EC0E1FF1FC048
:10351000E2FFDFCFE7FFD7D131C010F032C011F0AA
:10352000000E136E050E126ED0EC4BF0000E102440
:10353000D96E040E1120DA6EDECF1DF0DDCF1EF045
:103540001DC0D9FF1EC0DAFF18C0DEFF19C0DDFFA5
:10355000DAD031C010F032C011F0000E136E050E3B
:10356000126ED0EC4BF0000E1024D96E040E112018
:10357000DA6EDECF1DF0DDCF1EF01DC0D9FF1EC0FC
:10358000DAFFDECF1FF0DECF20F0DECF21F0DECF7E
:1035900022F01850236E1950246E256A266A24C022
:1035A00026F023C025F0246A236A1F502310276EBB
:1035B00020502410286E21502510296E22502610EC
:1035C0002A6E31C010F032C011F0000E136E050EDD
:1035D000126ED0EC4BF0000E1024D96E040E1120A8
:1035E000DA6EDECF2BF0DDCF2CF02BC0D9FF2CC054
:1035F000DAFF27C0DEFF28C0DEFF29C0DEFF2AC0B9
:10360000DEFF31C010F032C011F0000E136E050E57
:10361000126ED0EC4BF0000E1024D96E040E112067
:10362000DA6EDECF1DF0DDCF1EF01DC0D9FF1EC04B
:10363000DAFFDECF1FF0DECF20F0DECF21F0DECFCD
:1036400022F0181C236E191C246E256A266A24C0D9
:1036500026F023C025F0246A236A231C276E241C2D
:10366000286E251C296E261C2A6E1F5027142B6ECF
:10367000205028142C6E215029142D6E22502A140B
:103680002E6E31C010F032C011F0000E136E050E18
:10369000126ED0EC4BF0000E1024D96E040E1120E7
:1036A000DA6EDECF2FF0DDCF30F02FC0D9FF30C083
:1036B000DAFF2BC0DEFF2CC0DEFF2DC0DEFF2EC0E8
:1036C000DEFF120031C010F032C011F0000E136E98
:1036D000050E126ED0EC4BF0040E1024D96E040EC1
:1036E0001120DA6EDF501D6E1E6A1E50000AD8A42B
:1036F0000AD01D50000AD8B4DCD6010AD8B40CD7C1
:10370000030AD8B426D731C010F032C011F0000E31
:10371000136E050E126ED0EC4BF0030E1024D96E12
:10372000040E1120DA6EDF501D6E1E6AFF0E1F6E32
:10373000FF0E206E1750216E226A1F502126205046
:1037400022221D50211803E11E502218D8A4BBD0FC
:1037500031C010F032C011F0000E136E050E126E63
:10376000D0EC4BF0040E1024D96E040E1120DA6E4A
:10377000020EDE18D8A4A7D031C010F032C011F06C
:10378000000E136E050E126ED0EC4BF0000E1024DE
:10379000D96E040E1120DA6EDECF1DF0DDCF1EF0E3
:1037A0001DC0D9FF1EC0DAFFDECF1FF0DECF20F034
:1037B000DECF21F0DECF22F018501F10236E1950FB
:1037C0002010246E000E2110256E000E2210266E91
:1037D00031C010F032C011F0000E136E050E126EE3
:1037E000D0EC4BF0000E1024D96E040E1120DA6ECE
:1037F000DECF27F0DDCF28F027C0D9FF28C0DAFFC1
:1038000023C0DEFF24C0DEFF25C0DEFF26C0DEFFB2
:1038100031C010F032C011F0000E136E050E126EA2
:10382000D0EC4BF0000E1024D96E040E1120DA6E8D
:10383000DECF1DF0DDCF1EF01DC0D9FF1EC0DAFFA8
:10384000DECF1FF0DECF20F0DECF21F0DECF22F082
:10385000181C236E191C246E256A266A231C276EE9
:10386000241C286E251C296E261C2A6E1F50271426
:103870002B6E205028142C6E215029142D6E2250AE
:103880002A142E6E31C010F032C011F0000E136EEB
:10389000050E126ED0EC4BF0000E1024D96E040E03
:1038A0001120DA6EDECF2FF0DDCF30F02FC0D9FF40
:1038B00030C0DAFF2BC0DEFF2CC0DEFF2DC0DEFFE4
:1038C0002EC0DEFF1200314A322A325005E12F0E9F
:1038D000315CD8B01200D8D51200E40E1B6EC1ECDA
:1038E00047F00001E86F9EBF08D09E5103E19D059F
:1038F000D8A003D04D50D8A428D0F10E126E010EDE
:10390000136E000E156E070E146EE8EC45F0BD0E3A
:10391000126E020E136E000E156E030E146EE8EC9E
:1039200045F0000E0101956F000E906F180E1C6E91
:10393000180EA9EC4CF007EC4EF0010E4F6E000E85
:1039400000019E6F000E9D6F12004D50D8A45CD0F8
:103950004A50D8B459D0000E9E6F640E9D6F4950E6
:103960004B5CD8A003D04AC049F001D0490649C0F9
:103970002EF001011751E3EC3EF0E806D8B404D074
:103980004A504918D8A421D00A0E106E495081EC33
:103990004BF01C6E000E1E6E140E1D6E0A0E106E85
:1039A000495081EC4BF00001E06FE051495C146E2E
:1039B000156AD8A01506000E176E0A0E166E8DEC4D
:1039C00040F014504FEC4DF01CD00A0E106E4950D0
:1039D00081EC4BF01C6E0A0E106E495081EC4BF0DE
:1039E0000001E06FE051495C146E156AD8A015061D
:1039F000000E176E0A0E166E8DEC40F01450A9ECF6
:103A00004CF0010E4F6E1200170E4D18D8A458D06E
:103A10004A50D8B455D0000E9E6F640E9D6F492A4F
:103A200049504A5CD8A04BC049F049C02EF0010172
:103A30001751E3EC3EF0E806D8B404D04A504918D8
:103A4000D8A421D00A0E106E495081EC4BF01C6EA8
:103A5000000E1E6E140E1D6E0A0E106E495081EC83
:103A60004BF00001E06FE051495C146E156AD8A07C
:103A70001506000E176E0A0E166E8DEC40F01450EF
:103A80004FEC4DF0BED70A0E106E495081EC4BF052
:103A90001C6E0A0E106E495081EC4BF00001E06F75
:103AA000E051495C146E156AD8A01506000E176E19
:103AB0000A0E166E8DEC40F01450C3EC4CF0A1D7FA
:103AC000630E4A641BD0630E496418D0010117517C
:103AD000D8A40AD0130E1C6E000E1E6E0A0E1D6EA8
:103AE000120E4FEC4DF01200100E1C6E000E1E6EEA
:103AF0000A0E1D6E120E4FEC4DF01200E829D8B4DC
:103B0000AAD0E851D8B40FD0E805D8B40CD0020E32
:103B1000E819D8B408D0040EE819D8B404D0080EB7
:103B2000E819D8A498D0E4C02EF0E5C02FF0E6C084
:103B300030F0E7C031F0000E326EE20E336E346AC0
:103B4000E5EC2EF00001E16F04EC4EF00001E36FB4
:103B5000E151D8A41200E351D8B404D00101CC51F2
:103B6000D8A41200E4C0D8F0E5C0D9F0E6C0DAF07D
:103B7000E7C0DBF049C0DCF00101175104EC43F071
:103B800001011751D8A408D0C6514918D8A404D0AF
:103B9000630EC66101D0C62B1705D8A408D0C75143
:103BA0004918D8A404D0630EC76101D0C72BBD0E3D
:103BB000126E020E136E000E156E080E146EE8ECF7
:103BC00045F0000E0101956F000E906F000E000190
:103BD0009C6F280E9B6F0A0E106E495081EC4BF0C3
:103BE0001C6E000E1E6E040E1D6E0A0E106E4950E5
:103BF00081EC4BF00001E06FE051495C146E156AF6
:103C0000D8A01506000E176E0A0E166E8DEC40F049
:103C100014504FEC4DF049504A18D8B403D04A50D4
:103C2000D8A412000101C651D8A40AD0C751D8A403
:103C300007D00001E351D8A403D0010E0101CC6FDD
:103C4000492A47C0D9FF48C0DAFF49C0DFFF020E4A
:103C50007FEC48F012004A504918D8B41200070E01
:103C60004D18D8A41200270E4E641200000E9E6F4D
:103C7000640E9D6F49C0D8F001011751CFEC40F0A0
:103C80000A0E106E495081EC4BF01C6E000E1E6E39
:103C9000140E1D6E0A0E106E495081EC4BF000019F
:103CA000E06FE051495C146E156AD8A01506000E4D
:103CB000176E0A0E166E8DEC40F014504FEC4DF05E
:103CC00012000101F105F211D8A406D0060E02017E
:103CD000BD19BE11D8A4120001017205D8A4CED01E
:103CE0003EEC43F0CBD020EE04F0E751D926E8516A
:103CF000DA220A0EDE18DE10D8A406D0E7C0D9FFFB
:103D0000E8C0DAFF010EB5D020EE04F0E751D92665
:103D1000E851DA220B0EDE18DE10D8A4CFD038D04E
:103D200020EE04F0E751D926E851DA220C0EDE1815
:103D3000DE10D8A472D0E7C0D9FFE8C0DAFF020EC7
:103D400098D020EE04F0E751D926E851DA220D0E82
:103D5000DE18DE10D8B41CD020EE04F0E751D926CE
:103D6000E851DA220E0EDE18DE10D8A42DD0E7C0FE
:103D7000D9FFE8C0DAFF030E7CD020EE04F0E75153
:103D8000D926E851DA220D0EDE18DE10D8A406D0AE
:103D9000E7C0D9FFE8C0DAFF040E6BD020EE04F0D4
:103DA000E751D926E851DA220F0EDE18DE10D8B41A
:103DB000A5D720EE04F0E751D926E851DA220C0EFF
:103DC000DE18DE10D8B4B7D720EE04F0E751D926BC
:103DD000E851DA22100E44D020EE04F0E751D92643
:103DE000E851DA220E0EDE18DE10D8B4C0D720EE6D
:103DF00004F0E751D926E851DA220C0EDE18DE1065
:103E0000D8B499D720EE04F0E751D926E851DA2248
:103E1000100EDE18DE10D8B427D020EE04F0E751E3
:103E2000D926E851DA22140EDE18DE10D8A446D0C6
:103E3000E7C0D9FFE8C0DAFF050E1BD020EE04F082
:103E4000E751D926E851DA22130EDE18DE10D8B475
:103E500055D720EE04F0E751D926E851DA22120EA8
:103E6000DE18DE10D8A42AD0E7C0D9FFE8C0DAFFF8
:103E7000000EDE6E000EDD6E21D0FFD7E7C0D9FF49
:103E8000E8C0DAFFDF500001E96FEA6BEA51000A8F
:103E9000D8A4F3D7E951000AD8B425D7010AD8B479
:103EA0003FD7030AD8B44DD7010AD8B466D7070A5A
:103EB000D8B492D7010AD8B4C1D7DFD7E60E126EB4
:103EC000010E136E000E156E000E146EE8EC45F038
:103ED0007FD0000ECE6F640ECD6F010E01019D6F7D
:103EE000020E9719D8B403D0030E986528D000ECC1
:103EF0002EF00001EB6F140E106E000E126E140EF9
:103F0000116E0E0E61EC4AF0000E00019C6F0A0E5D
:103F10009B6FEB51D8A40BD0270E4D18D8B407D007
:103F20004D50D8B404D0170E4D18D8A41200000E6E
:103F30000101976F000E986F010E4F6E1200010E77
:103F4000716F010E9127000E922393239423000E8C
:103F50009F6F000E736F000E746F000E756F000E72
:103F6000766F000E9D6F000E986F000E556F000E5D
:103F700000019C6F280E9B6F0C0E106E000E126ECF
:103F8000040E116E0F0E61EC4AF0E60E126E010E79
:103F9000136E000E156E0A0E146EE8EC45F012005A
:103FA00060EC3DF0120060EC24F0000E0001CE6FDA
:103FB000640ECD6F120013EC2DF0F7D70EEC23F04A
:103FC000F4D7B20EDD6F020EDE6F4DEC11F0EDD7BF
:103FD000E7C0D9FFE8C0DAFFDF500001E96FEA6B04
:103FE000EA51000AD8A41200E951000AD8B471D7E6
:103FF000010AD8B4D5D7030AD8B4D5D7010AD8B4A2
:10400000DDD7070AD8B4D7D7010AD8A41200D9D768
:1040100001019505D8A407D0000E116E140E106E84
:1040200089EC49F00FD0E651E711D8A40BD0000E6F
:104030007D6F000E7E6F030EB319D8B402D0879443
:1040400001D0878401017205D8B405D0040EE619A9
:10405000E711D8A41DD00001A2BF1AD0A25103E1DC
:10406000A105D8A015D0A2BF06D0A25111E13D0EE6
:10407000A15DD8B00DD0020E0101BF19D8A408D09F
:10408000000E126E040E116E010E2CEC3FF01200A9
:10409000030E01015519D8A44FD0000E7D6F7E513B
:1040A000D8A413D0030EBF19D8A40FD0000E00015E
:1040B000D26F280ED16F000E126E000E116E040E1C
:1040C0002CEC3FF0010E01017E6F0001D2BF05D044
:1040D000D25105E1D105D8B002D00101BF51010193
:1040E000BF05D8A410D00001D2BF05D0D2510BE13A
:1040F000D105D8B008D0000E126E050E116E030E59
:104100002CEC3FF007D0000E126E000E116E030E65
:104110002CEC3FF00101B351D8A407D0000E116E72
:104120000A0E106E89EC49F01200000E116E000E9E
:10413000106E89EC49F012005551D8A441D0E60523
:10414000E711D8A43DD07205D8A4838EBF05D8A4AA
:1041500017D0020EC219D8B403D0C205D8A408D013
:10416000000E126E000E116E040E2CEC3FF013D0F8
:10417000000E126E280E116E040E2CEC3FF00BD0C8
:10418000030EBF19D8B407D0000E126E000E116EC8
:10419000040E2CEC3FF0030E0101B319D8B4120049
:1041A0000001B2BF07D0B251B111B011BEE1AF05ED
:1041B000D8B0BBD78794000EAE6F000EAD6F120063
:1041C0005551D8A442D0AB51D8A403D05505D8B48A
:1041D0000AD0AC51D8A415D0AA51D8B412D0020E2E
:1041E0005519D8A40ED0000E7D6F000E7E6F030E01
:1041F000B319D8B41200020EB319D8B412008794C0
:104200001200BF05D8A408D0000E126E140E116E55
:10421000010E2CEC3FF007D0000E126E000E116E56
:10422000010E2CEC3FF00101B305D8B404D0030E0D
:10423000B319D8A402D087941200B351D8B475D75B
:10424000020EB319D8A4120070D7000E7E6F7D51F4
:10425000D8A40CD0030EBF19D8A408D0000E0001BA
:10426000D26F280ED16F010E01017D6F0001D2BF08
:1042700005D0D25105E1D105D8B002D00101BF511E
:10428000040E0101E619E711D8A41AD0000E7D6FC3
:10429000000E7E6FAB51D8A40AD0AC51D8B403D075
:1042A000AA51D8A404D0020EB219D8A407D0000E87
:1042B000126E000E116E010E2CEC3FF0879412006E
:1042C000BF05D8A408D0000E126E0A0E116E020EA1
:1042D0002CEC3FF007D0000E126E000E116E020E95
:1042E0002CEC3FF00101B351D8A407D0000E116EA1
:1042F000140E106E89EC49F00DD0B305D8B404D07B
:10430000020EB319D8A406D0000E116E000E106E66
:1043100089EC49F0030E0101B319D8A41200879467
:104320001200226E000E00019E6F640E9D6F2250DF
:1043300001011519D8B406D0010E226403D0000E75
:10434000176F05D0020E226002D018C117F1000EBF
:10435000146FF7D0000E156F0A0E166F000E186F4F
:10436000000E236E2350020D000EF324D96E010EB1
:10437000F420DA6E100EDF6E2350020D010EF324CE
:10438000D96E010EF420DA6E23C0DFFF232A090E56
:104390002364E8D708D1010E156F0A0E166F000EC0
:1043A000186F000E236E2350020D000EF324D96EF9
:1043B000010EF420DA6E0E0EDF6E2350020D010E98
:1043C000F324D96E010EF420DA6E23C0DFFF232A16
:1043D000090E2364E8D7E7D0000E146F040E156FA2
:1043E000040E166F0A0E006F130E016F170E026F88
:1043F0000A0E036F050E046F210E056F0D0E066F7A
:10440000010E51D0000E146F050E156F020E166FBF
:104410000D0E006F0A0E016F0D0E026F0F0E8FD082
:10442000000E146F060E156F030E166F0F0E006F41
:10443000000E016F0F0E026F050E036F0F0E046F5B
:104440000D0E74D0000E146F070E156F020E166F4E
:104450000A0E006F0F0E016F0A0E026F100E6FD062
:10446000000E146F080E156F020E166F120E006FFD
:104470000E0E016F110E026F0C0E61D0000E146F44
:10448000090E156F040E166F120E006F0A0E016FE3
:10449000110E026F0A0E036F110E046F120E056FDC
:1044A000050E066F150E076F7ED0010E146F0A0EF3
:1044B000156F020E166F110E006F100E016F100EA9
:1044C000026F120E3CD0010E146F0B0E156F020E10
:1044D000166F140E006F240E016F140E026F230E60
:1044E0002ED00C0E156F000E176F020E166F050EF4
:1044F000006F130E016F050EB0D70D0E156F010E74
:10450000166F0D0E006F120E016F000E00019C6FF2
:104510003C0E9B6F48D0050E006F0C0E016F050E10
:10452000026F0E0E036F220E046F140E056F3BD048
:10453000120E006F0E0E016F140E026F150E036F38
:1045400032D02250206E216A2150000AD8A42BD0EC
:104550002050000AD8B4FED6010AD8B41CD7030AEA
:10456000D8B4E6D7010AD8B4D6D7070AD8B434D716
:10457000010AD8B447D7030AD8B452D7010AD8B42D
:1045800061D70F0AD8B46CD7010AD8B477D7030A19
:10459000D8B48BD7010AD8B496D7070AD8B4A1D714
:1045A000010AD8B4AAD701011651175DD8A002D0CC
:1045B000000E176F0D0E2218D8A41AD01751020D35
:1045C000010EF324D96E010EF420DA6EDF501C6E5A
:1045D000000E1E6E0A0E1D6E1751020D000EF32402
:1045E000D96E010EF420DA6EDF504FEC4DF0120060
:1045F0001751020D010EF324D96E010EF420DA6E6C
:10460000DF501C6E1751020D000EF324D96E010EFF
:10461000F420DA6EDF50A9EC4CF0120000EC2EF022
:10462000336EB0EC3DF0326E000E0001726FB6ECEE
:104630004CF0000EA56F030E98650DD0000E556F5F
:10464000E60E126E010E136E000E156E100E146E35
:10465000E8EC45F012005805D8B40CD06D516E113D
:104660006F117011D8A45FD07B51D8A45CD09D513C
:10467000D8A459D0020EB319D8A418D0BA511D6EBF
:104680001E6A1F6A206AB00E216E040E226E000E92
:10469000236E000E246EC8EC46F01DC0AFF01EC0A5
:1046A000B0F01FC0B1F020C0B2F009D0000E000180
:1046B000AF6F000EB06F000EB16F000EB26F000E44
:1046C0000101676F010E716F010E9127000E922399
:1046D00093239423000E9F6F000E736F000E746F70
:1046E000000E756F000E766F000E9D6F000E986FB6
:1046F000000E556F000E00019C6F280E9B6F0C0E74
:10470000106E000E126E040E116E0F0E61EC4AF068
:10471000E60E126E010E136E000E156E0F0E146E65
:10472000E8EC45F012003204D8B414D00001BABF4E
:1047300025D0BA5103E1B905D8A020D001019605D2
:10474000D8A41CD00001C0BF05D0C05117E1BF05DF
:10475000D8B014D001017C51D8A410D03204D8A410
:10476000982B982B010E7C6F000E0001B46F0A0E7F
:10477000B36F000ED06F1E0ECF6F12000001BABFD4
:1047800032D0BA5103E1B905D8A02DD001017C0582
:10479000D8A429D09A05D8A405D0000E556F42ECB4
:1047A00034F04ED70001B4BF05D0B45118E1B305C1
:1047B000D8B015D001019F05D8A403D0AEEC43F0CA
:1047C00004D0BDEC4BF042EC34F0000E7C6F010ED7
:1047D000996F000E0001C06F140EBF6F1200000E23
:1047E0000101556F120001017C05D8A418D0000EFC
:1047F000556F0001B4BF05D0B45161E1B305D8B025
:10480000120001019F05D8A403D0AEEC43F004D000
:10481000BDEC4BF042EC34F0000E7C6F12005551B1
:10482000D8A40BD0020E3218D8B402D0982BB5D72A
:1048300042EC34F071EC4CF012000001C2BF05D024
:10484000C2510CE1C105D8B009D001019B05D8A423
:1048500005D042EC34F0000E9B6FECD70101B60599
:10486000D8B404D0020EB619D8A405D0040E33185B
:10487000D8B41200DFD73350D8B41200B205D8A490
:1048800012D042EC34F071EC4CF0020E3318D8A484
:104890001200020E0101B219D8B4120045EC4DF01D
:1048A000010EA46F1200040E3318D8B4C3D7010E42
:1048B0007C6F000E0001B46F0A0EB36F120012007D
:1048C000B0EC3DF00001E46FFDEC3DF00001E56F60
:1048D00000EC2EF00001E66F15EC2AF0B6EC4CF07F
:1048E000000EA56F0001E4511CEC4CF0030E98651E
:1048F0000DD0000E556FE60E126E010E136E000EF7
:10490000156E100E146EE8EC45F01200020E5519EB
:10491000D8A414D00001A0BF05D0A0510FE19F057D
:10492000D8B00CD010EC3BF071EC4CF045EC4DF0F5
:10493000010EA56F010E0001726F120001015905F1
:10494000D8B410D06D516E116F117011D8A430D041
:104950007B51D8A42DD09D51D8A42AD0020E711914
:10496000D8A426D0040E716FDEC173F1DFC174F1DB
:10497000E0C175F1E1C176F1000E676F000E9D6F29
:10498000010E776F000E986F000E00019C6F280ECD
:104990009B6F000E106E000E126E040E116E0F0E45
:1049A00061EC4AF071EC4CF0010E0101A56F1200B0
:1049B0000001E505D8B413D0BABF28D0BA5103E13D
:1049C000B905D8A023D001019605D8A41FD00001B5
:1049D000C0BF05D0C0511AE1BF05D8B017D0010142
:1049E0007C51D8A413D00001E505D8B402D0010150
:1049F000982B010E01017C6F000E0001B46F0A0EAE
:104A0000B36F000ED06F1E0ECF6F12000001BABF41
:104A100032D0BA5103E1B905D8A02DD001017C05EF
:104A2000D8A429D09905D8A405D0000E556F42EC22
:104A300034F061D70001B4BF05D0B45118E1B3051B
:104A4000D8B015D0AAEC4BF010EC3BF0000E7C6F08
:104A5000010E9A6F000E0001C06F140EBF6F000EA2
:104A6000C26F280EC16F010E01019B6F1200000E74
:104A70000101556F120001017C05D8A40BD0000E76
:104A8000556F0001B4BFDED7B45150E1B305D8B0C3
:104A90001200D8D75551D8A418D00001B4BF05D002
:104AA000B45113E1B305D8B010D0020EE519D8B453
:104AB00007D00101982B000E556F10EC3BF01BD76F
:104AC00010EC3BF071EC4CF012000101B605D8A4DB
:104AD00006D0030E0001E619D8B41200F3D7020E77
:104AE0000001E619D8A410D0020E01015519D8A46E
:104AF0000BD0020EB219D8B407D010EC3BF071EC19
:104B00004CF045EC4DF012000001E605D8B408D099
:104B1000030EE619D8B404D0040EE619D8A4120086
:104B2000020E0101B219D8B41200CAD71200000E49
:104B30008EB6010E0001806FD751D8A4120001D1AA
:104B40008051D8A403D0030E846F12006C07D8A044
:104B50006D076DAF1200F60E6C5DFF0E6D59D8B08B
:104B60001200000E846F12008051D8B428D0020EBB
:104B7000846FC80E8325D96EDA6A020EDA22D890C5
:104B8000DF326DBF08D0C80E8325D96EDA6A020EF7
:104B9000DA22800EDF26000E6D6F000E6C6F822B06
:104BA00082C001F0070E0116D8B4832B410E821982
:104BB000D8A41200000E846F010ED76F12006C4B48
:104BC0006D2B6DBF12006D5104E10A0E6C5DD8A013
:104BD0001200010E846F000E836F000E826F1200B0
:104BE0008051D8B42ED06DBF0ED06D5104E1140E9B
:104BF0006C5DD8A008D06DBF1DD06D5104E12D0EA5
:104C00006C5DD8A017D06DBFACD76D5104E1500ECC
:104C10006C5DD8A0A6D76DBF06D06D51A2E1640E21
:104C20006C5DD8B09ED7FF0E6D6FF60E6C6F040EE4
:104C3000846F1200000E6D6F000E6C6F020E846F99
:104C400012006C4B6D2B12008051D8A452D0050E6F
:104C5000846FC80E8325D96EDA6A020EDA22D890E4
:104C6000DF326DBF08D0C80E8325D96EDA6A020E16
:104C7000DA22800EDF26000E6D6F000E6C6F822B25
:104C800082C001F0070E0116D8A409D0832BC80EEC
:104C90008325D96EDA6A020EDA22000EDF6E0D0E5F
:104CA0008219D8A41200000E846F8105D8A41AD0EE
:104CB0000201C85101014A19D8A40FD00201C951FB
:104CC00001014B19D8A409D0010E0001D76F000EC5
:104CD0000201CA6F000ECB6F1200C8C24AF1C9C2EE
:104CE0004BF11200010E816FC8C24AF1C9C24BF1EB
:104CF00012006C4B6D2B6DBF12006D5104E10A0E5A
:104D00006C5DD8A012002DD78051D8B403D0040E0A
:104D1000846F12006C07D8A06D076DAF1200F60EFD
:104D20006C5DFF0E6D59D8B0120053D7010E846F21
:104D3000000E6D6F000E6C6F000E836F000E826FA1
:104D400012008451016E026A0250000AD8A4EED704
:104D50000150000AD8B4EAD7010AD8B441D7030AEF
:104D6000D8B4EED6010AD8B4FFD6070AD8B46CD7A7
:104D7000010AD8B4C9D7DAD7000E1F6E20EE02F0B0
:104D80001850D9261950DA22000EDE6E000EDD6EA4
:104D9000000E216E000E206E20EE01F01850D92674
:104DA0001950DA2220C010F021C011F0000E136E4D
:104DB000050E126ED0EC4BF0030E1024E16E040EC3
:104DC0001120E26EDE50E618D8B4BAD0DCD020C094
:104DD00010F021C011F0000E136E050E126ED0EC13
:104DE0004BF0000E1024D96E040E1120DA6EDECFC7
:104DF0001AF0DDCF1BF01AC0D9FF1BC0DAFF20C0AC
:104E000010F021C011F0000E136E050E126ED0ECE2
:104E10004BF0020E1024E16E040E1120E26EE750FA
:104E20001C6E1C5018241D6E000E19201E6E020EE2
:104E30001D24E16E000E1E20E26EDFCFE7FFA1D041
:104E400020C010F021C011F0000E136E050E126E7E
:104E5000D0EC4BF0000E1024D96E040E1120DA6E47
:104E6000DECF1AF0DDCF1BF01AC0D9FF1BC0DAFF6E
:104E700010EE02F01850E1261950E222DECFE6FFD4
:104E8000DDCFE5FF7ED020C010F021C011F0000E74
:104E9000136E050E126ED0EC4BF0000E1024D96E7E
:104EA000040E1120DA6E10EE02F0DE50E126DD5025
:104EB000E22220EE02F01850D9261950DA22E6CF6D
:104EC000DEFFE5CFDDFF18C0D9FF19C0DAFF00EE25
:104ED00011F0060EDBCFEBFFE806FCE28FEC4AF0A8
:104EE00020C010F021C011F0000E136E050E126EDE
:104EF000D0EC4BF0000E1024D96E040E1120DA6EA7
:104F0000DECF1AF0DDCF1BF01AC0D9FF1BC0DAFFCD
:104F100010EE02F01850E1261950E222DECFE6FF33
:104F2000DDCFE5FF18C0D9FF19C0DAFF00EE11F0A0
:104F3000060EDBCFEBFFE806FCE28FEC4AF0120036
:104F400020C010F021C011F0000E136E050E126E7D
:104F5000D0EC4BF0040E1024D96E040E1120DA6E42
:104F6000DF501A6E1B6A1B50000AD8A40AD01A50D0
:104F7000000AD8B42CD7010AD8B462D7030AD8B42F
:104F800082D7010E1F6E204A212A215004E12F0EE4
:104F9000205CD8A001D71F50D8B4120018C0D9FF88
:104FA00019C0DAFF00EE11F0060EDBCFEBFFE806CA
:104FB000FCE28FEC4AF012006D516E116F1170110E
:104FC000D8A40DD09751D8B40AD07B51D8A407D01B
:104FD0009D51D8A404D0000E556F020E07D097053E
:104FE000D8A405D05551D8A402D0000E976F5551C2
:104FF000E5EC43F0186E1850D8A40CD0010E010156
:10500000626F000196BF120087928790000E010127
:105010006B6F12000101BD05D8A425D00001670502
:10502000D8A421D001015551D8A41DD01850D8B40E
:105030001AD00001B8BF17D0B85103E1B705D8A006
:1050400012D0D0BF05D0D0510EE1CF05D8B00BD0D3
:10505000B8BF06D0B85103E1120EB75DD8B0120048
:1050600087828780D3D71804D8B404D0020E1818CA
:10507000D8A45DD001015951D8A459D091B203D020
:10508000C151D8B405D091B04BD0C105D8A448D0F7
:1050900091B003D0C151D8B405D091B239D0C10577
:1050A000D8A436D0000E626F000E0001966FC80EB5
:1050B000956F000EAA6F140EA96F01015805D8B4A0
:1050C00003D07105D8A422D0A6510A0DF3CF12F057
:1050D000F4CF13F0BE511226000E13221250DA251F
:1050E000146E1350DB21156E000EDC21166E000EBF
:1050F000DD21176E500E14246D6F000E15206E6F9B
:10510000000E16206F6F000E1720706F020E716F69
:10511000C151D8A402D0878001D08782010E6B6F65
:10512000C151D8A402D08792120087901200030EBA
:105130001818D8A4120001015851D8A4120091B037
:1051400003D0C151D8B405D091B24CD0C105D8A478
:1051500049D091B203D0C151D8B405D091B03AD062
:10516000C105D8A437D0000E626F000E0001966F03
:10517000C80E956F000EAA6F140EA96F0101590594
:10518000D8B404D0040E7119D8A422D0A7510A0DA6
:10519000F3CF12F0F4CF13F0BE511226000E1322FB
:1051A0001250DE25146E1350DF21156E000EE02123
:1051B000166E000EE121176E500E14246D6F000E56
:1051C00015206E6F000E16206F6F000E1720706F87
:1051D000030E716FC151D8A402D0878201D087809D
:1051E000020E6B6FC151D8A402D087901200879233
:1051F0001200A8EC3CF0766F01013C05D8A411D058
:105200000001BCBF08D0BC5103E1BB05D8A003D04E
:10521000000E776F06D001013E51405DD8A03FC11E
:1052200076F08DA677D000017951D8A473D078514B
:10523000D8A415D0FA0E7A25D96EDA6A020EDA22CF
:105240000101D8905031DF6E00017A51D8A402D00C
:10525000010E01D0000E7A6F000E0101506F500E4A
:105260000001766507D0B8BF09D0B85103E1B70592
:10527000D8A004D0869E000E0101616F0001782B3A
:10528000FA0E7A25D96EDA6A020EDA227851DE5CDD
:10529000D8B04AD0590E0101A26505D06A0EA261AC
:1052A00002D0010E01D0000E6A6F500E0001946F03
:1052B000000E0101A26F010E0001776F010E796FE0
:1052C0000101402BBD05D8A40FD00001B8BF0CD000
:1052D000B85103E1B705D8A007D0010E0101406520
:1052E00023D0000E406F20D001013D513EC105F09A
:1052F000066A0526000E06224051076E086A055010
:10530000075C0850800A096E0650800A0958D8B018
:10531000E8D70AD08DB608D000017951D8B404D0AE
:10532000000E796F000E786F8DA602D00101502B10
:105330000101A22B555153EC44F0756F0101BD05DD
:10534000D8A42ED00001B8BF2BD0B85103E1B705C7
:10535000D8A026D0D0BF05D0D05122E1CF05D8B0FB
:105360001FD07551D8B43ED07705D8A43BD096BF96
:1053700005D0965137E19505D8B034D001014051A0
:10538000D8A430D00001B8BF06D0B8512BE10C0E24
:10539000B75DD8B027D0868EEC0E966F780E1BD0F6
:1053A00000017551D8B41ED07651945DD8B01AD092
:1053B0007705D8A417D096BF05D0965113E195056F
:1053C000D8B010D001016251D8A40CD0868EFF0E47
:1053D0000001966F380E956F010E0101616F000E8E
:1053E0000001776F150E0001946102D0B8BF03D0A1
:1053F0007551D8A404D0869E000E0101616F000192
:105400007551D8A496BF09D0965103E19505D8A04F
:1054100004D09507D8A0960712007551D8A41200A1
:1054200096AF1200954B962B120001017B05D8A474
:1054300018D09C05D8A415D03C51D8A409D0000E92
:105440000001BC6F0A0EBB6F000EBE6F140EBD6F65
:105450003BEC4DF0010E3C6F000E646F000E636F6D
:1054600012007B05D8B403D05E05D8A407D0000E87
:10547000646F000E636F000E3C6F1200030E55192F
:10548000D8A463D0030E9CEC3AF029500101735D5F
:105490002A5074592B5075597651800A0001DA6FE1
:1054A0002C50800ADA59D8A004D001019D05D8A457
:1054B0004CD00101A751D8B403D06751D8B40AD059
:1054C00066BF05D0665141E16505D8B03ED0B951FF
:1054D000D8B43BD03C51D8A422D06751D8A41FD017
:1054E000000E0001BE6F140EBD6F0101B951D8B49A
:1054F00007D0000E7C6F010E676F0FEC48F00FD0E5
:10550000000E0001BC6F0A0EBB6F3BEC4DF0010EAC
:105510003C6F000E646F000E636F000E676F66BF16
:1055200005D0665102E16505D8B012006705D8A420
:105530001200B951D8B41200000E0001BC6F020E67
:10554000BB6F000E0101676F83D75551A4EC36F095
:10555000E806D8A43FD00101A651D8B403D06751C2
:10556000D8B40AD066BF05D0665134E16505D8B01D
:1055700031D0B951D8B42ED03C51D8A423D06751E2
:10558000D8A420D0000E0001BE6F140EBD6F010123
:10559000B951D8B407D0000E7C6F010E676F0FECC5
:1055A00048F010D0000E0001BC6F0A0EBB6F000E59
:1055B0000101676F3BEC4DF0010E3C6F000E646F14
:1055C000000E636F66BFB2D7665135E16505D8B08E
:1055D0001200ACD7010166BF12D0665103E1650528
:1055E000D8A00DD05551D8B40AD06851655D656F0B
:1055F0006651D8A06605666F000E3C6F120064BF4E
:1056000010D0645103E16305D8A00BD05551D8B434
:1056100008D06951635D636F6451D8A06405646FFD
:10562000EBD7000E666F000E656F000E646F000E04
:10563000636F000E3C6F1200000E0001DD6F2D0E37
:105640000101A66505D0030EA66F010E0001DD6FF6
:105650002D0E0101A76505D0030EA76F010E0001F5
:10566000DD6F0101A851D8B403D0090EA86505D09B
:10567000090EA86F010E0001DD6F090E0101A96579
:1056800005D0000EA96F010E0001DD6F630E010150
:10569000AA6505D00A0EAA6F010E0001DD6F630E28
:1056A0000101AB6505D0000EAB6F010E0001DD6F8F
:1056B000630E0101AC6505D0000EAC6F010E000158
:1056C000DD6F010E0101AD6505D0000EAD6F010E5D
:1056D0000001DD6F010E0101AE6505D0000EAE6F59
:1056E000010E0001DD6F010E0101AF6505D0000E56
:1056F000AF6F010E0001DD6F010E0101B06505D035
:10570000010EB06F010E0001DD6F010E0101B165E8
:1057100005D0000EB16F010E0001DD6F020E010118
:10572000B26505D0000EB26F010E0001DD6F030EF1
:105730000101B36505D0000EB36F010E0001DD6FEE
:10574000010E0101B46505D0000EB46F010E000119
:10575000DD6F090E0101B56505D0000EB56F010EB4
:105760000001DD6F020E0101B66505D0000EB66FB7
:10577000010E0001DD6F010E0101B76505D0000EBD
:10578000B76F010E0001DD6F090E0101B86505D08C
:10579000000EB86F010E0001DD6F630E0101BA65E6
:1057A00005D0030EBA6F010E0001DD6F090E010175
:1057B000BB6505D0000EBB6F010E0001DD6F010E51
:1057C0000101BD6505D0000EBD6F010E0001DD6F4A
:1057D0000101BE51D8B403D0090EBE6505D0050E37
:1057E000BE6F010E0001DD6F030E0101BF6505D024
:1057F000030EBF6F010E0001DD6F010E0101BC65DC
:1058000005D0000EBC6F010E0001DD6F010E01011D
:10581000C16505D0010EC16F010E0001DD6F090EDB
:105820000101B96505D0000EB96F010E0001DD6FF1
:105830000001DD51D8B41200000E7FEC48F0010EDB
:105840007FEC48F01200E2C010F0E3C011F0E0C0BD
:1058500012F0E1C013F0000E156E080E146EE6ECA7
:1058600048F0080E0001E225106E000EE321116ED3
:10587000E2C012F0E3C013F0000E156E040E146EB9
:10588000E6EC48F0000120EE0CF0E251D926E3519D
:10589000DA2210EE07F0E251E126E351E222E7506E
:1058A000E46FE4390F0BDF6EE2C010F0E3C011F0DB
:1058B000E4EC49F0E96FE951D8A419D020EE04F0E6
:1058C000E251D926E351DA22DECF2EF0DECF2FF0DF
:1058D000DECF30F0DECF31F0000E326E0F0EE2255B
:1058E000336E000EE321346EE5EC2EF005D001019D
:1058F000B451D8A403D0000E0001E96F000120EEDE
:1059000004F0E251D926E351DA22FF0EDE14E46FEF
:10591000FF0EDE14E56FFF0EDE14E66F0F0EDE14D1
:10592000E76F20EE04F0E251D926E351DA22E4C019
:10593000DEFFE5C0DEFFE6C0DEFFE7C0DEFFE2C05F
:1059400038F0E3C039F071EC46F0E951D8A41DD02D
:10595000E2C010F0E3C011F0FEEC49F00009D8A459
:1059600009D0000120EE0EF0E251D926E351DA22EF
:10597000010E08D0000120EE0EF0E251D926E351CD
:10598000DA22000EDF6E000E1200060EE919D8B4FE
:1059900004D0050EE919D8A41BD020EE04F0E25182
:1059A000D926E351DA22DECF2EF0DECF2FF0DECF84
:1059B00030F0DECF31F0010E326E0F0EE225336E85
:1059C000000EE321346EE5EC2EF00009D8B4DBD7ED
:1059D000E2C010F0E3C011F0FEEC49F00009D8A4D9
:1059E0000FD00101CC05D8B4CED7000120EE0EF0C7
:1059F000E251D926E351DA22010EDF6EE95112009D
:105A0000E2C024F0E3C025F048EC40F00001E86F6C
:105A1000E805D8A4B8D720EE0EF0E251D926E3511C
:105A2000DA22000EEAD7B0EC3DF0206E2050D8B458
:105A300007D000017251D8A403D0B6EC4CF008D0C6
:105A40002050D8B405D000017205D8B445EC4DF013
:105A500000EC2EF0216E20501CEC4CF08EB210D0D9
:105A6000AB51D8B40DD07851D8B40AD0350E4D18FA
:105A7000D8B406D0020EB219D8A402D0000E216EFE
:105A80002150D8B459D0000E00019C6F3C0E9B6F82
:105A9000020E0101B219D8A40DD0AB51D8A40AD07E
:105AA0002104D8B404D0040E2118D8A403D0AAEC41
:105AB0004BF01200B651D8B413D0030E2118D8A45D
:105AC0000AD05951D8A407D0040E7119D8B403D004
:105AD000BDEC4BF01200040E2118D8A41200E7D739
:105AE000030E6019D8A408D02104D8A405D0BDECB9
:105AF0004BF0000E7C6F1200030E6019D8A407D083
:105B0000020E2118D8A403D0AEEC43F0F2D7030E56
:105B10002118D8A405D0040E7119D8B41200E7D703
:105B2000AB51D8B407D0020EB219D8A403D0B6EC4A
:105B30004CF012002050D1D78EB20AD0AB51D8B45D
:105B400007D0AB51140DF3CFA1F0F4CFA2F01200A7
:105B50008F05D8A40ED02050D8A40BD0000E8F6F84
:105B6000BBC178F1BB51140DF3CFA1F0F4CFA2F07B
:105B700012000001A2BF05D0A25112E1A105D8B0C8
:105B80000FD00101B205D8A40BD0A505D8A408D028
:105B90007851D8B405D0000E786F000EA56F87D766
:105BA0000001A2BF05D0A25117E1A105D8B014D0C1
:105BB0000101B205D8B410D07851D8B40DD0000E80
:105BC000786F7C05D8A403D0000E7C6F81D7AAEC37
:105BD0004BF0000E9D6F120001017705D8A4120052
:105BE0002050D8A4120000019CBF06D09C5103E1B4
:105BF000020E9B5DD8B01200000E0101776F1200FB
:105C000001017B51D8A4C1D00001BABF19D0BA514B
:105C100003E1B905D8A014D0010E1C6E000E1E6E53
:105C2000140E1D6E120E4FEC4DF0000E00019C6F15
:105C30000A0E9B6F010E456E010E4F6E000E120094
:105C40000101B651D8B42FD0350E4D18D8A417D0B5
:105C5000000E00019C6F0A0E9B6F000E1C6E000E62
:105C60001E6E040E1D6E120E4FEC4DF0020E010161
:105C7000B619D8A402D0010E4F6E030E1200330ED7
:105C80004D18D8A4DBD7000E00019C6F0A0E9B6F45
:105C9000050E1C6E000E1E6E040E1D6E120E4FECD5
:105CA0004DF0040E1200350E4D18D8A416D0000E7B
:105CB00000019C6F280E9B6F000E1C6E000E1E6E66
:105CC000040E1D6E120E4FEC4DF00101B705D8B455
:105CD000D2D7010E4F6E010E1200330E4D18D8A40C
:105CE00019D0000E00019C6F280E9B6F050E1C6ED4
:105CF000000E1E6E040E1D6E120E4FEC4DF00101D3
:105D0000B705D8A403D0010E4F6ECBD7010E4F6E4E
:105D1000020E1200360E4D18D8A40FD0000E00014E
:105D20009C6F280E9B6F130E1C6E000E1E6E040ED1
:105D30001D6E100E4FEC4DF0CCD73B50D8B423D095
:105D4000060E3B18D8B41FD0050E3B18D8B41BD094
:105D50000A0E106E4350C7EC49F0F60DF350432481
:105D60001C6E000E1E6E040E1D6E0A0E106E435049
:105D7000C7EC49F04FEC4DF0000E00019C6F280E6F
:105D80009B6F010E456E3B5012003B50D8B41BD0A8
:105D90000A0E106E4350C7EC49F0F60DF350432441
:105DA0001C6E000E1E6E040E1D6E0A0E106E435009
:105DB000C7EC49F04FEC4DF0000E00019C6F140E43
:105DC0009B6F010E456E3B501200000E396E32047F
:105DD000D8A409D0FF0E356EFF0E366EFF0E376E5B
:105DE0000F0E386E04D03568366837683868000E94
:105DF0003A6E57D03AC0D8F0030E0001D817D8A495
:105E00001CD0000E396E3A50D86FD96BD890D83765
:105E1000D937D890D837D937000ED825226E020E40
:105E2000D921236EA20E246E020E256E000E276E5F
:105E3000100E266E500E8EEC42F03950040DA20E5C
:105E4000F324D96E020EF420DA6EDECFD8F0DECF66
:105E5000D9F0DECFDAF0DECFDBF035500001D81517
:105E6000DC6F3650D915DD6F3750DA15DE6F3850DC
:105E7000DB15DF6F2E50DC1912E12F50DD190FE119
:105E80003050DE190CE13150DF19D8A408D033C0EE
:105E9000D9FF34C0DAFF3AC0DFFF010E1200392A01
:105EA0003A2A0101C6513A5CD8A0A4D7000E3A6E36
:105EB00057D03AC0D8F0030E0001D817D8A41CD090
:105EC000000E396E3A50D86FD96BD890D837D93781
:105ED000D890D837D937000ED825226E050ED92193
:105EE000236EA20E246E020E256E000E276E100E7B
:105EF000266E500E8EEC42F03950040DA20EF324A3
:105F0000D96E020EF420DA6EDECFD8F0DECFD9F0F3
:105F1000DECFDAF0DECFDBF035500001D815DC6FD4
:105F20003650D915DD6F3750DA15DE6F3850DB1576
:105F3000DF6F2E50DC1912E12F50DD190FE13050C8
:105F4000DE190CE13150DF19D8A408D033C0D9FFD5
:105F500034C0DAFF3AC0DFFF020E1200392A3A2AB3
:105F60000101C7513A5CD8A0A4D7000E120000016D
:105F7000A6BF0AD0A65103E1A505D8A005D0000E02
:105F8000CA6F140EC96F07D0CABF09D0CA5103E146
:105F9000C905D8A004D0040E216EB00E03D0000EA7
:105FA000216E000E206E01013C51D8A45BD0030E7F
:105FB0005519D8A405D0D6C189F1D7C18AF104D02A
:105FC000D8C189F1D9C18AF18B6B8C6B8C518B1143
:105FD0008A1104E1650E895DD8A009D08C518B111E
:105FE00006E1C50E895D3B0E8A59D8A004D0C40EC7
:105FF000896F3B0E58D0A9C122F022502202F3CF64
:1060000010F0F4CF11F0000E136E0A0E126ED0ECE9
:106010004BF010C01AF011C01BF022C010F0116A32
:10602000FF0E136E380E126ED0EC4BF010501A2685
:1060300011501B22140E1A241C6E050E1B201D6EFF
:106040001E6A1DBE1E061E501F6E010189511C24B2
:10605000896F8A511D208A6F8B511E208B6F8C5146
:106060001F2046D0030E5519D8A409D0CEC189F1FE
:10607000CFC18AF1D0C18BF1D1C18CF108D0D2C18E
:1060800089F1D3C18AF1D4C18BF1D5C18CF18C5186
:106090008B110EE1890E895D130E8A59D8B008D094
:1060A000880E896F130E8A6F000E8B6F000E20D042
:1060B000B5C110F0116AFE0E136E0C0E126ED0EC0C
:1060C0004BF0380E10241A6E180E11201B6E1C6A2D
:1060D0001BBE1C061C501D6E1A500101895D896F84
:1060E0001B508A598A6F1C508B598B6F1D508C59CD
:1060F0008C6F20508925166E21508A21176E000E54
:106100008B21186E000E8C21196E12000001D751E0
:10611000D8B4BAD08151D8A40CD0C80EE06F020E0A
:10612000E16F920EE26F020EE36F23EC2CF00001A0
:106130000AD0C80EE06F020EE16F920EE26F020EFF
:10614000E36F75EC3FF07E6F9EC27FF096C242F126
:1061500097C243F198C244F199C245F19AC248F1FD
:106160009BC249F1A0C27DF001017B05D8A41ED0DD
:1061700000017E51D8B444D07F513C18D8A440D0FF
:10618000010142513D183CE143513E1839E144516F
:106190003F1836E145514018D8A432D000017E5155
:1061A0003B18D8A42DD0000E446E39D000017E518A
:1061B000D8B426D07E513B18D8B40FD0A4BF05D098
:1061C000A4510BE1A305D8B008D0010148514118F2
:1061D00017E149514218D8A413D000017F513C184F
:1061E000D8A40ED0010142513D180AE143513E1896
:1061F00007E144513F1804E145514018D8B403D099
:10620000000E456ED0D70001A4BF05D0A45107E110
:10621000A305D8B004D0020E7D19D8B4F1D7000E72
:106220000001A46F0A0EA36F7EC03BF03B50D8B4B0
:1062300019D07F513C18D8A415D0010142513D1806
:1062400011E143513E180EE144513F180BE1455115
:106250004018D8A407D04851411804E149514218C8
:10626000D8B40ED07FC03CF042C13DF043C13EF0F7
:1062700044C13FF045C140F0A1C243F0000E446E5E
:1062800048C141F049C142F04504D8A403D0000EF2
:106290003B6E12003B50D8B41200FA0E446012005C
:1062A000442A12000001DD6F030E0101A66F090EE2
:1062B000A86F030EA76F000EAD6F000EAE6F000E3D
:1062C000AF6F010EB06F000EB16F000EB36F000E16
:1062D000B46F000EB56F000EB66F000EAC6F030EFC
:1062E000BA6F000EBB6F000EBD6F000EAC6F010EDB
:1062F000C16F0001DD51D8A415D0000E0101A96FB6
:10630000000EB76F000EBC6F000EAB6F000EB26FC9
:10631000050EBE6F030EBF6F000EB96F000EB86F93
:106320000A0E3BD0DD05D8A41CD0040E0101A76FD6
:10633000040EA66F040EA96F010EB76F010EBC6F9D
:10634000000EAB6F000EB26F050EBE6F030EBF6F77
:10635000000EB96F050EB86F000EAA6F000EC16F68
:106360001DD0020EDD19D8A419D0060E0101A76FA9
:10637000020EA66F000EA96F000EB76F000EBC6F65
:10638000000EAB6F020EB26F050EBE6F010EBF6F37
:10639000050EB96F000EB86F000EAA6F010E7FECEC
:1063A00048F0000E7FEC48F0000E0101DE6F000E99
:1063B000DF6F000EE06F000EE16F000EDA6F000E6F
:1063C000DB6F000EDC6F000EDD6F000ED76F000E6E
:1063D000D66F000ED96F000ED86F000ECE6F000E74
:1063E000CF6F000ED06F000ED16F000ED26F000E77
:1063F000D36F000ED46F000ED56F8DA48DB213D065
:106400008EA08DBA10D0000E916F000E926F000E0C
:10641000936F000E946F000EC86F000EC96F000ED0
:10642000CA6F000ECB6F020E7FEC48F0030E7FECBC
:1064300048F01200180E0001606F180E606F000E19
:10644000646F000E636F010E656F78EC4AF01CEC10
:106450004EF0F28EF28C0F0114871387DDEC4CF0B6
:10646000DFEC34F07FEC4CF0180E1C6E180EC3EC11
:106470004CF0020E916F0BD09251D8A408D07FEC53
:106480004CF0320E0001926F9107B4EC38F000012D
:106490009151D8A4F1D7BD0E126E020E136E000EEC
:1064A000156E000E146E000E166E9DEC46F0F10E89
:1064B000126E010E136E000E156E000E146E000E9D
:1064C000166E9DEC46F0E60E126E010E136E000E77
:1064D000156E000E146E000E166E9DEC46F0B20E98
:1064E000126E020E136E000E156E000E146E000E6C
:1064F000166E9DEC46F0000E0001986F140E976F1B
:10650000010E0101A16FFE0EA06F000E0001CE6F03
:10651000640ECD6F000ED06F000ECF6F000E010124
:10652000556F6CEC4DF00009D8B410D071EC47F009
:1065300022EEEFF0060EEBCFDBFFE806FCE2EF0EFB
:106540000001E06F020EE16F91EC07F00001925143
:10655000D8A4E7D7320E926F7FEC4CF0040E010105
:106560009E6103D0C0EC44F0DCD78AEC44F086ECAA
:1065700030F0F5EC4CF00101516FB4EC38F0AEECBA
:1065800039F0E0EC32F015EC2AF0DCEC27F008EC06
:1065900020F035EC48F0F10E0001ED6F010EEE6FCA
:1065A000BEEC17F0E60E0001E76F010EE86F61EC3C
:1065B0001EF001015129D8B4B4D7DDEC4CF0B1D7AD
:1065C000C4EC48F0B6EC37F049EC3CF0236E2350B5
:1065D00001018D6F8E6BB7EC2FF016C089F117C0DB
:1065E0008AF118C08BF119C08CF15551D8A410D084
:1065F000000E0001856F000E0101966F000E9A6F6C
:10660000000E996F000E0001C86F140EC76F1200C4
:106610003C51D8A45FD0000E0001C86F140EC76FA4
:1066200001018351236E8451246E256A266A23500A
:10663000895D24508A5925508B5926508C59D8B0E1
:106640003ED00001AABF05D0AA5139E1A905D8B0B2
:1066500036D00101A951D8B432D00001D2BF05D043
:10666000D2512DE1D105D8B02AD08551D8B40BD064
:1066700001014C51835D4D518459D8B004D0000EB6
:106680000001856F02D00001852B83C14CF184C1CC
:106690004DF1BEBF05D0BE5152E1BD05D8B01200CC
:1066A000010E85651200000E0101556F000E0001FC
:1066B000BA6FC80EB96F010E0101966F1200000E7D
:1066C0000001856F000E0101966F000E9A6F000E9B
:1066D000996F12008951855D8A5186598B5187596E
:1066E0008C518859D8B0EBD70001AABF05D0AA5168
:1066F000E6E1A905D8B0E3D7C8BF05D0C851DFE1AE
:10670000C705D8B0DCD70101B551D8B4D8D700013E
:10671000852BBEBF05D0BE5112E1BD05D8B0120019
:10672000020E85651200000E0101556F000E00017A
:10673000BA6FC80EB96F010E0101966F12001200F8
:10674000CE93F3EC46F094EC41F09251D8A492072A
:106750009051D8B402D0900785D0320E906F11ECD2
:1067600036F08951D8A402D0010E01D0000E896FF5
:1067700001017B51D8A434D06D516E116F1170118D
:10678000D8B408D06B51D8B405D06D07000E6E5B3D
:106790006F5B705B6B05D8A40ED03C05D8A404D009
:1067A00000018905D8A45ED0010E01017327000EF7
:1067B0007423752313D0020E6B19D8A453D03C0553
:1067C000D8A404D000018905D8A44CD0FF0E010143
:1067D0007327FF0E7423FF0E7523FF0E762342D01E
:1067E0006C05D8A41AD06B05D8A40AD09C05D8B4DF
:1067F00014D0010E1D27000E1E231F2320230DD0B1
:10680000020E6B19D8A409D09C05D8B406D0010E8D
:106810001927000E1A231B231C239C05D8A422D061
:106820007F05D8A41FD000018F51D8B402D08F07A4
:1068300019D00A0E8F6F01016B05D8A408D0222B46
:10684000010E1D27000E1E231F2320230BD0020E36
:106850006B19D8A407D0212B010E1927000E1A237B
:106860001B231C230201DD51DE11D8B4120001D814
:1068700012000500FA6EDD51FD6EDE51FE6EFF6AFC
:10688000FA501200020E0101C219D8B406D0020E4D
:106890007327000E7423752307D0FF0E7327FF0E96
:1068A0007423FF0E7523FF0E7623010E9CEC3AF045
:1068B00001017351295C74512A5875512B582C5081
:1068C000800A0001D86F01017651800A0001D85971
:1068D000D8B009D0020E0101C219D8B404D0010EFB
:1068E0009CEC3AF01BD0030E9CEC3AF029500101CD
:1068F000735D2A5074592B5075597651800A0001E6
:10690000D86F2C50800AD859D8B010D0020E01018F
:10691000C219D8B40BD0030E9CEC3AF029C073F125
:106920002AC074F12BC075F12CC076F10101A6517B
:106930000A0DF3CFD8F0F4CFD9F0000E0001D9BF83
