:040000004EEF00F0CF
:100008005082FACF0AF0FBCF0BF0D9CF0CF0DACF41
:100018000DF0F3CF0EF0F4CF0FF00E01C2BBCAAB58
:1000280003D0F8EC46F028D0F2AC26D0C5B9CDA95B
:1000380009D001D821D00500FA6E0201EB51FD6EFE
:10004800EC510BD0C5BBCDAB0CD001D815D00500F9
:10005800FA6E0201E951FD6EEA51FE6EFF6AFA502E
:100068001200C6B1CEA103D087EC44F005D0C6B3C8
:10007800CEA302D0CCEC2FF00FC0F4FF0EC0F3FFDC
:100088000DC0DAFF0CC0D9FF0BC0FBFF0AC0FAFF96
:080098005092110047EF38F00F
:100F000000B2911E9110915A77F87BA891A481FCB0
:100F100091F491EC91E491DC91D491CC919E915E0D
:100F20008600A2D020EE04F0E951D926EA51DA2257
:100F3000DE04DE10D8A406D0E9C0D9FFEAC0DAFF8B
:100F4000010E4CD020EE04F0E951D926EA51DA2204
:100F5000050EDE18DE10D8A406D0E9C0D9FFEAC01D
:100F6000DAFF030E3BD020EE04F0E951D926EA5116
:100F7000DA22080EDE18DE10D8A406D0E9C0D9FFA8
:100F8000EAC0DAFF040E2AD020EE04F0E951D92697
:100F9000EA51DA22140EDE18DE10D8A487D0E9C098
:100FA000D9FFEAC0DAFF060E19D020EE04F0E951AD
:100FB000D926EA51DA22020EDE18DE10D8A406D0B5
:100FC000E9C0D9FFEAC0DAFF020E08D020EE04F033
:100FD000E951D926EA51DA22030E3BD0DE6E000E2B
:100FE000DD6E64D020EE04F0E951D926EA51DA2210
:100FF000040EDE18DE10D8A4E9D72FD020EE04F0BE
:10100000E951D926EA51DA22080EDE18DE10D8A4FA
:10101000DDD7E9C0D9FFEAC0DAFF050EDFD720EE41
:1010200004F0E951D926EA51DA22090EDE18DE1061
:10103000D8A408D0E9C0D9FFEAC0DAFF040EDE6EFA
:10104000000EDD6E20EE04F0E951D926EA51DA22D5
:10105000040EDE18DE10D8A429D0E9C0D9FFEAC0FA
:10106000DAFF000EBBD7FFD7E9C0D9FFEAC0DAFF2D
:10107000DF50EB6FEC6BEC51000AD8A4F4D7EB51C6
:10108000000AD8B44FD7010AD8B48FD7030AD8B40E
:10109000D9D7010AD8B4A6D7070AD8B4AFD7010A5E
:1010A000D8B4BDD7030AD8B4CDD7DDD7BB0E126EE6
:1010B000020E136E000E156E000E146E01EC41F060
:1010C000BFD3060E01013B19D8A42FD0000EAB6F81
:1010D000C80EAA6F010E406F000E686F68C13AF02B
:1010E0006651D2EC14F00009D8B41200BB0E126E97
:1010F000020E136E000E156E080E146E01EC41F018
:101100000A0E106E4950C5EC44F0F60DF350492418
:101110001C6E000E1E6E140E1D6E0A0E106E4950CF
:10112000C5EC44F054EC48F01200050E3B19D8A46D
:101130002FD0000EAB6FC80EAA6F010E406F010ECC
:10114000686F68C13AF06651D2EC14F00009D8B467
:101150001200BB0E126E020E136E000E156E080EFC
:10116000146E01EC41F00A0E106E4950C5EC44F0CB
:10117000F60DF35049241C6E000E1E6E140E1D6EEB
:101180000A0E106E4950C5EC44F054EC48F01200C1
:101190004D50D8A423D0000EAB6F640EAA6F6851D7
:1011A000D8A403D06705686F01D068076851020DA5
:1011B000520EF324D96E010EF420DA6EDF501C6E4D
:1011C0006851020D510EF324D96E010EF420DA6E2F
:1011D000DF50B9EC47F0010E4F6E1200170E4D189C
:1011E000D8A421D0000EAB6F640EAA6F682B675194
:1011F000685DD8A002D0000E686F6851020D520ED3
:10120000F324D96E010EF420DA6EDF501C6E6851A3
:10121000020D510EF324D96E010EF420DA6EDF5068
:10122000B9EC47F0D8D70C0E66619AD04D50D8A4CF
:1012300053D00A0E4E6450D0000EAB6F640EAA6FEE
:1012400068C13AF06651D2EC14F00009D8B4C3D7A3
:10125000BB0E126E020E136E000E156E010E146E92
:1012600001EC41F0980E1C0F0001EB6FEB51471899
:1012700001E14852D8B409D0980E1B0FEB6FEB5127
:10128000471801E14852D8A416D04950020D520E19
:10129000F324D96E010EF420DA6EDF501C6E495033
:1012A000020D510EF324D96E010EF420DA6EDF50D8
:1012B000B9EC47F090D70A0E106E4950C5EC44F0D7
:1012C000F60DF35049241C6E0A0E106E4950C5EC01
:1012D00044F0B9EC47F07FD7ABBF08D0AB5103E186
:1012E000AA05D8A003D04D50D8A41ED0020E666126
:1012F0001BD0000EAB6F000EAA6FEF0E126E010E28
:10130000136E000E156E070E146E01EC41F0180EF0
:101310001C6E180EB9EC47F0000E0101696F010E4A
:101320004F6E09EC49F01200ABBF08D0AB5103E19E
:10133000AA05D8A003D04D50D8A404D065515AECCA
:101340001EF049D7ABBF05D0AB5102E1AA05D8B01A
:101350001200010E6665120065515AEC1EF03BD773
:10136000270E4D18D8A432D00A0E4E642FD00D0E81
:101370006619D8B42BD0000EAB6F640EAA6F68C18B
:101380003AF06651D2EC14F00009D8B424D7BB0E61
:10139000126E020E136E000E156E080E146E01EC26
:1013A00041F00A0E106E4950C5EC44F0F60DF350B2
:1013B00049241C6E000E1E6E140E1D6E0A0E106E59
:1013C0004950C5EC44F054EC48F005D70D0E6619B1
:1013D000D8A427D0A851A911D8A423D0000E000169
:1013E000B86F000EB96F000EBE6F020EE2EC44F053
:1013F000EF0E126E010E136E000E156E070E146EB8
:1014000001EC41F0180E1C6E180EB9EC47F0010EFD
:101410004F6E09EC49F0000E0101AB6F000EAA6F90
:101420001200ABBF08D0AB5103E1AA05D8A003D08E
:101430004D50D8A41200EF0E126E010E136E000E66
:10144000156E070E146E01EC41F0180E1C6E180E8E
:10145000B9EC47F009EC49F0010E4F6EDCD74D5066
:10146000D8A447D0000E0101AB6F640EAA6F49509B
:101470004B5CD8A003D04AC049F001D04906980E71
:101480001C0F0001EB6FEB51471801E14852D8B433
:1014900009D0980E1B0FEB6FEB51471801E1485232
:1014A000D8A416D04950020D520EF324D96E010E65
:1014B000F420DA6EDF501C6E4950020D510EF324F9
:1014C000D96E010EF420DA6EDF50B9EC47F083D606
:1014D0000A0E106E4950C5EC44F0F60DF350492445
:1014E0001C6E0A0E106E4950C5EC44F0B9EC47F082
:1014F00072D6170E4D18D8A445D0000E0101AB6F5F
:10150000640EAA6F492A49504A5CD8A04BC049F0E2
:10151000980E1C0F0001EB6FEB51471801E1485288
:10152000D8B409D0980E1B0FEB6FEB51471801E1AF
:101530004852D8A416D04950020D520EF324D96E49
:10154000010EF420DA6EDF501C6E4950020D510E70
:10155000F324D96E010EF420DA6EDF50B9EC47F0B7
:101560003AD60A0E106E4950C5EC44F0F60DF35011
:1015700049241C6E0A0E106E4950C5EC44F0B9ECBB
:1015800047F029D64D50D8A423D0090E4E6420D060
:10159000000E0101AB6F640EAA6F47C0D9FF48C0AF
:1015A000DAFF49C0DFFFBB0E126E020E136E000E93
:1015B000156E020E146E01EC41F0010E1C6E190E38
:1015C000B9EC47F0000E0101A96F280EA86F03D6F1
:1015D0000101ABBF08D0AB5103E1AA05D8A003D0ED
:1015E0004D50D8A41200000EAB6F640EAA6F665166
:1015F0005AEC1EF0BB0E126E020E136E000E156E2C
:10160000030E146E01EC41F0E6D50101A9BF05D02F
:10161000A95102E1A805D8B01200000EAB6F640E0C
:10162000AA6F6605D8A404D0080E6819D8B40AD0E9
:10163000980E1C0F0001EB6FEB51471801E1485267
:10164000D8A405D00001B4518CEC2DF023D00101B9
:101650006605D8B404D00A0E6619D8A404D0010EC9
:10166000E2EC44F017D06805D8A40ED047C0D9FFEB
:1016700048C0DAFFDF50D8B407D0060E6619D8A4E8
:1016800003D0090E00019A6F010EE2EC44F0000E47
:10169000E2EC44F0BB0E126E020E136E000E156EDD
:1016A000040E146E01EC41F00101682B020E66611C
:1016B00005D0692B66515AEC1EF012006751685D27
:1016C000D8A005D0692B65515AEC1EF01200665166
:1016D0005AEC1EF012000101ABBF05D0AB5102E184
:1016E000AA05D8B012000001F851F911D8A410D001
:1016F0000101692B66515AEC1EF0BB0E126E020EF0
:10170000136E000E156E040E146E01EC41F0120003
:10171000000E0101AB6F3C0EAA6FFAC110F0FBC1C5
:1017200011F0FCC112F0FDC113F0F8C014F0F9C0C3
:1017300015F0166A176AFEEC3CF01050496EF8C0BE
:1017400014F0F9C015F0166A176AFAC110F0FBC15F
:1017500011F0FCC112F0FDC113F0FEEC3CF010C022
:101760001DF011C01EF012C01FF013C020F0F8C011
:1017700021F0F9C022F0236A246A0FEC42F01D50D8
:101780000101FA5DFA6F1E50FB59FB6F1F50FC59A7
:10179000FC6F2050FD59FD6FF8C010F0F9C011F03A
:1017A000000E136E640E126E8FEC42F010C0F8F053
:1017B00011C0F9F00A0E106E4950C5EC44F0F60D58
:1017C000F35049241C6E000E1E6E0A0E1D6E0A0E8A
:1017D000106E4950C5EC44F054EC48F01200010181
:1017E000FE05D8A404D0000E496E000EFE6F4CEC2E
:1017F00019F01200A2EC38F012004AEC45F0010199
:101800002651D8A41200EF0E126E010E136E000EB8
:10181000156E070E146E01EC41F0BB0E126E020E37
:10182000136E000E156E040E146E01EC41F0180ECE
:101830001C6E180EB9EC47F0020EE2EC44F0E9D54C
:10184000E9C0D9FFEAC0DAFFDF500001EB6FEC6BB3
:10185000EC51000AD8A41200EB51000AD8B431D4DC
:10186000010AD8B4FCD5030AD8B4CFD6010AD8B43B
:1018700032D7070AD8B4B3D7010AD8B4BBD7030A02
:10188000D8A41200BAD7A5EC28F03A6EB8D020EE52
:1018900004F0DC51D926DD51DA220A0EDE18DE1002
:1018A000D8A40DD0A751D8B40AD001012A51D8A488
:1018B00006D0DCC0D9FFDDC0DAFF020E8AD00001FD
:1018C00020EE04F0DC51D926DD51DA220A0EDE18B2
:1018D000DE10D8A40DD0A751D8B404D001012A0538
:1018E000D8A406D0DCC0D9FFDDC0DAFF040E71D069
:1018F000000120EE04F0DC51D926DD51DA220B0E76
:10190000DE18DE10D8A49BD0DCC0D9FFDDC0DAFF22
:10191000010E5FD020EE04F0DC51D926DD51DA2231
:101920000A0EDE18DE10D8A407D0A751D8B404D010
:1019300001012A51D8B4BDD7000120EE04F0DC51DA
:10194000D926DD51DA220A0EDE18DE10D8A407D01F
:10195000A751D8B4C7D701012A05D8B4C3D700010D
:1019600020EE04F0DC51D926DD51DA22100EDE180B
:10197000DE10D8A464D03CD020EE04F0DC51D9268F
:10198000DD51DA220B0EDE18DE10D8A4E9D7DCC058
:10199000D9FFDDC0DAFF030E1CD020EE04F0DC51CD
:1019A000D926DD51DA220A0EDE18DE10D8A4D8D7E7
:1019B00099D720EE04F0DC51D926DD51DA220B0E46
:1019C000DE18DE10D8A4CCD7DCC0D9FFDDC0DAFF2A
:1019D000050EDE6E000EDD6E32D020EE04F0DC511E
:1019E000D926DD51DA220A0EDE18DE10D8A4B8D7C7
:1019F000DCC0D9FFDDC0DAFF000EEBD7FFD7DCC0BB
:101A0000D9FFDDC0DAFFDF500001DE6FDF6BDF5191
:101A1000000AD8A4F3D7DE51000AD8B438D7010A97
:101A2000D8B478D7030AD8B4A7D7010AD8B4B5D7A1
:101A3000070AD8B4BED7010AD8B4CFD7DFD7B00EC3
:101A4000126E020E136E000E156E000E146E01EC77
:101A500041F080D201010305D8A43AD0010E000163
:101A6000816FB00E126E020E136E000E156E0A0E0E
:101A7000146E01EC41F0010E0101006FBEEC3DF06F
:101A8000A751D8B416D001012A51D8A412D0010E02
:101A9000D36F2C0ED26F000ED16F780ED06F000E68
:101AA000E16F140EE06F010E476F000E0001816FB1
:101AB0001200000E0101476F000ED16F500ED06F63
:101AC000000EE16F140EE06F000E0001816F120036
:101AD000B00E126E020E136E000E156E0B0E146E0B
:101AE00001EC41F0030E0101006F010E476F12007F
:101AF00001010305D8B40ED000018105D8B40AD085
:101B00004D50D8B403D03A04D8A428D001012A05F6
:101B1000D8A424D0010E0001816F000E0101006FD6
:101B2000C1BF05D0C15102E1C005D8B01200B00E4E
:101B3000126E020E136E000E156E0A0E146E01EC7C
:101B400041F0010E0101006FBEEC3DF0A751D8B489
:101B5000B0D701012A51D8B49AD7ABD701010051AF
:101B6000D8A403D03AEC40F01200000EC16F280E4A
:101B7000C06F120001010405D8A4D3BF09D0D3510E
:101B800003E1D205D8A004D000018105D8A42AD051
:101B9000010E0001816F000E0101006FC1BF05D071
:101BA000C15102E1C005D8B01200B00E126E020E93
:101BB000136E000E156E0B0E146E01EC41F0030E49
:101BC0000101006F000ED36F640ED26F000ED16F53
:101BD000640ED06F000EE16F140EE06F000E000176
:101BE000816F120001010051D8B4BCD7000EC16F43
:101BF000280EC06FE1BF05D0E15102E1E005D8B089
:101C00001200D1BF1200D15103E1D005D8A01200BB
:101C10006EC010F06FC011F0126A136A30C114F078
:101C200031C115F032C116F033C117F0A1EC40F00C
:101C300010C06EF011C06FF0120001010305D8B49E
:101C400004D000018105D8A420D0010E0001816FCD
:101C5000000E0101006FC1BF05D0C15102E1C005F6
:101C6000D8B01200B00E126E020E136E000E156E7A
:101C70000A0E146E01EC41F0010E0101006F000E1E
:101C8000476F000ED16F3C0EA4D701010051D8B4AC
:101C900069D7000EC16F280EC06FE1BF05D0E151BA
:101CA00002E1E005D8B01200D1BF1200D15103E12A
:101CB000D005D8A0120070C010F071C011F0126AE7
:101CC000136A30C114F031C115F032C116F033C1BE
:101CD00017F0A1EC40F010C070F011C071F01200CC
:101CE00001010405D8B411D000018105D8B40DD08C
:101CF00001014705D8A42CD04D50D8B403D03A04E4
:101D0000D8A426D02A05D8A423D0000E0101176F2D
:101D1000000E476F010E0001816F000E0101006F80
:101D2000C1BF05D0C15102E1C005D8B01200B00E4C
:101D3000126E020E136E000E156E0B0E146E01EC79
:101D400041F0030E0101006F000ED16F500E41D71C
:101D50000051D8B407D74D50D8B403D03A04D8A412
:101D60000FD02A05D8A40CD04751D8A409D0010E11
:101D7000476F010E4F6E000ED16F500ED06F1200E4
:101D80004705D8A40CD0000EC16F280EC06FD1BF7C
:101D90001200D15103E1D005D8A0120039D7010EAD
:101DA000176F000EC16F280EC06FE1BF05D0E15163
:101DB00002E1E005D8B01200D1BF1200D15103E119
:101DC000D005D8A012006AC010F06BC011F0126AE2
:101DD000136A2EC114F02FC115F0166A176AA1EC10
:101DE00040F010C06AF011C06BF012000101030551
:101DF000D8B40CD04705D8A46FD04D50D8B403D078
:101E00003A04D8A469D02A05D8A466D0010E1C6F64
:101E1000000E176F000E476F000E006FB00E126EAF
:101E2000020E136E000E156E0A0E146E01EC41F0D8
:101E3000E40E126E010E136E000E156E130E146E6C
:101E400001EC41F060C0D0F061C0D1F062C0D2F0CE
:101E500063C0D3F064C0CCF065C0CDF066C0CEF0F6
:101E600067C0CFF001012A05D8A405D068C099F059
:101E700069C098F005D0040E0001996F040E986FA8
:101E80006CC0C8F06DC0C9F06AC0CAF06BC0CBF0BE
:101E90006EC0C4F06FC0C5F00001C66BC76B70C0E8
:101EA000C0F071C0C1F0C26BC36B000EE2EC44F035
:101EB000030EE2EC44F0020EE2EC44F0000E0101ED
:101EC000266F000E1E6F000E1F6F000E206F000E9B
:101ED000216F000E486F12000051D8B443D64D5008
:101EE000D8B403D03A04D8A403D02A05D8B43FD735
:101EF0004705D8A408D0D1BF1200D15103E1D005C5
:101F0000D8A01200D8D6010E176F000EC16F280E90
:101F1000C06FE1BF05D0E15102E1E005D8B0120089
:101F2000D1BF1200D15103E1D005D8A012006CC07E
:101F300010F06DC011F0126A136A2EC114F02FC197
:101F400015F0166A176AA1EC40F010C06CF011C0D1
:101F50006DF01200DCC0D9FFDDC0DAFFDF500001F8
:101F6000DE6FDF6BDF51000AD8A41200DE51000AD9
:101F7000D8B470D5010AD8B4BBD5030AD8B4FAD501
:101F8000010AD8B45AD6070AD8B4AAD6010AD8A4E6
:101F900012002CD753D08551D8A466D020EE04F07F
:101FA000ED51D926EE51DA22060EDE18DE10D8A445
:101FB00006D0EDC0D9FFEEC0DAFF010E1DD020EE35
:101FC00004F0ED51D926EE51DA22110EDE18DE10A2
:101FD000D8A44AD0EDC0D9FFEEC0DAFF020E0CD073
:101FE00020EE04F0ED51D926EE51DA22070EDE186C
:101FF000DE10D8A439D00FD0DE6E000EDD6E34D0E6
:1020000020EE04F0ED51D926EE51DA22070EDE184B
:10201000DE10D8A406D0EDC0D9FFEEC0DAFF000E66
:10202000EBD720EE04F0ED51D926EE51DA22060E60
:10203000DE18DE10D8A418D0BCD7FFD7EDC0D9FF6A
:10204000EEC0DAFFDF50EF6FF06BF051000AD8A45A
:10205000F4D7EF51000AD8B49ED7010AD8B4C0D73C
:10206000030AD8B4CDD7E9D7EF0E126E010E136E66
:10207000000E156E000E146E01EC41F0F8D14D50BB
:10208000D8A416D0640E4E6413D0010E5AEC1EF084
:10209000EF0E126E010E136E000E156E060E146E0C
:1020A00001EC41F0010E4F6E000E0001806F120036
:1020B0004D50D8A40BD0140E4E6408D0000E1C6EE8
:1020C000100EB9EC47F0010E806F12008005D8A405
:1020D00004D0000E5AEC1EF0DBD7270E4D18D8A402
:1020E00007D0780E4E6404D00D0E5AEC1EF0D0D7F7
:1020F000270E4D18D8A40BD0140E4E6408D0130E22
:102100001C6E050EB9EC47F0020E806F1200020E35
:102110008019D8A404D00C0E5AEC1EF0B9D74D503B
:10212000D8A409D001010351D8A405D0010E096F2C
:10213000030E006F1200170E4D18D8A409D001012C
:102140000451D8A405D0010E096F010E006F1200D2
:1021500001010905D8A405D0000E096F000E006F1B
:102160001200060E3B18D8B404D0050E3B18D8A4B4
:1021700015D0630E446412D00C0E5AEC1EF0EF0E14
:10218000126E010E136E000E156E060E146E01EC2B
:1021900041F03BC03BF1010E456E1200A9BF05D0D6
:1021A000A95111E1A805D8B012000305D8A406D0A2
:1021B0000C0E1C6E0F0EB9EC47F01200180E1C6EC0
:1021C000180EB9EC47F01200BB0EE96F020EEA6F71
:1021D00091EC07F01200000E01018D6F040EE4195E
:1021E000E511D8A413D00001A405D8A407D001019B
:1021F0005005D8A403D0010E8D6F08D00001A405AE
:10220000D8B404D001012351D8A4F5D7010100515D
:10221000D8A469D0040EE419E511D8A403D08D51D7
:10222000D8B408D0E405E511D8B404D0E451E511E0
:10223000D8A459D04D50D8A415D0640E4E6412D0F5
:10224000010E5AEC1EF0EF0E126E010E136E000E10
:10225000156E060E146E01EC41F0010E4F6E000E6D
:10226000000137D04D50D8A40AD0140E4E6407D0C8
:10227000000E1C6E100EB9EC47F0010E2AD00001C2
:102280008005D8A40ED0000E5AEC1EF0010E4F6E41
:10229000000E0001806F000E0101F06F010EEF6F64
:1022A0001200270E4D18D8A407D0780E4E6404D023
:1022B0000D0E5AEC1EF0C7D7270E4D18D8A40BD020
:1022C000140E4E6408D0130E1C6E050EB9EC47F0C8
:1022D000020E806F08D0020E8019D8A404D00C0E14
:1022E0005AEC1EF0D5D60101A9BF05D0A95102E1D3
:1022F000A805D8B012004D50D8B41200270E4D18C2
:10230000D8B41200030E0019D8A411D0120E1C6EFE
:10231000000E1E6E0A0E1D6E0C0E54EC48F0000EE0
:102320000101A96F040EA86F000E4F6F1200020E7C
:102330000019D8B403D00005D8A40AD0100E1C6E22
:10234000000E1E6E0A0E1D6E000E54EC48F0E7D70C
:102350000051D8A40FD0E405E511D8A40BD0EF0E9E
:10236000126E010E136E000E156E070E146E01EC48
:1023700041F012000051D8A474D0040EE419E51104
:10238000D8A46FD00001A405D8B40BD0010123510B
:10239000D8B407D00B05D8B413D0030E0B19D8B49A
:1023A0000FD00001A405D8A426D001015005D8A45F
:1023B00022D0020E0B19D8B41ED02351D8B41BD092
:1023C000000EA96F0A0EA86F4F05D8A40AD0100EF0
:1023D0001C6E000E1E6E0A0E1D6E0A0E54EC48F0A6
:1023E00012000F0E1C6E000E1E6E0A0E1D6E0A0EDF
:1023F00054EC48F012000001A405D8B408D0010143
:102400002351D8B404D0020E0B19D8B40CD000015B
:10241000A405D8A416D001015005D8A412D0020EEC
:102420000B19D8A40ED0000EA96F0A0EA86F100EBB
:102430001C6E000E1E6E0A0E1D6E0A0E54EC48F045
:10244000120001010405D8A406D0000E1C6E0F0E68
:10245000B9EC47F01200180E1C6E180EB9EC47F0DC
:102460001200180E1C6E180EB9EC47F01200EDC0E9
:10247000D9FFEEC0DAFFDF500001EF6FF06BF051D3
:10248000000AD8A41200EF51000AD8B4F8D5010A06
:10249000D8B49AD6030AD8A412009DD603D21850F5
:1024A000D96EDA6A030ED92699C0DFFF1850D96EAB
:1024B000DA6A020ED92698C0DFFF1850D96EDA6AA0
:1024C00000EE11F0060EDBCFEBFFE806FCE28FEC2E
:1024D00045F012001850D96EDA6A030ED9269BC057
:1024E000DFFF1850D96EDA6A020ED9269AC0DFFFD4
:1024F000E4D71850D96EDA6A030ED9269CC0DFFFE4
:10250000F9D01850D96EDA6A030ED9269EC0DFFFC3
:102510001850D96EDA6A020ED9269DC0DFFFCDD7DA
:102520001850D96EDA6A030ED926A0C0DFFF185002
:10253000D96EDA6A020ED9269FC0DFFFBED71850C7
:10254000D96EDA6A030ED926A2C0DFFF1850D96E01
:10255000DA6A020ED926A1C0DFFFAFD71850D96EB4
:10256000DA6A030ED926A3C0DFFFC4D01850D96E93
:10257000DA6A030ED926A4C0DFFFBCD01850D96E8A
:10258000DA6A030ED926A5C0DFFFB4D01850D96E81
:10259000DA6A030ED926A6C0DFFFACD01850D96E78
:1025A000DA6A030ED926A7C0DFFFA4D01850D96E6F
:1025B000DA6A030ED926A8C0DFFF9CD01850D96E66
:1025C000DA6A030ED926A9C0DFFF94D01850D96E5D
:1025D000DA6A030ED926ABC0DFFF1850D96EDA6A6B
:1025E000020ED926AAC0DFFF68D71850D96EDA6A62
:1025F000030ED926ACC0DFFF7DD01850D96EDA6A41
:10260000030ED926ADC0DFFF75D01850D96EDA6A37
:10261000030ED926AEC0DFFF6DD01850D96EDA6A2E
:10262000030ED926AFC0DFFF65D01850D96EDA6A25
:10263000030ED926B0C0DFFF5DD01850D96EDA6A1C
:10264000030ED926B1C0DFFF55D01850D96EDA6A13
:10265000030ED926B3C0DFFF4DD01850D96EDA6A09
:10266000030ED926B4C0DFFF45D01850D96EDA6A00
:10267000030ED926B9C0DFFF1850D96EDA6A020EF0
:10268000D926B8C0DFFF19D720EEBCF01850E16E94
:10269000E26A020EE126DECFE6FFDDCFE5FF18504D
:1026A000D96EDA6A00EE11F0060EDBCFEBFFE8061A
:1026B000FCE28FEC45F020EEBAF01850E16EE26AD1
:1026C000020EE126DECFE6FFDDCFE5FF1850D96E22
:1026D000DA6A00EE11F0060EDBCFEBFFE806FCE253
:1026E0008FEC45F012001850D96EDA6A030ED92625
:1026F000BEC0DFFF1850D96EDA6A020ED926000E6E
:10270000DF6EDBD620EEC2F01850E16EE26A020EF8
:10271000E126DECFE6FFDDCFE5FF1850D96EDA6A9D
:1027200000EE11F0060EDBCFEBFFE806FCE28FECCB
:1027300045F020EEC0F01850E16EE26A020EE1268C
:10274000DECFE6FFDDCFE5FF1850D96EDA6A00EE86
:1027500011F0060EDBCFEBFFE806FCE28FEC45F054
:10276000120020EEC6F01850E16EE26A020EE12679
:10277000DECFE6FFDDCFE5FF1850D96EDA6A00EE56
:1027800011F0060EDBCFEBFFE806FCE28FEC45F024
:1027900020EEC4F01850E16EE26A020EE126DECFB0
:1027A000E6FFDDCFE5FF1850D96EDA6A00EE11F0D2
:1027B000060EDBCFEBFFE806FCE28FEC45F01200E3
:1027C0001850D96EDA6A020ED926C8C0DEFFC9C019
:1027D000DDFF73D61850D96EDA6A020ED926CAC048
:1027E000DEFFCBC0DDFF69D620EECEF01850E16EE3
:1027F000E26A020EE126DECFE6FFDDCFE5FF1850EC
:10280000D96EDA6A00EE11F0060EDBCFEBFFE806B8
:10281000FCE28FEC45F020EECCF01850E16EE26A5D
:10282000020EE126DECFE6FFDDCFE5FF1850D96EC0
:10283000DA6A00EE11F0060EDBCFEBFFE806FCE2F1
:102840008FEC45F0120020EED2F01850E16EE26AF3
:10285000020EE126DECFE6FFDDCFE5FF1850D96E90
:10286000DA6A00EE11F0060EDBCFEBFFE806FCE2C1
:102870008FEC45F020EED0F01850E16EE26A020EC7
:10288000E126DECFE6FFDDCFE5FF1850D96EDA6A2C
:1028900000EE11F0060EDBCFEBFFE806FCE28FEC5A
:1028A00045F012001850D96EDA6A010ED926DF50B1
:1028B000196E1A6A1A50000AD8A412001950000A98
:1028C000D8B4EDD5020AD8B41CD6010AD8B48DD636
:1028D000060AD8B425D6020AD8B470D60F0AD8B4DE
:1028E000ACD6020AD8B489D61A0AD8B4D8D5010A07
:1028F000D8B4F0D5030AD8B4FCD5010AD8B401D6AF
:10290000070AD8B40DD6010AD8B419D6030AD8B428
:1029100025D6010AD8B42AD60F0AD8B42FD6010A70
:10292000D8B434D6030AD8B439D6010AD8B43ED6BE
:10293000070AD8B443D6010AD8B448D6030AD8B493
:1029400054D6010AD8B459D63F0AD8B45ED6010A83
:10295000D8B463D6030AD8B468D6010AD8B46DD601
:10296000070AD8B472D6010AD8B477D6030AD8B405
:102970007CD6010AD8B488D60E0AD8B4B4D6030AD5
:10298000D8B4C0D6060AD8B4ECD6020AD8B418D740
:10299000010AD8B41FD71F0AD8B426D7020AD8A470
:1029A000120051D70001DE6F000E0001DF6F36D23A
:1029B00068C169F1000E4B6E34D0040E5AEC1EF063
:1029C00056D2050E5AEC1EF052D2060E5AEC1EF0EC
:1029D0004ED2630E4A6E9CC049F09C0E476E486A08
:1029E000010EDF6F44D2070E5AEC1EF040D2080EE3
:1029F0005AEC1EF03CD2090E5AEC1EF038D2020EF0
:102A00004A6EA4C049F0A40EE9D7030E4A6EA5C0D1
:102A100049F0A50EE3D7010E4A6EA6C049F0A60EF6
:102A2000DDD73A50DC6FDD6BDD51000AD8A41FD230
:102A3000DC51000AD8B4C1D7010AD8B4C2D7030AFE
:102A4000D8B4C3D7010AD8B4C4D7070AD8B4CBD7EF
:102A5000010AD8B4CCD7030AD8B4CDD7010AD8B468
:102A6000CED70F0AD8B4D1D7010AD8B4D4D7FFD162
:102A700068C169F1010E4A6E000E4B6E57D00A0E06
:102A80005AEC1EF0F4D10B0E5AEC1EF0F0D1630E8E
:102A90004A6EACC049F0AC0EA1D7090E4A6E010EC9
:102AA0004B6EADC049F0AD0E99D7AFC049F0AF0E37
:102AB00095D7090E4A6E010E4B6EB0C049F0B00EAC
:102AC0008DD7000E496E000E0101AB6F000EAA6F8C
:102AD000270E0001F96F100EF86F000E0101C36F91
:102AE000000EC26F3CC1FAF13DC1FBF13EC1FCF1E9
:102AF0003FC1FDF1BB0E126E020E136E000E156E7D
:102B0000050E146E01EC41F0B2D1000E496E010EBB
:102B1000DF6F000E476E000E486EA9D1030E4A6E9D
:102B2000000E4B6EB1C049F0B10E58D73A50DC6F71
:102B3000DD6BDD51000AD8A49AD1DC51000AD8B46B
:102B40009ED7010AD8B49FD7030AD8B4A0D7010AE8
:102B5000D8B4A3D7070AD8B48AD1010AD8B4A5D764
:102B6000030AD8B4A6D7010AD8B4ABD70F0AD8B491
:102B7000CCD7010AD8B4D2D77AD1BB0E126E020ECE
:102B8000136E000E156E140E146E01EC41F0E40E7F
:102B9000126E010E136E000E156E140E146E01EC03
:102BA00041F0010E0101266F000E2A6F010EE2ECCA
:102BB00044F05DD1BB0E126E020E136E000E156E48
:102BC000140E146E01EC41F0E40E126E010E136E41
:102BD000000E156E140E146E01EC41F0010E010191
:102BE000266F010E2A6F010EE2EC44F040D1B4C012
:102BF00049F0030E5AEC1EF0B40E476E486A010EFF
:102C00000001DF6F020E4A6E000E4B6E30D1B3C072
:102C100049F0020E5AEC1EF0B30E476E486A010EE0
:102C20000001DF6F010EEFD73A50DC6FDD6BDD5135
:102C3000000AD8A41CD1DC51000AD8B49ED7010ADE
:102C4000D8B4B8D7030AD8B4D2D7010AD8B4DFD7DA
:102C50000ED1980E01D0990E476E486A0ED03A50A8
:102C6000DC6FDD6BDD51000AD8A407D0DC51000A0F
:102C7000D8B4EFD7010AD8B4EED72D0E4A6E000EA5
:102C80004B6E010EDF6F47C0D9FF48C0DAFFDF503F
:102C9000496EEDD0090E4A6E000E4B6E0FD0020E3B
:102CA0009B6102D0000E01D0090E4B6E9A0E03D02C
:102CB0009B0E01D0A70E476E486AE3D73A50DC6FEF
:102CC000DD6BDD51000AD8A4DCD7DC51000AD8B492
:102CD000E6D7010AD8B4ECD7030AD8B4EBD7D1D7DA
:102CE0009D0E01D09E0E476E486A0ED03A50DC6FA2
:102CF000DD6BDD51000AD8A407D0DC51000AD8B43E
:102D0000EFD7010AD8B4EED7630EB8D79F0E34D0F0
:102D1000A00E32D03A50DC6FDD6BDD51000AD8A432
:102D20002DD0DC51000AD8B4F1D7010AD8B4F0D7BD
:102D300025D0A10E21D0A20E1FD0A30E1DD0AE0E05
:102D40001BD03A50DC6FDD6BDD51000AD8A416D0E1
:102D5000DC51000AD8B4EDD7010AD8B4ECD7030A85
:102D6000D8B4EBD7010AD8B4EAD708D0A80E476E7A
:102D7000486A020E83D7A90E476E486A010E7ED7B5
:102D80003A50DC6FDD6BDD51000AD8A47AD7DC51F4
:102D9000000AD8B4EBD7010AD8B4EDD772D7AA0E7F
:102DA000476E486A090E6AD7AB0EFAD73A50DC6F05
:102DB000DD6BDD51000AD8A464D7DC51000AD8B419
:102DC000EED7010AD8B4F0D75CD7B80E01D0B90E4F
:102DD000476E486A0ED03A50DC6FDD6BDD51000A59
:102DE000D8A407D0DC51000AD8B4EFD7010AD8B470
:102DF000EED747C0D9FF48C0DAFFDF504A6E000E59
:102E0000466E000E4B6E010EDF6F47C0D9FF48C003
:102E1000DAFFDF50496EACEC47F029D0DE51DC6FB1
:102E2000DD6BDD51000AD8A422D0DC51000AD8B4F1
:102E3000BFD5010AD8B41CD6050AD8B4F5D6010A04
:102E4000D8B40DD7030AD8B425D7010AD8B44ED7C1
:102E50000F0AD8B45FD7010AD8B473D7030AD8B41D
:102E60008FD7010AD8B4A2D7070AD8B4B4D70001C3
:102E7000DF51120011C01FF0206A000E226E100EEA
:102E8000216E80D112C098F013C099F0120012C0C8
:102E90009AF013C09BF0120013C09CF0120012C0F5
:102EA0009DF013C09EF0120012C09FF013C0A0F05E
:102EB000120012C0A1F013C0A2F0120013C0A3F0C0
:102EC000120013C0A4F0120013C0A5F0120013C02A
:102ED000A6F0120013C0A7F0120013C0A8F0120051
:102EE00013C0A9F0120012C0AAF013C0ABF0120078
:102EF00013C0ACF0120013C0ADF0120013C0AEF05E
:102F0000120013C0AFF0120013C0B0F0120013C0D3
:102F1000B1F0120013C0B3F0120013C0B4F01200ED
:102F200012C0B8F013C0B9F012001250176E13504F
:102F3000186E196A1A6A18C01AF017C019F0186AC0
:102F4000176ABA511710BA6FBB511810BB6FBC513A
:102F50001910BC6FBD511A10BD6F121C176E131CD7
:102F6000186E196A1A6A18C01AF017C019F0186A90
:102F7000176A171C1B6E181C1C6E191C1D6E1A1C60
:102F80001E6EBA511B14BA6FBB511C14BB6FBC51DF
:102F90001D14BC6FBD511E14BD6F12001250BA112A
:102FA000BA6F1350BB11BB6F000EBC11BC6F000E8B
:102FB000BD11BD6F121C176E131C186E196A1A6AA8
:102FC000171C1B6E181C1C6E191C1D6E1A1C1E6E05
:102FD000BA511B14BA6FBB511C14BB6FBC511D14EA
:102FE000BC6FBD511E14BD6F120013C0BEF01200A5
:102FF0001250176E1350186E196A1A6A18C01AF018
:1030000017C019F0186A176AC0511710C06FC15164
:103010001810C16FC2511910C26FC3511A10C36F7B
:10302000121C176E131C186E196A1A6A18C01AF04F
:1030300017C019F0186A176A171C1B6E181C1C6E33
:10304000191C1D6E1A1C1E6EC0511B14C06FC1517D
:103050001C14C16FC2511D14C26FC3511E14C36F23
:1030600012001250C011C06F1350C111C16F000E79
:10307000C211C26F000EC311C36F121C176E131C56
:10308000186E196A1A6A171C1B6E181C1C6E191C04
:103090001D6E1A1C1E6EC0511B14C06FC1511C1432
:1030A000C16FC2511D14C26FC3511E14C36F1200F1
:1030B0001250176E1350186E196A1A6A18C01AF057
:1030C00017C019F0186A176AC4511710C46FC55198
:1030D0001810C56FC6511910C66FC7511A10C76FA7
:1030E000121C176E131C186E196A1A6A18C01AF08F
:1030F00017C019F0186A176A171C1B6E181C1C6E73
:10310000191C1D6E1A1C1E6EC4511B14C46FC551B0
:103110001C14C56FC6511D14C66FC7511E14C76F4E
:1031200012001250C411C46F1350C511C56F000EA8
:10313000C611C66F000EC711C76F121C176E131C85
:10314000186E196A1A6A171C1B6E181C1C6E191C43
:103150001D6E1A1C1E6EC4511B14C46FC5511C1465
:10316000C56FC6511D14C66FC7511E14C76F12001C
:1031700012C0C8F013C0C9F0120012C0CAF013C0C8
:10318000CBF012001150176E186A1850000AD8A41C
:1031900012001750000AD8B475D6020AD8B47FD6E8
:1031A000010AD8B4A5D6060AD8B47ED6020AD8B485
:1031B00097D60F0AD8B4ABD6020AD8B49CD61A0A4E
:1031C000D8B460D6010AD8B462D6030AD8B464D69B
:1031D000010AD8B464D6070AD8B466D6010AD8B4AE
:1031E00068D6030AD8B46AD6010AD8B46AD60F0AD8
:1031F000D8B46AD6010AD8B46AD6030AD8B46AD653
:10320000010AD8B46AD6070AD8B46AD6010AD8B473
:103210006AD6030AD8B46CD6010AD8B46CD63F0A71
:10322000D8B46CD6010AD8B46CD6030AD8B46CD61C
:10323000010AD8B46CD6070AD8B46CD6010AD8B43F
:103240006CD6030AD8B46CD6010AD8B46ED60F0A6D
:10325000D8B4A4D6010AD8B4C8D6030AD8B4C8D6FC
:10326000010AD8B4FED6070AD8B422D7010AD8B4C6
:1032700058D7030AD8B47CD7010AD8B47ED71F0A1E
:10328000D8B416D7010AD8B44CD7030AD8B410D78B
:10329000010AD8A4120045D7E40E1B6E08EC43F0D7
:1032A0000001E86F0101ABBF08D0AB5103E1AA05F3
:1032B000D8A003D04D50D8A428D0EF0E126E010E26
:1032C000136E000E156E070E146E01EC41F0BB0E6E
:1032D000126E020E136E000E156E030E146E01ECCC
:1032E00041F0000E0101406F000E3B6F180E1C6E86
:1032F000180EB9EC47F009EC49F0010E4F6E000EC4
:103300000101AB6F000EAA6F12004D50D8A45BD024
:103310004A50D8B458D0000EAB6F640EAA6F495013
:103320004B5CD8A003D04AC049F001D0490649C03F
:103330002EF0685190EC3AF0E806D8B404D04A5028
:103340004918D8A421D00A0E106E495081EC46F0DD
:103350001C6E000E1E6E140E1D6E0A0E106E49506D
:1033600081EC46F00001E06FE051495C146E156A93
:10337000D8A01506000E176E0A0E166E7AEC3CF0F9
:10338000145054EC48F01CD00A0E106E495081ECD9
:1033900046F01C6E0A0E106E495081EC46F000019A
:1033A000E06FE051495C146E156AD8A01506000E56
:1033B000176E0A0E166E7AEC3CF01450B9EC47F01A
:1033C000010E4F6E1200170E4D18D8A457D04A5058
:1033D000D8B454D0000EAB6F640EAA6F492A49507E
:1033E0004A5CD8A04BC049F049C02EF0685190EC1F
:1033F0003AF0E806D8B404D04A504918D8A421D0ED
:103400000A0E106E495081EC46F01C6E000E1E6EC6
:10341000140E1D6E0A0E106E495081EC46F000012C
:10342000E06FE051495C146E156AD8A01506000ED5
:10343000176E0A0E166E7AEC3CF0145054EC48F0FD
:10344000BFD70A0E106E495081EC46F01C6E0A0E72
:10345000106E495081EC46F00001E06FE051495C8C
:10346000146E156AD8A01506000E176E0A0E166E99
:103470007AEC3CF01450D3EC47F0A2D7630E4A64C8
:103480001AD0630E496417D06851D8A40AD0130E1D
:103490001C6E000E1E6E0A0E1D6E120E54EC48F0CD
:1034A0001200100E1C6E000E1E6E0A0E1D6E120E05
:1034B00054EC48F012000001E829D8B48ED0E8514D
:1034C000D8B40FD0E805D8B40CD0020EE819D8B49F
:1034D00008D0040EE819D8B404D0080EE819D8A40E
:1034E0007CD0E4C02EF0E5C02FF0E6C030F0E7C09D
:1034F00031F0000E326EE20E336E346A59EC2AF06F
:10350000E16F06EC49F00001E36FE151D8A412002D
:10351000E351D8B403D0BE51D8A41200E4C0D8F00F
:10352000E5C0D9F0E6C0DAF0E7C0DBF049C0DCF076
:103530000101685126EC3FF0BB0E126E020E136EB5
:10354000000E156E080E146E01EC41F0000E010124
:10355000406F000E3B6F000EA96F280EA86F0A0E79
:10356000106E495081EC46F01C6E000E1E6E040E6B
:103570001D6E0A0E106E495081EC46F00001E06F9E
:10358000E051495C146E156AD8A01506000E176E3E
:103590000A0E166E7AEC3CF0145054EC48F0495088
:1035A0004A18D8B403D04A50D8A412000001B85128
:1035B000D8A408D0B851D8A405D0E351D8A402D0DB
:1035C000010EBE6F492A47C0D9FF48C0DAFF49C083
:1035D000DFFF020EE2EC44F012004A504918D8B462
:1035E0001200270E4D18D8A41200270E4E641200A8
:1035F000000E0101AB6F640EAA6F49C03AF068512A
:103600003FEC3DF00A0E106E495081EC46F01C6E06
:10361000000E1E6E140E1D6E0A0E106E495081ECC7
:1036200046F00001E06FE051495C146E156AD8A0C5
:103630001506000E176E0A0E166E7AEC3CF014504A
:1036400054EC48F012000101EF05F011D8A406D0A7
:10365000060E0201BB19BC11D8A4120001011D0500
:10366000D8A4CED05EEC3FF0CBD020EE04F0E751F2
:10367000D926E851DA220A0EDE18DE10D8A406D0C8
:10368000E7C0D9FFE8C0DAFF010EB5D020EE04F0A4
:10369000E751D926E851DA220B0EDE18DE10D8A445
:1036A000CFD038D020EE04F0E751D926E851DA2205
:1036B0000C0EDE18DE10D8A472D0E7C0D9FFE8C027
:1036C000DAFF020E98D020EE04F0E751D926E85137
:1036D000DA220D0EDE18DE10D8B41CD020EE04F075
:1036E000E751D926E851DA220E0EDE18DE10D8A4F2
:1036F0002DD0E7C0D9FFE8C0DAFF030E7CD020EE62
:1037000004F0E751D926E851DA220D0EDE18DE105A
:10371000D8A406D0E7C0D9FFE8C0DAFF040E6BD00A
:1037200020EE04F0E751D926E851DA220F0EDE1818
:10373000DE10D8B4A5D720EE04F0E751D926E85121
:10374000DA220C0EDE18DE10D8B4B7D720EE04F063
:10375000E751D926E851DA22100E44D020EE04F0C9
:10376000E751D926E851DA220E0EDE18DE10D8B461
:10377000C0D720EE04F0E751D926E851DA220C0E2A
:10378000DE18DE10D8B499D720EE04F0E751D92620
:10379000E851DA22100EDE18DE10D8B427D020EE61
:1037A00004F0E751D926E851DA22140EDE18DE10B3
:1037B000D8A446D0E7C0D9FFE8C0DAFF050E1BD079
:1037C00020EE04F0E751D926E851DA22130EDE1874
:1037D000DE10D8B455D720EE04F0E751D926E851D1
:1037E000DA22120EDE18DE10D8A42AD0E7C0D9FFE4
:1037F000E8C0DAFF000EDE6E000EDD6E21D0FFD7CE
:10380000E7C0D9FFE8C0DAFFDF500001E96FEA6BDB
:10381000EA51000AD8A4F3D7E951000AD8B425D751
:10382000010AD8B43FD7030AD8B44DD7010AD8B497
:1038300066D7070AD8B492D7010AD8B4C1D7DFD760
:10384000E40E126E010E136E000E156E000E146E55
:1038500001EC41F07DD0000E0101DB6F640EDA6FE8
:10386000010E486F020E4219D8B403D0030E43650F
:1038700027D0A5EC28F00001EB6F140E106E000E9F
:10388000126E140E116E0E0E79EC45F0000EA96F3B
:103890000A0EA86F0001EB51D8A40AD04D50D8B43D
:1038A00007D04D50D8B404D0170E4D18D8A412002C
:1038B000000E0101426F000E436F010E4F6E1200A9
:1038C000010E1C6F010E3C27000E3D233E233F23BB
:1038D000000E4A6F000E1E6F000E1F6F000E206F4D
:1038E000000E216F000E486F000E436F000E006F38
:1038F000000EA96F280EA86F0C0E106E000E126E2F
:10390000040E116E0F0E79EC45F0E40E126E010EEE
:10391000136E000E156E0A0E146E01EC41F01200CB
:10392000FCEC38F0120056EC22F0000E0101DB6FC7
:10393000640EDA6F1200C5EC26F0F7D7D5EC1FF055
:10394000F4D7B00EDC6F020EDD6F43EC0CF0EDD758
:10395000E7C0D9FFE8C0DAFFDF500001E96FEA6B8A
:10396000EA51000AD8A41200E951000AD8B473D76A
:10397000010AD8B4D5D7030AD8B4D5D7010AD8B428
:10398000DDD7070AD8B4D7D7010AD8A41200D9D7EF
:1039900001014005D8A407D0000E116E140E106E60
:1039A000A7EC44F010D0E451E511D8A40CD0000EDF
:1039B000286F000E296F030E0001A519D8B402D09C
:1039C000879401D0878401011D05D8B405D0040E69
:1039D000E419E511D8A41CD0AFBF1AD0AF5103E150
:1039E000AE05D8A015D0AFBF06D0AF5111E13D0E46
:1039F000AE5DD8B00DD0020E0001B119D8A408D028
:103A0000000E126E040E116E010ED9EC3AF0120087
:103A1000030E01010019D8A44FD0000E286F2951C0
:103A2000D8A413D0030E0001B119D8A40ED0000EF3
:103A30000101DF6F280EDE6F000E126E000E116E98
:103A4000040ED9EC3AF0010E296F0101DFBF05D059
:103A5000DF5105E1DE05D8B002D00001B15100010F
:103A6000B105D8A410D00101DFBF05D0DF510BE1B3
:103A7000DE05D8B008D0000E126E050E116E030ED2
:103A8000D9EC3AF007D0000E126E000E116E030E44
:103A9000D9EC3AF00001A551D8A407D0000E116E60
:103AA0000A0E106EA7EC44F01200000E116E000E0C
:103AB000106EA7EC44F012000051D8A442D0E405E7
:103AC000E511D8A43ED01D05D8A4838E0001B10510
:103AD000D8A417D0020EB419D8B403D0B405D8A412
:103AE00008D0000E126E000E116E040ED9EC3AF0E2
:103AF00013D0000E126E280E116E040ED9EC3AF09F
:103B00000BD0030EB119D8B407D0000E126E000E00
:103B1000116E040ED9EC3AF0030E0001A519D8B4C9
:103B200012000101BFBF07D0BF51BE11BD11BDE1E1
:103B3000BC05D8B0BAD78794000EBB6F000EBA6F21
:103B400012000051D8A448D000019D51D8A404D03F
:103B500001010005D8B40CD000019E51D8A417D0A3
:103B60009C51D8B414D0020E01010019D8A40FD072
:103B7000000E286F000E296F030E0001A519D8B49E
:103B80001200020EA519D8B4120087941200000189
:103B9000B105D8A408D0000E126E140E116E010EDD
:103BA000D9EC3AF007D0000E126E000E116E010E25
:103BB000D9EC3AF00001A505D8B404D0030EA5193C
:103BC000D8A402D087941200A551D8B46ED7020EA3
:103BD000A519D8A4120069D7000E296F2851D8A4BE
:103BE0000CD0030E0001B119D8A407D0000E0101BA
:103BF000DF6F280EDE6F010E286F0101DFBF05D0D9
:103C0000DF5105E1DE05D8B002D00001B151040E4C
:103C10000101E419E511D8A41BD0000E286F000E95
:103C2000296F00019D51D8A40AD09E51D8B403D069
:103C30009C51D8A404D0020EA419D8A407D0000E19
:103C4000126E000E116E010ED9EC3AF0879412003C
:103C50000001B105D8A408D0000E126E0A0E116E34
:103C6000020ED9EC3AF007D0000E126E000E116E63
:103C7000020ED9EC3AF00001A551D8A407D0000EED
:103C8000116E140E106EA7EC44F00DD0A505D8B43B
:103C900004D0020EA519D8A406D0000E116E000E95
:103CA000106EA7EC44F0030E0001A519D8A4120071
:103CB00087941200226E000E0101AB6F640EAA6F92
:103CC00022506619D8B406D0010E226403D0000E2B
:103CD000686F05D0020E226002D069C168F1000E43
:103CE000656FF6D0000E666F0A0E676F000E696F83
:103CF000000E236E2350020D510EF324D96E010ED7
:103D0000F420DA6E100EDF6E2350020D520EF324F3
:103D1000D96E010EF420DA6E23C0DFFF232A090ECC
:103D20002364E8D707D1010E666F0A0E676F000E95
:103D3000696F000E236E2350020D510EF324D96ECD
:103D4000010EF420DA6E0E0EDF6E2350020D520EBD
:103D5000F324D96E010EF420DA6E23C0DFFF232A8C
:103D6000090E2364E8D7E6D0000E656F040E666F77
:103D7000040E676F0A0E516F130E526F170E536FBA
:103D80000A0E546F050E556F210E566F0D0E576FAC
:103D9000010E51D0000E656F050E666F020E676F43
:103DA0000D0E516F0A0E526F0D0E536F0F0E8ED007
:103DB000000E656F060E666F030E676F0F0E516F74
:103DC000000E526F0F0E536F050E546F0F0E556F8E
:103DD0000D0E73D0000E656F070E666F020E676FD3
:103DE0000A0E516F0F0E526F0A0E536F100E6ED0E7
:103DF000000E656F080E666F020E676F120E516F30
:103E00000E0E526F110E536F0C0E60D0000E656FC8
:103E1000090E666F040E676F120E516F0A0E526F15
:103E2000110E536F0A0E546F110E556F120E566F0E
:103E3000050E576F150E586F7DD0010E656F0A0E77
:103E4000666F020E676F110E516F100E526F100EDB
:103E5000536F120E3BD0010E656F0B0E666F020E94
:103E6000676F140E516F240E526F140E536F230E92
:103E70002DD00C0E666F000E686F020E676F050E78
:103E8000516F130E526F050EB0D70D0E666F010EF7
:103E9000676F0D0E516F120E526F000EA96F3C0E20
:103EA000A86F48D0050E516F0C0E526F050E536F60
:103EB0000E0E546F220E556F140E566F3BD0120E1D
:103EC000516F0E0E526F140E536F150E546F32D089
:103ED0002250206E216A2150000AD8A42BD02050F5
:103EE000000AD8B4FFD6010AD8B41DD7030AD8B443
:103EF000E6D7010AD8B4D6D7070AD8B435D7010A0D
:103F0000D8B448D7030AD8B453D7010AD8B462D773
:103F10000F0AD8B46DD7010AD8B478D7030AD8B439
:103F20008CD7010AD8B497D7070AD8B4A2D7010A08
:103F3000D8B4ABD701016751685DD8A002D0000E9C
:103F4000686F0D0E2218D8A41AD06851020D520EB7
:103F5000F324D96E010EF420DA6EDF501C6E000ED1
:103F60001E6E0A0E1D6E6851020D510EF324D96E9D
:103F7000010EF420DA6EDF5054EC48F01200685164
:103F8000020D520EF324D96E010EF420DA6EDF50CA
:103F90001C6E6851020D510EF324D96E010EF420EF
:103FA000DA6EDF50B9EC47F01200A5EC28F0336E62
:103FB00051EC39F0326E000E01018F6FC6EC47F004
:103FC000000E0101506F030E43650DD0000E006F0F
:103FD000E40E126E010E136E000E156E100E146EAE
:103FE00001EC41F012000305D8B40CD0185119119E
:103FF0001A111B11D8A45FD02651D8A45CD0485107
:10400000D8A459D0020E0001A519D8A418D0AC51DB
:104010001D6E1E6A1F6A206AB00E216E040E226E8B
:10402000000E236E000E246E0FEC42F01DC0BCF19A
:104030001EC0BDF11FC0BEF120C0BFF109D0000EEF
:104040000101BC6F000EBD6F000EBE6F000EBF6F92
:10405000000E0101126F010E1C6F010E3C27000EB5
:104060003D233E233F23000E4A6F000E1E6F000EBD
:104070001F6F000E206F000E216F000E486F000EA4
:10408000436F000E006F000EA96F280EA86F0C0E74
:10409000106E000E126E040E116E0F0E79EC45F0CC
:1040A000E40E126E010E136E000E156E0F0E146EDE
:1040B00001EC41F012003204D8B411D0C7BF21D0B6
:1040C000C75103E1C605D8A01CD04105D8A419D01A
:1040D000CDBF05D0CD5115E1CC05D8B012D02751B8
:1040E000D8A40FD03204D8A4432B432B010E276F42
:1040F000000EC16F0A0EC06F000EDD6F1E0EDC6F6A
:104100001200C7BF2ED0C75103E1C605D8A029D0E1
:104110002705D8A426D04505D8A405D0000E006FE9
:10412000A1EC31F055D7C1BF05D0C15117E1C00591
:10413000D8B014D04A05D8A403D096EC3FF004D0F0
:10414000D2EC46F0A1EC31F0000E0101276F010E18
:10415000446F000ECD6F140ECC6F1200000E006F76
:1041600012002705D8A417D0000E006FC1BF05D0DC
:10417000C15160E1C005D8B012004A05D8A403D0EF
:1041800096EC3FF004D0D2EC46F0A1EC31F0000EFA
:104190000101276F12000051D8A40BD0020E321873
:1041A000D8B402D0432BBAD7A1EC31F074EC47F06D
:1041B0001200CFBF05D0CF510BE1CE05D8B008D04B
:1041C0004605D8A405D0A1EC31F0000E466FEED71D
:1041D0000001A805D8B404D0020EA819D8A405D0AF
:1041E000040E3318D8B41200E1D73350D8B41200FB
:1041F000A405D8A413D0A1EC31F074EC47F0020E62
:104200003318D8A41200020E0001A419D8B4120069
:104210004AEC48F0010E01014F6F1200040E3318F2
:10422000D8B4C4D7010E0101276F000EC16F0A0E6A
:10423000C06F12001200000E8EB6010E0001896FD1
:104240008B51D8A4120016D100018951D8A404D0F2
:10425000030E01019A6F12007E07D8A07F077FAF7F
:104260001200F60E7E5DFF0E7F59D8B01200000ED0
:1042700001019A6F120000018951D8B42CD0020EAE
:1042800001019A6FC60E00018D25D96EDA6A020E01
:10429000DA22D890DF327FBF08D0C60E8D25D96EC6
:1042A000DA6A020EDA22800EDF26000E7F6F000E21
:1042B0007E6F8C2B8CC001F0070E0116D8B48D2BAD
:1042C000410E8C19D8A41200000E01019A6F010E44
:1042D00000018B6F12007E4B7F2B7FBF12007F513E
:1042E00004E10A0E7E5DD8A01200010E01019A6F52
:1042F000000E00018D6F000E8C6F120000018951BD
:10430000D8B430D07FBF0ED07F5104E1140E7E5D53
:10431000D8A008D07FBF1ED07F5104E12D0E7E5D56
:10432000D8A018D07FBFA3D77F5104E1500E7E5D87
:10433000D8A09DD77FBF06D07F5199E1640E7E5DE6
:10434000D8B095D7FF0E7F6FF60E7E6F040E010179
:104350009A6F1200000E7F6F000E7E6F020E010139
:104360009A6F12007E4B7F2B120000018951D8A456
:1043700056D0050E01019A6FC60E00018D25D96E2B
:10438000DA6A020EDA22D890DF327FBF08D0C60E7A
:104390008D25D96EDA6A020EDA22800EDF26000E33
:1043A0007F6F000E7E6F8C2B8CC001F0070E011604
:1043B000D8A409D08D2BC60E8D25D96EDA6A020ECF
:1043C000DA22000EDF6E0D0E8C19D8A41200000E3A
:1043D00001019A6F00018A05D8A41AD00201C651C2
:1043E00001018919D8A40FD00201C75101018A190E
:1043F000D8A409D0010E00018B6F000E0201C86F16
:10440000000EC96F1200C6C289F1C7C28AF112003C
:10441000010E8A6FC6C289F1C7C28AF112007E4BB3
:104420007F2B7FBF12007F5104E10A0E7E5DD8A072
:1044300012001DD700018951D8B404D0040E010127
:104440009A6F12007E07D8A07F077FAF1200F60E8A
:104450007E5DFF0E7F59D8B0120047D7010E9A6FCC
:10446000000E00017F6F000E7E6F000E8D6F000E3C
:104470008C6F120001019A51016E026A0250000A0B
:10448000D8A4ECD70150000AD8B4E8D7010AD8B4B0
:1044900035D7030AD8B4D8D6010AD8B4ECD6070A5F
:1044A000D8B463D7010AD8B4C5D7D8D751EC39F0FE
:1044B0000001E46FA4EC39F00001E56FA5EC28F0F1
:1044C0000001E66FB6EC25F0C6EC47F0000E0101E6
:1044D000506F0001E4511EEC47F0030E01014365EB
:1044E0000DD0000E006FE40E126E010E136E000E62
:1044F000156E100E146E01EC41F01200020E001940
:10450000D8A413D0ADBF05D0AD510FE1AC05D8B0E4
:104510000CD048EC36F074EC47F04AEC48F0010E51
:104520000101506F010E8F6F12000405D8B410D036
:10453000185119111A111B11D8A42FD02651D8A423
:104540002CD04851D8A429D0020E1C19D8A425D0AB
:10455000040E1C6FD0C01EF1D1C01FF1D2C020F1DB
:10456000D3C021F1000E126F000E486F010E226FB2
:10457000000E436F000EA96F280EA86F000E106E7C
:10458000000E126E040E116E0F0E79EC45F074ECF5
:1045900047F0010E0101506F12000001E505D8B48B
:1045A00012D00101C7BF25D0C75103E1C605D8A06D
:1045B00020D04105D8A41DD0CDBF05D0CD5119E1E3
:1045C000CC05D8B016D001012751D8A412D00001D3
:1045D000E505D8B402D00101432B010E0101276F7C
:1045E000000EC16F0A0EC06F000EDD6F1E0EDC6F75
:1045F0001200C7BF2DD0C75103E1C605D8A028D0EF
:104600002705D8A425D04405D8A405D0000E006FF6
:10461000A1EC31F068D7C1BF05D0C15116E1C0058A
:10462000D8B013D0BFEC46F048EC36F0000E276F40
:10463000010E456F000ECD6F140ECC6F000ECF6FC4
:10464000280ECE6F010E466F1200000E006F120092
:104650002705D8A40AD0000E006FC1BFE3D7C1510F
:104660004EE1C005D8B01200DDD70051D8A418D053
:10467000C1BF05D0C15114E1C005D8B011D0020EA0
:104680000001E519D8B407D00101432B000E006FDB
:1046900048EC36F028D748EC36F074EC47F01200BE
:1046A0000001A805D8A405D0030EE619D8B412005D
:1046B000F4D7020EE619D8A411D0020E0101001998
:1046C000D8A40CD0020E0001A419D8B407D048EC2D
:1046D00036F074EC47F04AEC48F012000001E605B1
:1046E000D8B408D0030EE619D8B404D0040EE619E5
:1046F000D8A41200020EA419D8B41200CCD712000C
:104700000101185119111A111B11D8A40DD04251D1
:10471000D8B40AD02651D8A407D04851D8A404D080
:10472000000E006F020E07D04205D8A405D000513C
:10473000D8A402D0000E426F005139EC3EF0186E42
:104740001850D8A40AD0010E01010D6FA3BF1200AA
:1047500087928790000E166F12000001AF05D8A453
:1047600022D07905D8A41FD001010051D8A41BD0B4
:104770001850D8A4C5BF17D0C55103E1C405D8A0AF
:1047800012D0DDBF05D0DD510EE1DC05D8B00BD075
:10479000C5BF06D0C55103E1120EC45DD8B01200EA
:1047A00087828780D7D71804D8B404D0020E18188F
:1047B000D8A463D001010451D8A45FD091B204D031
:1047C0000001B351D8B406D091B04FD00001B30569
:1047D000D8A44BD091B003D0B351D8B405D091B286
:1047E0003AD0B305D8A437D0000E01010D6F000EEA
:1047F000A36FC80EA26F000EB76F140EB66F03053D
:10480000D8B403D01C05D8A424D0000198510A0DB7
:10481000F3CF12F0F4CF13F0B0511226000E132292
:104820001250CC25146E1350CD21156E000ECE21E2
:10483000166E000ECF21176E500E14240101186F52
:10484000000E1520196F000E16201A6F000E17208B
:104850001B6F020E1C6F0001B351D8A402D08780D9
:1048600001D08782010E0101166F0001B351D8A457
:1048700002D08792120087901200030E1818D8A455
:10488000120001010351D8A4120091B004D000011C
:10489000B351D8B406D091B250D00001B305D8A41A
:1048A0004CD091B203D0B351D8B405D091B03BD025
:1048B000B305D8A438D0000E01010D6F000EA36F10
:1048C000C80EA26F000EB76F140EB66F0405D8B4F1
:1048D00004D0040E1C19D8A424D0000199510A0D4B
:1048E000F3CF12F0F4CF13F0B0511226000E1322C2
:1048F0001250D025146E1350D121156E000ED22106
:10490000166E000ED321176E500E14240101186F7D
:10491000000E1520196F000E16201A6F000E1720BA
:104920001B6F030E1C6F0001B351D8A402D0878205
:1049300001D08780020E0101166F0001B351D8A487
:1049400002D08790120087921200E4EC37F0916F4A
:104950007B05D8A40FD0C9BF08D0C95103E1C80551
:10496000D8A003D0000E926F05D07D517F5DD8A0F6
:104970007EC191F18DA671D09451D8A46ED093517F
:10498000D8A416D0ED0E00018425D96EDA6A020E85
:10499000DA220101D8909531DF6E00018451D8A44C
:1049A00002D0010E01D0000E846F000E0101956F40
:1049B000500E916507D0C5BF08D0C55103E1C405AD
:1049C000D8A003D0869E000E0C6F932BED0E000135
:1049D0008425D96EDA6A020EDA2201019351DE5C77
:1049E000D8B044D0590E4D6505D06A0E4D6102D045
:1049F000010E01D0000E156F500EA16F000E4D6F0D
:104A0000010E926F010E946F7F2B0001AF05D8A4A9
:104A10000ED00101C5BF0BD0C55103E1C405D8A01C
:104A200006D0010E7F6522D0000E7F6F1FD00101DE
:104A30007C517DC105F0066A0526000E06227F51D5
:104A4000076E086A0550075C0850800A096E065018
:104A5000800A0958D8B0E8D709D08DB607D094514C
:104A6000D8B404D0000E946F000E936F8DB6952BC2
:104A70004D2B005175EC3EF00001836FAF05D8A4BB
:104A80002ED00101C5BF2BD0C55103E1C405D8A06C
:104A900026D0DDBF05D0DD5122E1DC05D8B01FD026
:104AA00000018351D8B43AD001019205D8A436D080
:104AB000A3BF05D0A35132E1A205D8B02FD07F51BA
:104AC000D8A42CD0C5BF06D0C55128E10C0EC45DBA
:104AD000D8B024D0868EEC0EA36F780E1AD00001C9
:104AE0008351D8B41BD001019151A15DD8B016D02B
:104AF0009205D8A413D0A3BF05D0A3510FE1A205FE
:104B0000D8B00CD00D51D8A409D0868EFF0EA36F5B
:104B1000380EA26F010E0C6F000E926F150E010180
:104B2000A16102D0C5BF04D000018351D8A404D034
:104B3000869E000E01010C6F00018351D8B40CD089
:104B40000101A3BF09D0A35103E1A205D8A004D05D
:104B5000A207D8A0A307120000018351D8A4120015
:104B60000101A3AF1200A24BA32B120001012605E5
:104B7000D8A417D04705D8A414D07B51D8A408D006
:104B8000000EC96F0A0EC86F000ECB6F140ECA6FED
:104B9000EDEC47F0010E7B6F000E0F6F000E0E6FF5
:104BA00012002605D8B403D00905D8A407D0000EFA
:104BB0000F6F000E0E6F000E7B6F1200030E0019B8
:104BC000D8A468D0030ED4EC35F0295001011E5D45
:104BD0002A501F592B5020592151800A0001DA6FA9
:104BE0002C50800ADA59D8A004D001014805D8A475
:104BF00051D000019951D8B404D001011251D8B458
:104C00000CD0010111BF05D0115144E11005D8B0FD
:104C100041D00001AB51D8B43DD001017B51D8A4A3
:104C200022D01251D8A41FD0000ECB6F140ECA6F21
:104C30000001AB51D8B408D0000E0101276F010E5E
:104C4000126F56EC43F00FD0000E0101C96F0A0E2F
:104C5000C86FEDEC47F0010E7B6F000E0F6F000E7A
:104C60000E6F000E126F010111BF05D0115102E14C
:104C70001005D8B012001205D8A412000001AB51E3
:104C8000D8B41200000E0101C96F020EC86F000EE9
:104C9000126F7ED701010051C7EC32F0E806D8A4AC
:104CA00042D09851D8B404D001011251D8B40CD0DC
:104CB000010111BF05D0115136E11005D8B033D034
:104CC0000001AB51D8B42FD001017B51D8A422D020
:104CD0001251D8A41FD0000ECB6F140ECA6F000162
:104CE000AB51D8B408D0000E0101276F010E126F2E
:104CF00056EC43F00FD0000E0101C96F0A0EC86FC9
:104D0000000E126FEDEC47F0010E7B6F000E0F6F7F
:104D1000000E0E6F010111BFAED7115135E1100524
:104D2000D8B01200A8D7010111BF12D0115103E170
:104D30001005D8A00DD00051D8B40AD01351105D81
:104D4000106F1151D8A01105116F000E7B6F12006A
:104D50000FBF10D00F5103E10E05D8A00BD00051AA
:104D6000D8B408D014510E5D0E6F0F51D8A00F05A6
:104D70000F6FEBD7000E116F000E106F000E0F6F4C
:104D8000000E0E6F000E7B6F120051EC39F0206E9A
:104D90002050D8B407D001018F51D8A403D0C6EC5D
:104DA00047F008D02050D8B405D001018F05D8B401
:104DB0004AEC48F0A5EC28F0216E20501EEC47F09C
:104DC0008EB213D000019D51D8B40FD001012351F0
:104DD000D8B40BD0350E4D18D8B407D0020E000150
:104DE000A419D8A402D0000E216E2150D8B45DD0F1
:104DF000000E0101A96F3C0EA86F020E0001A4195C
:104E0000D8A40DD09D51D8A40AD02104D8B404D080
:104E1000040E2118D8A403D0BFEC46F01200A8510C
:104E2000D8B414D0030E2118D8A40BD0010104511A
:104E3000D8A407D0040E1C19D8B403D0D2EC46F085
:104E40001200040E2118D8A41200E6D7030E0101A7
:104E50000B19D8A409D02104D8A406D0D2EC46F06E
:104E6000000E0101276F1200030E0B19D8A407D002
:104E7000020E2118D8A403D096EC3FF0F1D7030E10
:104E80002118D8A405D0040E1C19D8B41200E6D7F6
:104E900000019D51D8B407D0020EA419D8A403D0A4
:104EA000C6EC47F012002050CED78EB20BD00001D6
:104EB0009D51D8B407D09D51140DF3CFAEF1F4CF6E
:104EC000AFF1120001013A05D8A40FD02050D8A4A8
:104ED0000CD0000E3A6FADC023F10001AD51140D9E
:104EE000F3CFAEF1F4CFAFF11200AFBF05D0AF51A9
:104EF00013E1AE05D8B010D00001A405D8A40CD0A1
:104F000001015005D8A408D02351D8B405D0000E13
:104F1000236F000E506F80D70101AFBF05D0AF5196
:104F200019E1AE05D8B016D00001A405D8B412D04E
:104F300001012351D8B40ED0000E236F2705D8A449
:104F400003D0000E276F7AD7BFEC46F0000E0101A8
:104F5000486F120001012205D8A412002050D8A4E5
:104F60001200A9BF06D0A95103E1020EA85DD8B076
:104F70001200000E226F1200E2C010F0E3C011F028
:104F8000E0C012F0E1C013F0000E156E080E146EB2
:104F9000E4EC43F0080E0001E225106E000EE32160
:104FA000116EE2C012F0E3C013F0000E156E040E95
:104FB000146EE4EC43F0000120EE0CF0E251D9262F
:104FC000E351DA2210EE07F0E251E126E351E2224A
:104FD000E750E46FE4390F0BDF6EE2C010F0E3C07E
:104FE00011F0FEEC44F0E96FE951D8A419D020EE9D
:104FF00004F0E251D926E351DA22DECF2EF0DECFE3
:105000002FF0DECF30F0DECF31F0000E326E0F0E1B
:10501000E225336E000EE321346E59EC2AF004D001
:10502000A651D8A402D0000EE96F20EE04F0E251A0
:10503000D926E351DA22FF0EDE14E46FFF0EDE14F0
:10504000E56FFF0EDE14E66F0F0EDE14E76F20EE45
:1050500004F0E251D926E351DA22E4C0DEFFE5C0D4
:10506000DEFFE6C0DEFFE7C0DEFFE2C038F0E3C0EF
:1050700039F0B8EC41F0E951D8A41BD0E2C010F0EF
:10508000E3C011F018EC45F00009D8A408D020EED8
:105090000EF0E251D926E351DA22010E07D020EEBC
:1050A0000EF0E251D926E351DA22000EDF6E000E37
:1050B0001200060EE919D8B404D0050EE919D8A4D7
:1050C0001BD020EE04F0E251D926E351DA22DECFE4
:1050D0002EF0DECF2FF0DECF30F0DECF31F0010E3C
:1050E000326E0F0EE225336E000EE321346E59EC62
:1050F0002AF00009D8B4DBD7E2C010F0E3C011F009
:1051000018EC45F00009D8A40DD0BE05D8B4CFD70F
:1051100020EE0EF0E251D926E351DA22010EDF6EC5
:10512000E9511200E2C024F0E3C025F0F3EC3BF0BB
:105130000001E86FE805D8A4BAD720EE0EF0E251DE
:10514000D926E351DA22000EEAD701012651D8A46C
:10515000C0D0C7BF19D0C75103E1C605D8A014D02D
:10516000010E1C6E000E1E6E140E1D6E120E54ECFF
:1051700048F0000E0101A96F0A0EA86F010E456EDE
:10518000010E4F6E000E12000001A851D8B42FD0AE
:10519000350E4D18D8A417D0000E0101A96F0A0EC4
:1051A000A86F000E1C6E000E1E6E040E1D6E120EF9
:1051B00054EC48F0020E0001A819D8A402D0010E48
:1051C0004F6E030E1200330E4D18D8A4DBD7000E1D
:1051D0000101A96F0A0EA86F050E1C6E000E1E6E4F
:1051E000040E1D6E120E54EC48F0040E1200350E23
:1051F0004D18D8A416D0000E0101A96F280EA86F73
:10520000000E1C6E000E1E6E040E1D6E120E54EC6F
:1052100048F00001A905D8B4D2D7010E4F6E010E97
:105220001200330E4D18D8A419D0000E0101A96F39
:10523000280EA86F050E1C6E000E1E6E040E1D6E4D
:10524000120E54EC48F00001A905D8A403D0010EB9
:105250004F6ECBD7010E4F6E020E1200360E4D1858
:10526000D8A40FD0000E0101A96F280EA86F130E4D
:105270001C6E000E1E6E040E1D6E100E54EC48F0D7
:10528000CCD73B50D8B423D0060E3B18D8B41FD08F
:10529000050E3B18D8B41BD00A0E106E4350C5EC57
:1052A00044F0F60DF35043241C6E000E1E6E040EE7
:1052B0001D6E0A0E106E4350C5EC44F054EC48F0DD
:1052C000000E0101A96F280EA86F010E456E3B501C
:1052D00012003B50D8B41BD00A0E106E4350C5ECE0
:1052E00044F0F60DF35043241C6E000E1E6E040EA7
:1052F0001D6E0A0E106E4350C5EC44F054EC48F09D
:10530000000E0101A96F140EA86F010E456E3B50EF
:105310001200000E3A6E2D0E0001986504D0030EA7
:10532000986F010E3A6E2D0E996504D0030E996F99
:10533000010E3A6E9A51D8B403D0090E9A6504D082
:10534000090E9A6F010E3A6E090E9B6504D0000E8D
:105350009B6F010E3A6E630E9C6504D00A0E9C6F23
:10536000010E3A6E630E9D6504D0000E9D6F010E16
:105370003A6E630E9E6504D0000E9E6F010E3A6E6B
:10538000010E9F6504D0000E9F6F010E3A6E010E54
:10539000A06504D0000EA06F010E3A6E010EA1654B
:1053A00004D0000EA16F010E3A6E010EA26504D06A
:1053B000010EA26F010E3A6E010EA36504D0000E1D
:1053C000A36F010E3A6E020EA46504D0000EA46F06
:1053D000010E3A6E030EA56504D0000EA56F010EF6
:1053E0003A6E010EA66504D0000EA66F010E3A6E4D
:1053F000090EA76504D0000EA76F010E3A6E020ECB
:10540000A86504D0000EA86F010E3A6E010EA965C2
:1054100004D0000EA96F010E3A6E090EAA6504D0E1
:10542000000EAA6F010E3A6E630EAC6504D0030E37
:10543000AC6F010E3A6E090EAD6504D0000EAD6F73
:10544000010E3A6E010EAF6504D0000EAF6F010E73
:105450003A6EB051D8B403D0090EB06504D0050E31
:10546000B06F010E3A6E030EB16504D0030EB16F3A
:10547000010E3A6E010EAE6504D0000EAE6F010E45
:105480003A6E010EB36504D0010EB36F010E3A6E91
:10549000090EAB6504D0000EAB6F010E3A6E3A50A8
:1054A000D8B41200000EE2EC44F0010EE2EC44F03D
:1054B0001200000E396E3204D8A409D0FF0E356EEA
:1054C000FF0E366EFF0E376E0F0E386E04D0356845
:1054D000366837683868000E3A6E56D03AC0D8F051
:1054E000030ED817D8A41CD0000E396E3A50D86FCE
:1054F000D96BD890D837D937D890D837D937000E4C
:10550000D825226E020ED921236EA00E246E020E23
:10551000256E000E276E100E266E500EB1EC3EF07A
:105520003950040DA00EF324D96E020EF420DA6E69
:10553000DECFD8F0DECFD9F0DECFDAF0DECFDBF091
:1055400035500001D815DC6F3650D915DD6F375056
:10555000DA15DE6F3850DB15DF6F2E50DC1912E1E3
:105560002F50DD190FE13050DE190CE13150DF19F9
:10557000D8A408D033C0D9FF34C0DAFF3AC0DFFF67
:10558000010E1200392A3A2AB8513A5CD8A0A6D79F
:10559000000E3A6E56D03AC0D8F0030ED817D8A4F1
:1055A0001CD0000E396E3A50D86FD96BD890D837CE
:1055B000D937D890D837D937000ED825226E050EA6
:1055C000D921236EA00E246E020E256E000E276ECA
:1055D000100E266E500EB1EC3EF03950040DA00EA8
:1055E000F324D96E020EF420DA6EDECFD8F0DECFCF
:1055F000D9F0DECFDAF0DECFDBF035500001D81580
:10560000DC6F3650D915DD6F3750DA15DE6F385044
:10561000DB15DF6F2E50DC1912E12F50DD190FE181
:105620003050DE190CE13150DF19D8A408D033C056
:10563000D9FF34C0DAFF3AC0DFFF020E1200392A68
:105640003A2AB9513A5CD8A0A6D7000E1200B3BFCF
:105650000AD0B35103E1B205D8A005D0000ED76F30
:10566000140ED66F07D0D7BF09D0D75103E1D605A6
:10567000D8A004D0040E216EB00E03D0000E216E0F
:10568000000E206E7B51D8A45BD0030E0019D8A465
:1056900005D0C8C034F1C9C035F104D0CAC034F156
:1056A000CBC035F1366B376B37513611351104E10C
:1056B000650E345DD8A009D03751361106E1C50E0C
:1056C000345D3B0E3559D8A004D0C40E346F3B0E68
:1056D00058D09BC022F022502202F3CF10F0F4CF1A
:1056E00011F0000E136E0A0E126EE5EC46F010C0BB
:1056F0001AF011C01BF022C010F0116AFF0E136ED9
:10570000380E126EE5EC46F010501A2611501B228E
:10571000140E1A241C6E050E1B201D6E1E6A1DBE63
:105720001E061E501F6E010134511C24346F35516A
:105730001D20356F36511E20366F37511F2046D041
:10574000030E0019D8A409D0C0C034F1C1C035F18E
:10575000C2C036F1C3C037F108D0C4C034F1C5C0EF
:1057600035F1C6C036F1C7C037F1375136110EE1F9
:10577000890E345D130E3559D8B008D0880E346FB9
:10578000130E356F000E366F000E20D0A7C010F03C
:10579000116AFE0E136E0C0E126EE5EC46F0380E1A
:1057A00010241A6E180E11201B6E1C6A1BBE1C06DC
:1057B0001C501D6E1A500101345D346F1B50355959
:1057C000356F1C503659366F1D503759376F205082
:1057D0003425166E21503521176E000E3621186EB5
:1057E000000E3721196E1200A40E016E010E026E1A
:1057F00096EC46F0E20E016E010E026E96EC46F05B
:10580000A60E016E010E026E96EC46F0A80E016E19
:10581000010E026E96EC46F0AA0E016E010E026EAB
:1058200096EC46F0AC0E016E010E026E96EC46F060
:10583000AE0E016E010E026E96EC46F0B00E016ED9
:10584000010E026E96EC46F0B20E016E010E026E73
:1058500096EC46F0B60E016E010E026E96EC46F026
:10586000B80E016E010E026E96EC46F0BA0E016E95
:10587000010E026E96EC46F0C00E016E010E026E35
:1058800096EC46F0C20E016E010E026E96EC46F0EA
:10589000C40E016E010E026E96EC46F0C60E016E4D
:1058A000010E026E96EC46F0C80E016E010E026EFD
:1058B00096EC46F0CA0E016E010E026E96EC46F0B2
:1058C000CC0E016E010E026E96EC46F0DE0E016EFD
:1058D000010E026E96EC46F0E00E016E010E026EB5
:1058E00096EC46F00001AF51D8B408D00101C5BF15
:1058F00005D0C55109E1C405D8B006D0CE0E016E61
:10590000010E026E96EC46F0D00E016E010E026E94
:1059100096EC46F0D20E016E010E026E96EC46F049
:10592000D40E016E010E026E96EC46F0D60E016E9C
:10593000010E026E96EC46F0D80E016E010E026E5C
:1059400096EC46F0DA0E016E010E026E96EC46F011
:10595000DC0E016E010E026E96EC46F00101BFBF37
:105960001200BF51BE11BD1103E1BC05D8A0120049
:10597000FF0EBC27FF0EBD23FF0EBE23FF0EBF236D
:10598000120000018B51D8B4B9D08A51D8A40BD0E1
:10599000C60EE06F020EE16F900EE26F020EE36F33
:1059A000BCEC27F00AD0C60EE06F020EE16F900E3D
:1059B000E26F020EE36F21EC3BF0876F9CC288F030
:1059C00094C281F195C282F196C283F197C284F1AB
:1059D00098C287F199C288F19EC299F1010126050A
:1059E000D8A41ED000018751D8B444D088513C18A7
:1059F000D8A440D0010181513D183CE182513E18AC
:105A000039E183513F1836E184514018D8A432D08F
:105A1000000187513B18D8A42DD0000E446E38D019
:105A200000018751D8B426D087513B18D8B40FD085
:105A30000101B1BF05D0B1510AE1B005D8B007D01E
:105A40008751411817E188514218D8A413D000019A
:105A500088513C18D8A40ED0010181513D180AE1AB
:105A600082513E1807E183513F1804E184514018E8
:105A7000D8B403D0000E456ED0D7B1BF05D0B15118
:105A800007E1B005D8B004D0020E9919D8B4F2D706
:105A9000000E0101B16F0A0EB06F87C03BF03B50A2
:105AA000D8B41AD0000188513C18D8A415D00101EF
:105AB00081513D1811E182513E180EE183513F188A
:105AC0000BE184514018D8A407D08751411804E154
:105AD00088514218D8B40ED088C03CF081C13DF046
:105AE00082C13EF083C13FF084C140F09FC243F0C9
:105AF000000E446E87C141F088C142F04504D8A42D
:105B000003D0000E3B6E12003B50D8B41200FA0EC8
:105B100044601200442A12003A6E030E0001986F8E
:105B2000090E9A6F030E996F000E9F6F000EA06F03
:105B3000000EA16F010EA26F000EA36F000EA56FE5
:105B4000000EA66F000EA76F000EA86F000E9E6FCE
:105B5000030EAC6F000EAD6F000EAF6F000E9E6FA8
:105B6000010EB36F3A50D8A414D0000E9B6F000EF4
:105B7000A96F000EAE6F000E9D6F000EA46F050E94
:105B8000B06F030EB16F000EAB6F000EAA6F0A0E5E
:105B900039D03A04D8A41BD0040E996F040E986F24
:105BA000040E9B6F010EA96F010EAE6F000E9D6F6C
:105BB000000EA46F050EB06F030EB16F000EAB6F39
:105BC000050EAA6F000E9C6F000EB36F1CD0020E64
:105BD0003A18D8A418D0060E996F020E986F000ECE
:105BE0009B6F000EA96F000EAE6F000E9D6F020E30
:105BF000A46F050EB06F010EB16F050EAB6F000EF6
:105C0000AA6F000E9C6F010EE2EC44F0000EE2EC75
:105C100044F0000E0001D06F000ED16F000ED26F65
:105C2000000ED36F000ECC6F000ECD6F000ECE6F46
:105C3000000ECF6F000EC96F000EC86F000ECB6F45
:105C4000000ECA6F000EC06F000EC16F000EC26F53
:105C5000000EC36F000EC46F000EC56F000EC66F3E
:105C6000000EC76F8DA48DB215D08EA08DBA12D044
:105C7000000E01013C6F000E3D6F000E3E6F000EE6
:105C80003F6F000E0001BA6F000EBB6F000EBC6FBD
:105C9000000EBD6F020EE2EC44F0030EE2EC44F0A5
:105CA0001200180E0001726F180E726F000E766FE0
:105CB000000E756F010E776F62EC45F021EC49F034
:105CC000F28EF28C0F0114871387ACEC47F00AECCC
:105CD00031F082EC47F0180E1C6E180ED3EC47F032
:105CE000020E01019E6F0BD09F51D8A408D082EC08
:105CF00047F0320E01019F6F9E07D6EC33F0010191
:105D00009E51D8A4F1D7BB0E126E020E136E000E78
:105D1000156E000E146E000E166EE4EC41F0EF0EE0
:105D2000126E010E136E000E156E000E146E000E34
:105D3000166EE4EC41F0E40E126E010E136E000ECE
:105D4000156E000E146E000E166EE4EC41F0B00EEF
:105D5000126E020E136E000E156E000E146E000E03
:105D6000166EE4EC41F0000E0101A56F140EA46F55
:105D7000010E4C6FFE0E4B6F000EDB6F640EDA6F80
:105D8000000EDD6F000EDC6F000E006F71EC48F04E
:105D90000009D8B40DD0B8EC42F020EEF1F0060EB8
:105DA000EBCFDBFFE806FCE2F10E3A6E1CEC37F0BD
:105DB00001019F51D8A4EAD7320E9F6F82EC47F0C1
:105DC000040E0101496103D06EEC40F0DFD704EC12
:105DD00040F0C1EC2CF0F9EC47F00101966FD6ECE5
:105DE00033F035EC32F012EC2FF0B6EC25F080EC0D
:105DF00023F0C8EC1CF08BEC41F0EF0E0001ED6FCE
:105E0000010EEE6FCAEC0FF0E40E0001E76F010E19
:105E1000E86F23EC1BF001019629D8B4B7D7ACEC9E
:105E200047F0B4D79FEC43F05AEC34F081EC37F0F4
:105E3000236E2350386F396B27EC2BF016C034F1EA
:105E400017C035F118C036F119C037F10051D8A488
:105E50000FD0000E00018E6F000E0101416F000E89
:105E6000456F000E446F000ED56F140ED46F1200F4
:105E70007B51D8A45DD0000ED56F140ED46F2E5177
:105E8000236E2F51246E256A266A2350345D2450D8
:105E900035592550365926503759D8B03ED0B7BF5E
:105EA00005D0B7513AE1B605D8B037D000019B51C3
:105EB000D8B433D00101DFBF05D0DF512EE1DE05BC
:105EC000D8B02BD000018E51D8B40BD001018B512A
:105ED0002E5D8C512F59D8B004D0000E00018E6F6A
:105EE00002D000018E2B2EC18BF12FC18CF101014C
:105EF000CBBF05D0CB514FE1CA05D8B01200010E7F
:105F000000018E651200000E0101006F000EC76FC8
:105F1000C80EC66F010E416F1200000E00018E6F99
:105F2000000E0101416F000E456F000E446F12001C
:105F30003451305D35513159365132593751335919
:105F4000D8B0EBD7B7BF05D0B751E7E1B605D8B0A9
:105F5000E4D7D5BF05D0D551E0E1D405D8B0DDD721
:105F60000001A751D8B4D9D78E2B0101CBBF05D0E2
:105F7000CB5111E1CA05D8B01200020E00018E65A6
:105F80001200000E0101006F000EC76FC80EC66F31
:105F9000010E416F12001200CE933AEC42F037EC42
:105FA0003CF001019F51D8A49F079D51D8B402D065
:105FB0009D0789D0320E9D6FF4EC2BF000019251B9
:105FC000D8A402D0010E01D0000E926F010126511B
:105FD000D8A434D0185119111A111B11D8B408D0F3
:105FE0001651D8B405D01807000E195B1A5B1B5B5D
:105FF0001605D8A40ED07B05D8A404D000019205C4
:10600000D8A461D0010E01011E27000E1F232023FA
:1060100013D0020E1619D8A456D07B05D8A404D0EC
:1060200000019205D8A44FD0FF0E01011E27FF0EDC
:106030001F23FF0E2023FF0E212345D01705D8A4D0
:106040001CD01605D8A40BD04705D8B416D0010E25
:1060500000016427000E6523662367230ED0020E1D
:106060001619D8A40AD04705D8B407D0010E0001EC
:106070006027000E61236223632301014705D8A432
:1060800022D02A05D8A41FD09C51D8B402D09C0796
:106090001AD00A0E9C6F1605D8A409D00001692BEE
:1060A000010E6427000E6523662367230CD0020EC1
:1060B0001619D8A408D00001682B010E6027000E25
:1060C0006123622363230201DB51DC11D8B4120087
:1060D00001D812000500FA6EDB51FD6EDC51FE6E38
:1060E000FF6AFA501200000E216E000E206E226828
:1060F000000E236E20EE04F01650D9261750DA2237
:106100002350060D000EF324E16E030EF420E26E20
:10611000DE50E61818E1DE50E61815E1DE50E6180C
:1061200012E1DE50E618D8A40ED02350060D040E5E
:10613000F324D96E030EF420DA6EDECF20F0DDCF2B
:1061400021F023C022F0232A180E2364D3D722AED5
:1061500050D020EE04F01650D9261750DA227AC01B
:1061600010F07BC011F0000E136E060E126EE5ECFF
:1061700046F0000E1024E16E030E1120E26EDECF19
:10618000E6FFDECFE6FFDECFE6FFDECFE6FF20EE66
:1061900008F01650D9261750DA227AC010F07BC0CA
:1061A00011F0000E136E060E126EE5EC46F0040EB2
:1061B0001024E16E030E1120E26EDECFE6FFDDCF8C
:1061C000E5FF00017A4B7B2B7B5104E1190E7A5DD0
:1061D000D8A004D0000E7B6F000E7A6F7CC010F048
:1061E0007DC011F029EC48F0186E1850166E176A31
:1061F00012002250060D040EF324D96E030EF42073
:10620000DA6E7CC0DEFF7DC0DDFF20C016F021C04D
:1062100017F01200000E226E500E5DEC41F0FF0AE6
:10622000D8A44CD0100E226E500E5DEC41F0FF0A47
:10623000D8A444D0000E8CEC2DF0000E0001D06FDD
:10624000000ED16F000ED26F000ED36F000ECC6F18
:10625000000ECD6F000ECE6F000ECF6F000EC96F17
:10626000000EC86F000ECB6F000ECA6F000EC06F1D
:10627000000EC16F000EC26F000EC36F000EC46F20
:10628000000EC56F000EC66F000EC76F030EE2EC66
:1062900044F0000E0001B86F000EB96F000EBE6F23
:1062A000000EBA6F000EBB6F000EBC6F000EBD6F0C
:1062B000020EE2EC44F0000E0001B46F000E236EFB
:1062C000000E226E980E246E256A000E276E100EA8
:1062D000266E500EB1EC3EF0000E236E100E226EB4
:1062E000A80E246E256A000E276E100E266E500E24
:1062F000B1EC3EF0000E236E200E226EB80E246E1E
:10630000256A000E276E100E266E500EB1EC3EF080
:10631000000E236E300E226EC80E246E256A000E0B
:10632000276E100E266E500EB1EC3EF089EC29F06F
:10633000BAC03CF1BBC03DF1BCC03EF1BDC03FF1B5
:106340001200020E0001B419D8B407D0020E0101E8
:106350001E27000E1F23202308D0FF0E01011E2739
:10636000FF0E1F23FF0E2023FF0E2123010ED4EC6E
:1063700035F001011E51295C1F512A5820512B581C
:106380002C50800A0001D86F01012151800A0001C0
:10639000D859D8B008D0020EB419D8B404D0010E20
:1063A000D4EC35F01AD0030ED4EC35F029500101AD
:1063B0001E5D2A501F592B5020592151800A00017F
:1063C000D86F2C50800AD859D8B00FD0020EB4190B
:1063D000D8B40BD0030ED4EC35F029C01EF12AC07E
:1063E0001FF12BC020F12CC021F1000198510A0DA2
:1063F000F3CFD8F0F4CFD9F0000ED9BFFF0EDA6F8B
:10640000DB6F01011E510001D85DDC6F01011F51DE
:106410000001D959DD6F010120510001DA59DE6F09
:10642000010121510001DB59DF6FCC51DC25E06F08
:10643000CD51DD21E16FCE51DE21E26FCF51DF2161
:10644000E36FC80EE0250101186F000E0001E12185
:106450000101196F000E0001E22101011A6F000E07
:106460000001E32101011B6F1200030E010100195D
:10647000D8B40CD091A204D00001B351D8B406D046
:1064800091A00AD00001B305D8A406D001010305EC
:10649000D8A402D0000E006F01010005D8B410D0BE
:1064A000020E0019D8B40CD091A004D00001B35151
:1064B000D8B406D091A20AD00001B305D8A406D062
:1064C00001010405D8A402D0000E006F01012605C9
:1064D000D8B4120000019F05D8A42BD001010105FA
:1064E000D8A427D02751D8A424D00005D8B404D0EC
:1064F000020E0019D8A407D00001A005D8A403D02B
:10650000000E010115D0030E01010019D8A411D00D
:106510000001A051D8A40DD0010111BF05D0115127
:1065200008E11005D8B005D02705D8A402D0000E88
:10653000006F0001A105D8B403D0AE05D8A41200A5
:1065400001010205D8A412002751D8A41200030E9D
:106550000019D8A408D00001A351D8A404D0000E7B
:106560000101006F120001010005D8B404D0020E31
:106570000019D8A404D00001A305D8B404D00001A8
:10658000AE05D8A41200000E0101006F1200000138
:10659000D96F000E0001D86F01014805D8A402D0C0
:1065A000010E46D000019C51140DF3CF32F0F4CF10
:1065B00033F0000E33BEFF0E346E356ECC51325CBC
:1065C000CD513358CE513458CF513558D8B033D03F
:1065D000020ED919D8A42FD0D89098319C6101D03F
:1065E000DFD79C51140DF3CF32F0F4CF33F0000E0F
:1065F00033BEFF0E346E356ED80E3224366EFF0E6B
:106600003320376EFF0E3420386EFF0E3520396E82
:1066100001011E51365C1F513758205138583950EE
:10662000800A3A6E2151800A3A58D8A0B9D7000E94
:106630000001D86F32D0020ED919D8B403D0D905D1
:10664000D8A42BD098511D6E1E6A1F6A206A0A0EAC
:10665000216E000E226E000E236E000E246E0FECD3
:1066600042F01D500001CC5D1E50CD591F50CE5937
:106670002050CF59D8A094D7D951D4EC35F001018E
:106680001E51295C1F512A5820512B582C50800A2A
:10669000326E2151800A3258C8D7D8511200340EB8
:1066A000106E116A26C012F027C013F0000E156E8E
:1066B000040E146EE4EC43F0280E106E116A300ED6
:1066C000126E136A000E156E040E146EE4EC43F0A5
:1066D000D70E106E020E116E340E126E136A000E7B
:1066E000156E040E146EE4EC43F00F0E0201DA177F
:1066F000300E106E116AD70E126E020E136E000E5F
:10670000156E040E146EE4EC43F0338A30EC47F05F
:10671000300E1B6E1C6AB6EC36F02C0E106E116A31
:10672000300E126E136A000E156E040E146EE4EC39
:1067300043F0300E106E116AD70E126E020E136EF9
:10674000000E156E040E146EE4EC43F0600E33126E
:1067500030EC47F0300E1B6E1C6AB6EC36F0D30EF0
:10676000106E020E116E300E126E136A000E156E50
:10677000040E146EE4EC43F0CF0E106E020E116E98
:106780002C0E126E136A000E156E040E146EE4ECDD
:1067900043F0300E106E116A280E126E136A000E4E
:1067A000156E040E146EE4EC43F012000001B351B8
:1067B000D8A406D0000E8DB2010E0101786F05D06D
:1067C000000E8DB4010E0101786F79517819D8A4AB
:1067D00002D07A2B04D078C179F1000E7A6F7A5109
:1067E000D8A478C103F10001B351D8A406D0000E9B
:1067F0008DB4010E0101756F05D0000E8DB2010E32
:106800000101756F75517619D8A402D0772B04D089
:1068100075C176F1000E776F7751D8A475C104F178
:10682000000E8DB8010E6A6F6A516B19D8A402D0A0
:106830006C2B04D06AC16BF1000E6C6F6C51D8A444
:106840006AC101F1000E8DBA010E6D6F6E516D19A6
:10685000D8A402D06F2B04D06DC16EF1000E6F6F03
:106860006F51D8A46DC170F1000E8DBC010E716F17
:1068700072517119D8A402D0732B04D071C172F176
:10688000000E736F7351D8A471C174F10001A2514D
:10689000D8A40DD001017051D8A406D07405D8A495
:1068A00003D0000E026F1200010E026F120070C1C1
:1068B00002F11200000E196E000E186E0101005157
:1068C000D8A41200DBBF05D0DB5172E1DA05D8B0E5
:1068D0001200000EDB6F140EDA6F000E176E1750E9
:1068E000020D000EF324D96E020EF420DA6EDE5093
:1068F0001826DD501922172A1D0E1764F0D718C06C
:1069000010F019C011F0000E136E1E0E126E8FECF7
:1069100042F010C018F011C019F0EB0E185C010E17
:106920001958D8A006D0120E185C020E1958D8A01B
:1069300004D0010E196EFE0E186E1D0E00018F653B
