:040000004EEF00F0CF
:100008005082FACF0AF0FBCF0BF0D9CF0CF0DACF41
:100018000DF0F3CF0EF0F4CF0FF00E01C2BBCAAB58
:1000280003D066EC47F028D0F2AC26D0C5B9CDA9EC
:1000380009D001D821D00500FA6E0201ED51FD6EFC
:10004800EE510BD0C5BBCDAB0CD001D815D00500F7
:10005800FA6E0201EB51FD6EEC51FE6EFF6AFA502A
:100068001200C6B1CEA103D0F5EC44F005D0C6B35A
:10007800CEA302D09EEC30F00FC0F4FF0EC0F3FF09
:100088000DC0DAFF0CC0D9FF0BC0FBFF0AC0FAFF96
:0800980050921100B4EF38F0A2
:100F0000009092FC91EE913478D47C86928082DAC3
:100F100092D292CA92C292BA92B292AA927C923A17
:100F20008700A2D020EE04F0E951D926EA51DA2256
:100F3000DE04DE10D8A406D0E9C0D9FFEAC0DAFF8B
:100F4000010E4CD020EE04F0E951D926EA51DA2204
:100F5000050EDE18DE10D8A406D0E9C0D9FFEAC01D
:100F6000DAFF030E3BD020EE04F0E951D926EA5116
:100F7000DA22080EDE18DE10D8A406D0E9C0D9FFA8
:100F8000EAC0DAFF040E2AD020EE04F0E951D92697
:100F9000EA51DA22140EDE18DE10D8A487D0E9C098
:100FA000D9FFEAC0DAFF060E19D020EE04F0E951AD
:100FB000D926EA51DA22020EDE18DE10D8A406D0B5
:100FC000E9C0D9FFEAC0DAFF020E08D020EE04F033
:100FD000E951D926EA51DA22030E3BD0DE6E000E2B
:100FE000DD6E64D020EE04F0E951D926EA51DA2210
:100FF000040EDE18DE10D8A4E9D72FD020EE04F0BE
:10100000E951D926EA51DA22080EDE18DE10D8A4FA
:10101000DDD7E9C0D9FFEAC0DAFF050EDFD720EE41
:1010200004F0E951D926EA51DA22090EDE18DE1061
:10103000D8A408D0E9C0D9FFEAC0DAFF040EDE6EFA
:10104000000EDD6E20EE04F0E951D926EA51DA22D5
:10105000040EDE18DE10D8A429D0E9C0D9FFEAC0FA
:10106000DAFF000EBBD7FFD7E9C0D9FFEAC0DAFF2D
:10107000DF50EB6FEC6BEC51000AD8A4F4D7EB51C6
:10108000000AD8B44FD7010AD8B48FD7030AD8B40E
:10109000D9D7010AD8B4A6D7070AD8B4AFD7010A5E
:1010A000D8B4BDD7030AD8B4CDD7DDD7BD0E126EE4
:1010B000020E136E000E156E000E146E6FEC41F0F2
:1010C000BFD3060E01013B19D8A42FD0000EA96F83
:1010D000C80EA86F010E406F000E686F68C13AF02D
:1010E0006651CAEC0FF00009D8B41200BD0E126EA2
:1010F000020E136E000E156E080E146E6FEC41F0AA
:101100000A0E106E495033EC45F0F60DF3504924A9
:101110001C6E000E1E6E140E1D6E0A0E106E4950CF
:1011200033EC45F0C3EC48F01200050E3B19D8A48F
:101130002FD0000EA96FC80EA86F010E406F010ED0
:10114000686F68C13AF06651CAEC0FF00009D8B474
:101150001200BD0E126E020E136E000E156E080EFA
:10116000146E6FEC41F00A0E106E495033EC45F0EE
:10117000F60DF35049241C6E000E1E6E140E1D6EEB
:101180000A0E106E495033EC45F0C3EC48F01200E3
:101190004D50D8A423D0000EA96F640EA86F6851DB
:1011A000D8A403D06705686F01D068076851020DA5
:1011B000520EF324D96E010EF420DA6EDF501C6E4D
:1011C0006851020D510EF324D96E010EF420DA6E2F
:1011D000DF5027EC48F0010E4F6E1200170E4D182D
:1011E000D8A421D0000EA96F640EA86F682B675198
:1011F000685DD8A002D0000E686F6851020D520ED3
:10120000F324D96E010EF420DA6EDF501C6E6851A3
:10121000020D510EF324D96E010EF420DA6EDF5068
:1012200027EC48F0D8D70C0E66619AD04D50D8A460
:1012300053D00A0E4E6450D0000EA96F640EA86FF2
:1012400068C13AF06651CAEC0FF00009D8B4C3D7B0
:10125000BD0E126E020E136E000E156E010E146E90
:101260006FEC41F0980E1C0F0001EB6FEB5147182B
:1012700001E14852D8B409D0980E1B0FEB6FEB5127
:10128000471801E14852D8A416D04950020D520E19
:10129000F324D96E010EF420DA6EDF501C6E495033
:1012A000020D510EF324D96E010EF420DA6EDF50D8
:1012B00027EC48F090D70A0E106E495033EC45F0F9
:1012C000F60DF35049241C6E0A0E106E495033EC93
:1012D00045F027EC48F07FD7A9BF08D0A95103E11A
:1012E000A805D8A003D04D50D8A41ED0020E666128
:1012F0001BD0000EA96F000EA86FED0E126E010E2E
:10130000136E000E156E070E146E6FEC41F0180E82
:101310001C6E180E27EC48F0000E0101696F010EDB
:101320004F6E78EC49F01200A9BF08D0A95103E133
:10133000A805D8A003D04D50D8A404D0655181ECA5
:101340001EF049D7A9BF05D0A95102E1A805D8B020
:101350001200010E66651200655181EC1EF03BD74C
:10136000270E4D18D8A432D00A0E4E642FD00D0E81
:101370006619D8B42BD0000EA96F640EA86F68C18F
:101380003AF06651CAEC0FF00009D8B424D7BD0E6C
:10139000126E020E136E000E156E080E146E6FECB8
:1013A00041F00A0E106E495033EC45F0F60DF35043
:1013B00049241C6E000E1E6E140E1D6E0A0E106E59
:1013C000495033EC45F0C3EC48F005D70D0E6619D3
:1013D000D8A427D0A651A711D8A423D0000E00016D
:1013E000B86F000EB96F000EBE6F020E50EC45F0E4
:1013F000ED0E126E010E136E000E156E070E146EBA
:101400006FEC41F0180E1C6E180E27EC48F0010E20
:101410004F6E78EC49F0000E0101A96F000EA86F25
:101420001200A9BF08D0A95103E1A805D8A003D094
:101430004D50D8A41200ED0E126E010E136E000E68
:10144000156E070E146E6FEC41F0180E1C6E180E20
:1014500027EC48F078EC49F0010E4F6EDCD74D5088
:10146000D8A447D0000E0101A96F640EA86F49509F
:101470004B5CD8A003D04AC049F001D04906980E71
:101480001C0F0001EB6FEB51471801E14852D8B433
:1014900009D0980E1B0FEB6FEB51471801E1485232
:1014A000D8A416D04950020D520EF324D96E010E65
:1014B000F420DA6EDF501C6E4950020D510EF324F9
:1014C000D96E010EF420DA6EDF5027EC48F083D697
:1014D0000A0E106E495033EC45F0F60DF3504924D6
:1014E0001C6E0A0E106E495033EC45F027EC48F0A4
:1014F00072D6170E4D18D8A445D0000E0101A96F61
:10150000640EA86F492A49504A5CD8A04BC049F0E4
:10151000980E1C0F0001EB6FEB51471801E1485288
:10152000D8B409D0980E1B0FEB6FEB51471801E1AF
:101530004852D8A416D04950020D520EF324D96E49
:10154000010EF420DA6EDF501C6E4950020D510E70
:10155000F324D96E010EF420DA6EDF5027EC48F048
:101560003AD60A0E106E495033EC45F0F60DF350A2
:1015700049241C6E0A0E106E495033EC45F027ECDE
:1015800048F029D64D50D8A423D0090E4E6420D05F
:10159000000E0101A96F640EA86F47C0D9FF48C0B3
:1015A000DAFF49C0DFFFBD0E126E020E136E000E91
:1015B000156E020E146E6FEC41F0010E1C6E190ECA
:1015C00027EC48F0000E0101A76F280EA66F03D686
:1015D0000101A9BF08D0A95103E1A805D8A003D0F3
:1015E0004D50D8A41200000EA96F640EA86F66516A
:1015F00081EC1EF0BD0E126E020E136E000E156E03
:10160000030E146E6FEC41F0E6D50101A7BF05D0C3
:10161000A75102E1A605D8B01200000EA96F640E12
:10162000A86F6605D8A404D0080E6819D8B40AD0EB
:10163000980E1C0F0001EB6FEB51471801E1485267
:10164000D8A405D00001B451B3EC2DF023D0010192
:101650006605D8B404D00A0E6619D8A404D0010EC9
:1016600050EC45F017D06805D8A40ED047C0D9FF7C
:1016700048C0DAFFDF50D8B407D0060E6619D8A4E8
:1016800003D0090E00019A6F010E50EC45F0000ED8
:1016900050EC45F0BD0E126E020E136E000E156E6C
:1016A000040E146E6FEC41F00101682B020E6661AE
:1016B00005D0692B665181EC1EF012006751685D00
:1016C000D8A005D0692B655181EC1EF0120066513F
:1016D00081EC1EF012000101A9BF05D0A95102E161
:1016E000A805D8B012000001F851F911D8A410D003
:1016F0000101692B665181EC1EF0BD0E126E020EC7
:10170000136E000E156E040E146E6FEC41F0120095
:10171000000E0101A96F3C0EA86FF9C110F0FAC1CB
:1017200011F0FBC112F0FCC113F0F8C014F0F9C0C5
:1017300015F0166A176A6CEC3DF01050496EF8C04F
:1017400014F0F9C015F0166A176AF9C110F0FAC161
:1017500011F0FBC112F0FCC113F06CEC3DF010C0B5
:101760001DF011C01EF012C01FF013C020F0F8C011
:1017700021F0F9C022F0236A246A7DEC42F01D506A
:101780000101F95DF96F1E50FA59FA6F1F50FB59AC
:10179000FB6F2050FC59FC6FF8C010F0F9C011F03D
:1017A000000E136E640E126EFDEC42F010C0F8F0E5
:1017B00011C0F9F00A0E106E495033EC45F0F60DE9
:1017C000F35049241C6E000E1E6E0A0E1D6E0A0E8A
:1017D000106E495033EC45F0C3EC48F012000101A3
:1017E000FD05D8A404D0000E496E000EFD6F6AEC12
:1017F00019F012000FEC39F01200B8EC45F00101BD
:101800002651D8A41200ED0E126E010E136E000EBA
:10181000156E070E146E6FEC41F0BD0E126E020EC7
:10182000136E000E156E040E146E6FEC41F0180E60
:101830001C6E180E27EC48F0020E50EC45F0E9D56E
:10184000E9C0D9FFEAC0DAFFDF500001EB6FEC6BB3
:10185000EC51000AD8A41200EB51000AD8B431D4DC
:10186000010AD8B4FCD5030AD8B4CFD6010AD8B43B
:1018700032D7070AD8B4B3D7010AD8B4BBD7030A02
:10188000D8A41200BAD7CCEC28F03A6EB8D020EE2B
:1018900004F0DC51D926DD51DA220A0EDE18DE1002
:1018A000D8A40DD0A751D8B40AD001012A51D8A488
:1018B00006D0DCC0D9FFDDC0DAFF020E8AD00001FD
:1018C00020EE04F0DC51D926DD51DA220A0EDE18B2
:1018D000DE10D8A40DD0A751D8B404D001012A0538
:1018E000D8A406D0DCC0D9FFDDC0DAFF040E71D069
:1018F000000120EE04F0DC51D926DD51DA220B0E76
:10190000DE18DE10D8A49BD0DCC0D9FFDDC0DAFF22
:10191000010E5FD020EE04F0DC51D926DD51DA2231
:101920000A0EDE18DE10D8A407D0A751D8B404D010
:1019300001012A51D8B4BDD7000120EE04F0DC51DA
:10194000D926DD51DA220A0EDE18DE10D8A407D01F
:10195000A751D8B4C7D701012A05D8B4C3D700010D
:1019600020EE04F0DC51D926DD51DA22100EDE180B
:10197000DE10D8A464D03CD020EE04F0DC51D9268F
:10198000DD51DA220B0EDE18DE10D8A4E9D7DCC058
:10199000D9FFDDC0DAFF030E1CD020EE04F0DC51CD
:1019A000D926DD51DA220A0EDE18DE10D8A4D8D7E7
:1019B00099D720EE04F0DC51D926DD51DA220B0E46
:1019C000DE18DE10D8A4CCD7DCC0D9FFDDC0DAFF2A
:1019D000050EDE6E000EDD6E32D020EE04F0DC511E
:1019E000D926DD51DA220A0EDE18DE10D8A4B8D7C7
:1019F000DCC0D9FFDDC0DAFF000EEBD7FFD7DCC0BB
:101A0000D9FFDDC0DAFFDF500001DE6FDF6BDF5191
:101A1000000AD8A4F3D7DE51000AD8B438D7010A97
:101A2000D8B478D7030AD8B4A7D7010AD8B4B5D7A1
:101A3000070AD8B4BED7010AD8B4CFD7DFD7B20EC1
:101A4000126E020E136E000E156E000E146E6FEC09
:101A500041F080D201010305D8A43AD0010E000163
:101A6000816FB20E126E020E136E000E156E0A0E0C
:101A7000146E6FEC41F0010E0101006F2CEC3EF092
:101A8000A751D8B416D001012A51D8A412D0010E02
:101A9000D16F2C0ED06F000ECF6F780ECE6F000E70
:101AA000DF6F140EDE6F010E476F000E0001816FB5
:101AB0001200000E0101476F000ECF6F500ECE6F67
:101AC000000EDF6F140EDE6F000E0001816F12003A
:101AD000B20E126E020E136E000E156E0B0E146E09
:101AE0006FEC41F0030E0101006F010E476F120011
:101AF00001010305D8B40ED000018105D8B40AD085
:101B00004D50D8B403D03A04D8A428D001012A05F6
:101B1000D8A424D0010E0001816F000E0101006FD6
:101B2000BFBF05D0BF5102E1BE05D8B01200B20E52
:101B3000126E020E136E000E156E0A0E146E6FEC0E
:101B400041F0010E0101006F2CEC3EF0A751D8B41A
:101B5000B0D701012A51D8B49AD7ABD701010051AF
:101B6000D8A403D0A8EC40F01200000EBF6F280EDE
:101B7000BE6F120001010405D8A4D1BF09D0D15114
:101B800003E1D005D8A004D000018105D8A42AD053
:101B9000010E0001816F000E0101006FBFBF05D073
:101BA000BF5102E1BE05D8B01200B20E126E020E95
:101BB000136E000E156E0B0E146E6FEC41F0030EDB
:101BC0000101006F000ED16F640ED06F000ECF6F59
:101BD000640ECE6F000EDF6F140EDE6F000E00017C
:101BE000816F120001010051D8B4BCD7000EBF6F45
:101BF000280EBE6FDFBF05D0DF5102E1DE05D8B091
:101C00001200CFBF1200CF5103E1CE05D8A01200C1
:101C10006EC010F06FC011F0126A136A30C114F078
:101C200031C115F032C116F033C117F00FEC41F09D
:101C300010C06EF011C06FF0120001010305D8B49E
:101C400004D000018105D8A420D0010E0001816FCD
:101C5000000E0101006FBFBF05D0BF5102E1BE05FC
:101C6000D8B01200B20E126E020E136E000E156E78
:101C70000A0E146E6FEC41F0010E0101006F000EB0
:101C8000476F000ECF6F3C0EA4D701010051D8B4AE
:101C900069D7000EBF6F280EBE6FDFBF05D0DF51C2
:101CA00002E1DE05D8B01200CFBF1200CF5103E130
:101CB000CE05D8A0120070C010F071C011F0126AE9
:101CC000136A30C114F031C115F032C116F033C1BE
:101CD00017F00FEC41F010C070F011C071F012005D
:101CE00001010405D8B411D000018105D8B40DD08C
:101CF00001014705D8A42CD04D50D8B403D03A04E4
:101D0000D8A426D02A05D8A423D0000E0101176F2D
:101D1000000E476F010E0001816F000E0101006F80
:101D2000BFBF05D0BF5102E1BE05D8B01200B20E50
:101D3000126E020E136E000E156E0B0E146E6FEC0B
:101D400041F0030E0101006F000ECF6F500E41D71E
:101D50000051D8B407D74D50D8B403D03A04D8A412
:101D60000FD02A05D8A40CD04751D8A409D0010E11
:101D7000476F010E4F6E000ECF6F500ECE6F1200E8
:101D80004705D8A40CD0000EBF6F280EBE6FCFBF82
:101D90001200CF5103E1CE05D8A0120039D7010EB1
:101DA000176F000EBF6F280EBE6FDFBF05D0DF516B
:101DB00002E1DE05D8B01200CFBF1200CF5103E11F
:101DC000CE05D8A012006AC010F06BC011F0126AE4
:101DD000136A2EC114F02FC115F0166A176A0FECA2
:101DE00041F010C06AF011C06BF012000101030550
:101DF000D8B40CD04705D8A46FD04D50D8B403D078
:101E00003A04D8A469D02A05D8A466D0010E1C6F64
:101E1000000E176F000E476F000E006FB20E126EAD
:101E2000020E136E000E156E0A0E146E6FEC41F06A
:101E3000E20E126E010E136E000E156E130E146E6E
:101E40006FEC41F060C0D0F061C0D1F062C0D2F060
:101E500063C0D3F064C0CCF065C0CDF066C0CEF0F6
:101E600067C0CFF001012A05D8A405D068C099F059
:101E700069C098F005D0040E0001996F040E986FA8
:101E80006CC0C8F06DC0C9F06AC0CAF06BC0CBF0BE
:101E90006EC0C4F06FC0C5F00001C66BC76B70C0E8
:101EA000C0F071C0C1F0C26BC36B000E50EC45F0C6
:101EB000030E50EC45F0020E50EC45F0000E01010F
:101EC000266F000E1E6F000E1F6F000E206F000E9B
:101ED000216F000E486F12000051D8B443D64D5008
:101EE000D8B403D03A04D8A403D02A05D8B43FD735
:101EF0004705D8A408D0CFBF1200CF5103E1CE05CB
:101F0000D8A01200D8D6010E176F000EBF6F280E92
:101F1000BE6FDFBF05D0DF5102E1DE05D8B0120091
:101F2000CFBF1200CF5103E1CE05D8A012006CC084
:101F300010F06DC011F0126A136A2EC114F02FC197
:101F400015F0166A176A0FEC41F010C06CF011C062
:101F50006DF01200DCC0D9FFDDC0DAFFDF500001F8
:101F6000DE6FDF6BDF51000AD8A41200DE51000AD9
:101F7000D8B470D5010AD8B4BBD5030AD8B4FAD501
:101F8000010AD8B45AD6070AD8B4AAD6010AD8A4E6
:101F900012002CD70001DE6F000E0001E06F54D25A
:101FA00068C169F1000E4B6E34D0040E81EC1EF056
:101FB00074D2050E81EC1EF070D2060E81EC1EF07C
:101FC0006CD2630E4A6E9CC049F09C0E476E486A04
:101FD000010EE06F62D2070E81EC1EF05ED2080E99
:101FE00081EC1EF05AD2090E81EC1EF056D2020E80
:101FF0004A6EA4C049F0A40EE9D7030E4A6EA5C0EC
:1020000049F0A50EE3D7010E4A6EA6C049F0A60E10
:10201000DDD73A50DC6FDD6BDD51000AD8A43DD22C
:10202000DC51000AD8B4C1D7010AD8B4C2D7030A18
:10203000D8B4C3D7010AD8B4C4D7070AD8B4CBD709
:10204000010AD8B4CCD7030AD8B4CDD7010AD8B482
:10205000CED70F0AD8B4D1D7010AD8B4D4D71DD25D
:1020600068C169F1010E4A6E000E4B6E57D00A0E20
:1020700081EC1EF012D20B0E81EC1EF00ED2630E1C
:102080004A6EACC049F0AC0EA1D7090E4A6E010EE3
:102090004B6EADC049F0AD0E99D7AFC049F0AF0E51
:1020A00095D7090E4A6E010E4B6EB0C049F0B00EC6
:1020B0008DD7000E496E000E0101A96F000EA86FAA
:1020C000270E0001F96F100EF86F000E0101C16FAD
:1020D000000EC06F3CC1F9F13DC1FAF13EC1FBF108
:1020E0003FC1FCF1BD0E126E020E136E000E156E96
:1020F000050E146E6FEC41F0D0D1000E496E010E4A
:10210000E06F000E476E000E486EC7D1030E4A6E98
:10211000000E4B6EB1C049F0B10E58D73A50DC6F8B
:10212000DD6BDD51000AD8A4B8D1DC51000AD8B467
:102130009ED7010AD8B49FD7030AD8B4A0D7010A02
:10214000D8B4A3D7070AD8B4A8D1010AD8B4A5D760
:10215000030AD8B4A6D7010AD8B4ABD70F0AD8B4AB
:10216000CCD7010AD8B4D2D798D1BD0E126E020EC8
:10217000136E000E156E140E146E6FEC41F0E20E2D
:10218000126E010E136E000E156E140E146E6FECAF
:1021900041F0010E0101266F000E2A6F010E50EC76
:1021A00045F07BD1BD0E126E020E136E000E156E41
:1021B000140E146E6FEC41F0E20E126E010E136EEF
:1021C000000E156E140E146E6FEC41F0010E01013D
:1021D000266F010E2A6F010E50EC45F05ED1B4C09F
:1021E00049F0030E81EC1EF0B40E476E486A010EF2
:1021F0000001E06F020E4A6E000E4B6E4ED1B3C06E
:1022000049F0020E81EC1EF0B30E476E486A010ED3
:102210000001E06F010EEFD73A50DC6FDD6BDD514E
:10222000000AD8A43AD1DC51000AD8B49ED7010ADA
:10223000D8B4B8D7030AD8B4D2D7010AD8B4DFD7F4
:102240002CD1980E01D0990E476E486A0ED03A50A4
:10225000DC6FDD6BDD51000AD8A407D0DC51000A29
:10226000D8B4EFD7010AD8B4EED72D0E4A6E000EBF
:102270004B6E010EE06F47C0D9FF48C0DAFFDF5058
:10228000496E0BD1090E4A6E000E4B6E0FD0020E36
:102290009B6102D0000E01D0090E4B6E9A0E03D046
:1022A0009B0E01D0A70E476E486AE3D73A50DC6F09
:1022B000DD6BDD51000AD8A4DCD7DC51000AD8B4AC
:1022C000E6D7010AD8B4ECD7030AD8B4EBD7D1D7F4
:1022D0009D0E01D09E0E476E486A0ED03A50DC6FBC
:1022E000DD6BDD51000AD8A407D0DC51000AD8B458
:1022F000EFD7010AD8B4EED7630EB8D79F0E34D00B
:10230000A00E32D03A50DC6FDD6BDD51000AD8A44C
:102310002DD0DC51000AD8B4F1D7010AD8B4F0D7D7
:1023200025D0A10E21D0A20E1FD0A30E1DD0AE0E1F
:102330001BD03A50DC6FDD6BDD51000AD8A416D0FB
:10234000DC51000AD8B4EDD7010AD8B4ECD7030A9F
:10235000D8B4EBD7010AD8B4EAD708D0A80E476E94
:10236000486A020E83D7A90E476E486A010E7ED7CF
:102370003A50DC6FDD6BDD51000AD8A47AD7DC510E
:10238000000AD8B4EBD7010AD8B4EDD772D7AA0E99
:10239000476E486A090E6AD7AB0EFAD73A50DC6F1F
:1023A000DD6BDD51000AD8A464D7DC51000AD8B433
:1023B000EED7010AD8B4F0D75CD7F80E476E010EFD
:1023C000486E000EDF6F0DD0DFC0F8F1DFC02EF0D9
:1023D00001016851FDEC3AF00009D8A408D00001D1
:1023E000DF2B20EEB8F0DF51DE5CD8B0EDD720EE69
:1023F000B8F005D0B90E476E486A20EEB9F0DF504C
:102400004A6E0ED03A50DC6FDD6BDD51000AD8A465
:1024100007D0DC51000AD8B4D0D7010AD8B4EAD723
:1024200047C0D9FF48C0DAFFDF50466E000E4B6E42
:10243000010E0001E06F47C0D9FF48C0DAFFDF504E
:10244000496E1AEC48F029D0DE51DC6FDD6BDD51AE
:10245000000AD8A422D0DC51000AD8B4A1D5010AC0
:10246000D8B4FED5050AD8B4D7D6010AD8B4EFD669
:10247000030AD8B407D7010AD8B430D70F0AD8B4A2
:1024800041D7010AD8B455D7030AD8B471D7010A85
:10249000D8B484D7070AD8B4B5D70001E0511200E8
:1024A00053D08551D8A466D020EE04F0ED51D92642
:1024B000EE51DA22060EDE18DE10D8A406D0EDC0EA
:1024C000D9FFEEC0DAFF010E1DD020EE04F0ED5171
:1024D000D926EE51DA22110EDE18DE10D8A44AD029
:1024E000EDC0D9FFEEC0DAFF020E0CD020EE04F0F2
:1024F000ED51D926EE51DA22070EDE18DE10D8A4EF
:1025000039D00FD0DE6E000EDD6E34D020EE04F038
:10251000ED51D926EE51DA22070EDE18DE10D8A4CE
:1025200006D0EDC0D9FFEEC0DAFF000EEBD720EEEB
:1025300004F0ED51D926EE51DA22060EDE18DE1037
:10254000D8A418D0BCD7FFD7EDC0D9FFEEC0DAFFB2
:10255000DF50EF6FF06BF051000AD8A4F4D7EF51C1
:10256000000AD8B49ED7010AD8B4C0D7030AD8B499
:10257000CDD7E9D7ED0E126E010E136E000E156E5B
:10258000000E146E6FEC41F0F8D14D50D8A416D067
:10259000640E4E6413D0010E81EC1EF0ED0E126E2F
:1025A000010E136E000E156E060E146E6FEC41F0E8
:1025B000010E4F6E000E0001806F12004D50D8A426
:1025C0000BD0140E4E6408D0000E1C6E100E27ECBB
:1025D00048F0010E806F12008005D8A404D0000ED0
:1025E00081EC1EF0DBD7270E4D18D8A407D0780E4B
:1025F0004E6404D00D0E81EC1EF0D0D7270E4D187E
:10260000D8A40BD0140E4E6408D0130E1C6E050E09
:1026100027EC48F0020E806F1200020E8019D8A439
:1026200004D00C0E81EC1EF0B9D74D50D8A409D0BF
:1026300001010351D8A405D0010E096F030E006FEC
:102640001200170E4D18D8A409D001010451D8A4C6
:1026500005D0010E096F010E006F1200010109057E
:10266000D8A405D0000E096F000E006F1200060EF0
:102670003B18D8B404D0050E3B18D8A415D0630E6F
:10268000446412D00C0E81EC1EF0ED0E126E010EA1
:10269000136E000E156E060E146E6FEC41F03BC00B
:1026A0003BF1010E456E1200A7BF05D0A75111E105
:1026B000A605D8B012000305D8A406D00C0E1C6ED7
:1026C0000F0E27EC48F01200180E1C6E180E27ECA7
:1026D00048F01200BD0EE96F020EEA6F91EC07F0B0
:1026E0001200000E01018B6F040EE219E311D8A451
:1026F00013D00001A405D8A407D001015005D8A427
:1027000003D0010E8B6F08D00001A405D8B404D00B
:1027100001012351D8A4F5D701010051D8A469D0F3
:10272000040EE219E311D8A403D08B51D8B408D019
:10273000E205E311D8B404D0E251E311D8A459D092
:102740004D50D8A415D0640E4E6412D0010E81EC09
:102750001EF0ED0E126E010E136E000E156E060EBB
:10276000146E6FEC41F0010E4F6E000E000137D079
:102770004D50D8A40AD0140E4E6407D0000E1C6E23
:10278000100E27EC48F0010E2AD000018005D8A4D5
:102790000ED0000E81EC1EF0010E4F6E000E0001F7
:1027A000806F000E0101EE6F010EED6F1200270E1B
:1027B0004D18D8A407D0780E4E6404D00D0E81ECCD
:1027C0001EF0C7D7270E4D18D8A40BD0140E4E6498
:1027D00008D0130E1C6E050E27EC48F0020E806F19
:1027E00008D0020E8019D8A404D00C0E81EC1EF083
:1027F000D5D60101A7BF05D0A75102E1A605D8B0E3
:1028000012004D50D8B41200270E4D18D8B4120043
:10281000030E0019D8A411D0120E1C6E000E1E6EED
:102820000A0E1D6E0C0EC3EC48F0000E0101A76FDE
:10283000040EA66F000E4F6F1200020E0019D8B4DE
:1028400003D00005D8A40AD0100E1C6E000E1E6E18
:102850000A0E1D6E000EC3EC48F0E7D70051D8A455
:102860000FD0E205E311D8A40BD0ED0E126E010ECD
:10287000136E000E156E070E146E6FEC41F0120011
:102880000051D8A474D0040EE219E311D8A46FD07B
:102890000001A405D8B40BD001012351D8B407D04E
:1028A0000B05D8B413D0030E0B19D8B40FD0000108
:1028B000A405D8A426D001015005D8A422D0020E28
:1028C0000B19D8B41ED02351D8B41BD0000EA76F5B
:1028D0000A0EA66F4F05D8A40AD0100E1C6E000E6B
:1028E0001E6E0A0E1D6E0A0EC3EC48F012000F0E8B
:1028F0001C6E000E1E6E0A0E1D6E0A0EC3EC48F012
:1029000012000001A405D8B408D001012351D8B4A5
:1029100004D0020E0B19D8B40CD00001A405D8A421
:1029200016D001015005D8A412D0020E0B19D8A45C
:102930000ED0000EA76F0A0EA66F100E1C6E000EB2
:102940001E6E0A0E1D6E0A0EC3EC48F01200010145
:102950000405D8A406D0000E1C6E0F0E27EC48F01C
:102960001200180E1C6E180E27EC48F01200180EFC
:102970001C6E180E27EC48F01200EDC0D9FFEEC017
:10298000DAFFDF500001EF6FF06BF051000AD8A4BE
:102990001200EF51000AD8B4F8D5010AD8B49AD67B
:1029A000030AD8A412009DD603D21850D96EDA6A51
:1029B000030ED92699C0DFFF1850D96EDA6A020ECD
:1029C000D92698C0DFFF1850D96EDA6A00EE11F0F0
:1029D000060EDBCFEBFFE806FCE2FDEC45F0120053
:1029E0001850D96EDA6A030ED9269BC0DFFF185043
:1029F000D96EDA6A020ED9269AC0DFFFE4D71850E2
:102A0000D96EDA6A030ED9269CC0DFFFF9D01850C0
:102A1000D96EDA6A030ED9269EC0DFFF1850D96E30
:102A2000DA6A020ED9269DC0DFFFCDD71850D96EC5
:102A3000DA6A030ED926A0C0DFFF1850D96EDA6A11
:102A4000020ED9269FC0DFFFBED71850D96EDA6AB2
:102A5000030ED926A2C0DFFF1850D96EDA6A020E23
:102A6000D926A1C0DFFFAFD71850D96EDA6A030E9E
:102A7000D926A3C0DFFFC4D01850D96EDA6A030E7E
:102A8000D926A4C0DFFFBCD01850D96EDA6A030E75
:102A9000D926A5C0DFFFB4D01850D96EDA6A030E6C
:102AA000D926A6C0DFFFACD01850D96EDA6A030E63
:102AB000D926A7C0DFFFA4D01850D96EDA6A030E5A
:102AC000D926A8C0DFFF9CD01850D96EDA6A030E51
:102AD000D926A9C0DFFF94D01850D96EDA6A030E48
:102AE000D926ABC0DFFF1850D96EDA6A020ED9269C
:102AF000AAC0DFFF68D71850D96EDA6A030ED9264C
:102B0000ACC0DFFF7DD01850D96EDA6A030ED9262B
:102B1000ADC0DFFF75D01850D96EDA6A030ED92622
:102B2000AEC0DFFF6DD01850D96EDA6A030ED92619
:102B3000AFC0DFFF65D01850D96EDA6A030ED92610
:102B4000B0C0DFFF5DD01850D96EDA6A030ED92607
:102B5000B1C0DFFF55D01850D96EDA6A030ED926FE
:102B6000B3C0DFFF4DD01850D96EDA6A030ED926F4
:102B7000B4C0DFFF45D01850D96EDA6A030ED926EB
:102B8000B9C0DFFF1850D96EDA6A020ED926B8C074
:102B9000DFFF19D720EEBCF01850E16EE26A020E9A
:102BA000E126DECFE6FFDDCFE5FF1850D96EDA6A09
:102BB00000EE11F0060EDBCFEBFFE806FCE2FDECC9
:102BC00045F020EEBAF01850E16EE26A020EE126FE
:102BD000DECFE6FFDDCFE5FF1850D96EDA6A00EEF2
:102BE00011F0060EDBCFEBFFE806FCE2FDEC45F052
:102BF00012001850D96EDA6A030ED926BEC0DFFF64
:102C00001850D96EDA6A020ED926000EDF6EDBD6B6
:102C100020EEC2F01850E16EE26A020EE126DECF2D
:102C2000E6FFDDCFE5FF1850D96EDA6A00EE11F04D
:102C3000060EDBCFEBFFE806FCE2FDEC45F020EEF4
:102C4000C0F01850E16EE26A020EE126DECFE6FF28
:102C5000DDCFE5FF1850D96EDA6A00EE11F0060EEE
:102C6000DBCFEBFFE806FCE2FDEC45F0120020EEC6
:102C7000C6F01850E16EE26A020EE126DECFE6FFF2
:102C8000DDCFE5FF1850D96EDA6A00EE11F0060EBE
:102C9000DBCFEBFFE806FCE2FDEC45F020EEC4F0F4
:102CA0001850E16EE26A020EE126DECFE6FFDDCFCC
:102CB000E5FF1850D96EDA6A00EE11F0060EDBCF90
:102CC000EBFFE806FCE2FDEC45F012001850D96E6F
:102CD000DA6A020ED926C8C0DEFFC9C0DDFF73D68E
:102CE0001850D96EDA6A020ED926CAC0DEFFCBC0F0
:102CF000DDFF69D620EECEF01850E16EE26A020EDA
:102D0000E126DECFE6FFDDCFE5FF1850D96EDA6AA7
:102D100000EE11F0060EDBCFEBFFE806FCE2FDEC67
:102D200045F020EECCF01850E16EE26A020EE1268A
:102D3000DECFE6FFDDCFE5FF1850D96EDA6A00EE90
:102D400011F0060EDBCFEBFFE806FCE2FDEC45F0F0
:102D5000120020EED2F01850E16EE26A020EE12677
:102D6000DECFE6FFDDCFE5FF1850D96EDA6A00EE60
:102D700011F0060EDBCFEBFFE806FCE2FDEC45F0C0
:102D800020EED0F01850E16EE26A020EE126DECFAE
:102D9000E6FFDDCFE5FF1850D96EDA6A00EE11F0DC
:102DA000060EDBCFEBFFE806FCE2FDEC45F012007F
:102DB0001850D96EDA6A010ED926DF50196E1A6AD8
:102DC0001A50000AD8A412001950000AD8B4EDD540
:102DD000020AD8B41CD6010AD8B48DD6060AD8B4D3
:102DE00025D6020AD8B470D60F0AD8B4ACD6020AD7
:102DF000D8B489D61A0AD8B4D8D5010AD8B4F0D52F
:102E0000030AD8B4FCD5010AD8B401D6070AD8B44D
:102E10000DD6010AD8B419D6030AD8B425D6010AAA
:102E2000D8B42AD60F0AD8B42FD6010AD8B434D6CB
:102E3000030AD8B439D6010AD8B43ED6070AD8B4A2
:102E400043D6010AD8B448D6030AD8B454D6010AE6
:102E5000D8B459D63F0AD8B45ED6010AD8B463D6DE
:102E6000030AD8B468D6010AD8B46DD6070AD8B414
:102E700072D6010AD8B477D6030AD8B47CD6010A30
:102E8000D8B488D60E0AD8B4B4D6030AD8B4C0D6FB
:102E9000060AD8B4ECD6020AD8B418D7010AD8B4B6
:102EA0001FD71F0AD8B426D7020AD8A4120051D7B8
:102EB00011C01FF0206A000E226E100E216E80D10C
:102EC00012C098F013C099F0120012C09AF013C00B
:102ED0009BF0120013C09CF0120012C09DF013C0B2
:102EE0009EF0120012C09FF013C0A0F0120012C09A
:102EF000A1F013C0A2F0120013C0A3F0120013C07F
:102F0000A4F0120013C0A5F0120013C0A6F0120026
:102F100013C0A7F0120013C0A8F0120013C0A9F04C
:102F2000120012C0AAF013C0ABF0120013C0ACF034
:102F3000120013C0ADF0120013C0AEF0120013C0A7
:102F4000AFF0120013C0B0F0120013C0B1F01200C5
:102F500013C0B3F0120013C0B4F0120012C0B8F0E6
:102F600013C0B9F012001250176E1350186E196A80
:102F70001A6A18C01AF017C019F0186A176ABA51FD
:102F80001710BA6FBB511810BB6FBC511910BC6F32
:102F9000BD511A10BD6F121C176E131C186E196AE2
:102FA0001A6A18C01AF017C019F0186A176A171CA5
:102FB0001B6E181C1C6E191C1D6E1A1C1E6EBA513D
:102FC0001B14BA6FBB511C14BB6FBC511D14BC6FDA
:102FD000BD511E14BD6F12001250BA11BA6F1350BA
:102FE000BB11BB6F000EBC11BC6F000EBD11BD6FDD
:102FF000121C176E131C186E196A1A6A171C1B6EA6
:10300000181C1C6E191C1D6E1A1C1E6EBA511B1446
:10301000BA6FBB511C14BB6FBC511D14BC6FBD51AA
:103020001E14BD6F120013C0BEF012001250176EB6
:103030001350186E196A1A6A18C01AF017C019F0DE
:10304000186A176AC0511710C06FC1511810C16FAC
:10305000C2511910C26FC3511A10C36F121C176EE0
:10306000131C186E196A1A6A18C01AF017C019F0E2
:10307000186A176A171C1B6E181C1C6E191C1D6E13
:103080001A1C1E6EC0511B14C06FC1511C14C16F9D
:10309000C2511D14C26FC3511E14C36F12001250CF
:1030A000C011C06F1350C111C16F000EC211C26FA9
:1030B000000EC311C36F121C176E131C186E196A11
:1030C0001A6A171C1B6E181C1C6E191C1D6E1A1C0C
:1030D0001E6EC0511B14C06FC1511C14C16FC25170
:1030E0001D14C26FC3511E14C36F12001250176E0D
:1030F0001350186E196A1A6A18C01AF017C019F01E
:10310000186A176AC4511710C46FC5511810C56FDB
:10311000C6511910C66FC7511A10C76F121C176E0F
:10312000131C186E196A1A6A18C01AF017C019F021
:10313000186A176A171C1B6E181C1C6E191C1D6E52
:103140001A1C1E6EC4511B14C46FC5511C14C56FCC
:10315000C6511D14C66FC7511E14C76F12001250FE
:10316000C411C46F1350C511C56F000EC611C66FD0
:10317000000EC711C76F121C176E131C186E196A48
:103180001A6A171C1B6E181C1C6E191C1D6E1A1C4B
:103190001E6EC4511B14C46FC5511C14C56FC6519B
:1031A0001D14C66FC7511E14C76F120012C0C8F09D
:1031B00013C0C9F0120012C0CAF013C0CBF0120045
:1031C0001150176E186A1850000AD8A41200175030
:1031D000000AD8B475D6020AD8B47FD6010AD8B48A
:1031E000A5D6060AD8B47ED6020AD8B497D60F0A56
:1031F000D8B4ABD6020AD8B49CD61A0AD8B460D6D2
:10320000010AD8B462D6030AD8B464D6010AD8B485
:1032100064D6070AD8B466D6010AD8B468D6030AB9
:10322000D8B46AD6010AD8B46AD60F0AD8B46AD616
:10323000010AD8B46AD6030AD8B46AD6010AD8B447
:103240006AD6070AD8B46AD6010AD8B46AD6030A7D
:10325000D8B46CD6010AD8B46CD63F0AD8B46CD6B0
:10326000010AD8B46CD6030AD8B46CD6010AD8B413
:103270006CD6070AD8B46CD6010AD8B46CD6030A47
:10328000D8B46CD6010AD8B46ED60F0AD8B4A4D676
:10329000010AD8B4C8D6030AD8B4C8D6010AD8B42B
:1032A000FED6070AD8B422D7010AD8B458D7030AE1
:1032B000D8B47CD7010AD8B47ED71F0AD8B416D7A1
:1032C000010AD8B44CD7030AD8B410D7010AD8A43D
:1032D000120045D7E40E1B6E76EC43F00001E86F58
:1032E0000101A9BF08D0A95103E1A805D8A003D0C6
:1032F0004D50D8A428D0ED0E126E010E136E000EA4
:10330000156E070E146E6FEC41F0BD0E126E020EBC
:10331000136E000E156E030E146E6FEC41F0000E6E
:103320000101406F000E3B6F180E1C6E180E27EC4B
:1033300048F078EC49F0010E4F6E000E0101A96FC4
:10334000000EA86F12004D50D8A45BD04A50D8B4DC
:1033500058D0000EA96F640EA86F49504B5CD8A0DE
:1033600003D04AC049F001D0490649C02EF0685147
:10337000FDEC3AF0E806D8B404D04A504918D8A475
:1033800021D00A0E106E4950EFEC46F01C6E000E74
:103390001E6E140E1D6E0A0E106E4950EFEC46F0B4
:1033A0000001E06FE051495C146E156AD8A0150663
:1033B000000E176E0A0E166EE8EC3CF01450C3ECCB
:1033C00048F01CD00A0E106E4950EFEC46F01C6E0F
:1033D0000A0E106E4950EFEC46F00001E06FE0512C
:1033E000495C146E156AD8A01506000E176E0A0EF9
:1033F000166EE8EC3CF0145027EC48F0010E4F6ECE
:103400001200170E4D18D8A457D04A50D8B454D033
:10341000000EA96F640EA86F492A49504A5CD8A0D3
:103420004BC049F049C02EF06851FDEC3AF0E80677
:10343000D8B404D04A504918D8A421D00A0E106E2E
:103440004950EFEC46F01C6E000E1E6E140E1D6E01
:103450000A0E106E4950EFEC46F00001E06FE051AB
:10346000495C146E156AD8A01506000E176E0A0E78
:10347000166EE8EC3CF01450C3EC48F0BFD70A0ECF
:10348000106E4950EFEC46F01C6E0A0E106E49505B
:10349000EFEC46F00001E06FE051495C146E156AF4
:1034A000D8A01506000E176E0A0E166EE8EC3CF05A
:1034B000145041EC48F0A2D7630E4A641AD0630E50
:1034C000496417D06851D8A40AD0130E1C6E000EA0
:1034D0001E6E0A0E1D6E120EC3EC48F01200100E86
:1034E0001C6E000E1E6E0A0E1D6E120EC3EC48F00E
:1034F00012000001E829D8B497D0E851D8B40FD011
:10350000E805D8B40CD0020EE819D8B408D0040EDF
:10351000E819D8B404D0080EE819D8A485D0E4C0BE
:103520002EF0E5C02FF0E6C030F0E7C031F0000E1D
:10353000326EE20E336E346A80EC2AF0E16F75EC85
:1035400049F00001E36FE151D8A41200E351D8B46F
:1035500003D0BE51D8A41200E4C0D8F0E5C0D9F021
:10356000E6C0DAF0E7C0DBF049C0DCF001016851E9
:1035700094EC3FF00001B8514918D8A404D0630E70
:10358000B86101D0B82BBD0E126E020E136E000E84
:10359000156E080E146E6FEC41F0000E0101406FC5
:1035A000000E3B6F000EA76F280EA66F0A0E106E5E
:1035B0004950EFEC46F01C6E000E1E6E040E1D6EA0
:1035C0000A0E106E4950EFEC46F00001E06FE0513A
:1035D000495C146E156AD8A01506000E176E0A0E07
:1035E000166EE8EC3CF01450C3EC48F049504A1811
:1035F000D8B403D04A50D8A412000001B851D8A4BE
:1036000008D0B851D8A405D0E351D8A402D0010EF7
:10361000BE6F492A47C0D9FF48C0DAFF49C0DFFF63
:10362000020E50EC45F012004A504918D8B412006E
:10363000270E4D18D8A41200270E4E641200000E5B
:103640000101A96F640EA86F49C03AF06851ADEC52
:103650003DF00A0E106E4950EFEC46F01C6E000E65
:103660001E6E140E1D6E0A0E106E4950EFEC46F0E1
:103670000001E06FE051495C146E156AD8A0150690
:10368000000E176E0A0E166EE8EC3CF01450C3ECF8
:1036900048F012000101ED05EE11D8A406D0060E87
:1036A0000201BD19BE11D8A4120001011D05D8A444
:1036B000CED0CCEC3FF0CBD020EE04F0E751D926B1
:1036C000E851DA220A0EDE18DE10D8A406D0E7C0D0
:1036D000D9FFE8C0DAFF010EB5D020EE04F0E751C3
:1036E000D926E851DA220B0EDE18DE10D8A4CFD08E
:1036F00038D020EE04F0E751D926E851DA220C0E3A
:10370000DE18DE10D8A472D0E7C0D9FFE8C0DAFF17
:10371000020E98D020EE04F0E751D926E851DA22C3
:103720000D0EDE18DE10D8B41CD020EE04F0E751E8
:10373000D926E851DA220E0EDE18DE10D8A42DD0DC
:10374000E7C0D9FFE8C0DAFF030E7CD020EE04F01A
:10375000E751D926E851DA220D0EDE18DE10D8A482
:1037600006D0E7C0D9FFE8C0DAFF040E6BD020EE28
:1037700004F0E751D926E851DA220F0EDE18DE10E8
:10378000D8B4A5D720EE04F0E751D926E851DA22C3
:103790000C0EDE18DE10D8B4B7D720EE04F0E751D7
:1037A000D926E851DA22100E44D020EE04F0E75179
:1037B000D926E851DA220E0EDE18DE10D8B4C0D7B2
:1037C00020EE04F0E751D926E851DA220C0EDE187B
:1037D000DE10D8B499D720EE04F0E751D926E8518D
:1037E000DA22100EDE18DE10D8B427D020EE04F056
:1037F000E751D926E851DA22140EDE18DE10D8A4DB
:1038000046D0E7C0D9FFE8C0DAFF050E1BD020EE96
:1038100004F0E751D926E851DA22130EDE18DE1043
:10382000D8B455D720EE04F0E751D926E851DA2272
:10383000120EDE18DE10D8A42AD0E7C0D9FFE8C0E7
:10384000DAFF000EDE6E000EDD6E21D0FFD7E7C07E
:10385000D9FFE8C0DAFFDF500001E96FEA6BEA51F7
:10386000000AD8A4F3D7E951000AD8B425D7010A31
:10387000D8B43FD7030AD8B44DD7010AD8B466D715
:10388000070AD8B492D7010AD8B4C1D7DFD7E20E5D
:10389000126E010E136E000E156E000E146E6FEC9C
:1038A00041F07DD0000E0101D96F640ED86F010E7A
:1038B000486F020E4219D8B403D0030E436527D0D7
:1038C000CCEC28F00001EB6F140E106E000E126E9F
:1038D000140E116E0E0EE7EC45F0000EA76F0A0EE7
:1038E000A66F0001EB51D8A40AD04D50D8B407D030
:1038F0004D50D8B404D0170E4D18D8A41200000EA5
:103900000101426F000E436F010E4F6E1200010E57
:103910001C6F010E3C27000E3D233E233F23000E6B
:103920004A6F000E1E6F000E1F6F000E206F000EFC
:10393000216F000E486F000E436F000E006F000EE7
:10394000A76F280EA66F0C0E106E000E126E040EDE
:10395000116E0F0EE7EC45F0E20E126E010E136EC3
:10396000000E156E0A0E146E6FEC41F0120069EC39
:1039700039F012007DEC22F0000E0101D96F640EC7
:10398000D86F1200ECEC26F0F7D7FCEC1FF0F4D760
:10399000B20EDC6F020EDD6F43EC0CF0EDD7E7C02A
:1039A000D9FFE8C0DAFFDF500001E96FEA6BEA51A6
:1039B000000AD8A41200E951000AD8B473D7010A4A
:1039C000D8B4D5D7030AD8B4D5D7010AD8B4DDD72F
:1039D000070AD8B4D7D7010AD8A41200D9D7010151
:1039E0004005D8A407D0000E116E140E106E15EC11
:1039F00045F010D0E251E311D8A40CD0000E286F8E
:103A0000000E296F030E0001A519D8B402D08794C7
:103A100001D0878401011D05D8B405D0040EE21938
:103A2000E311D8A41CD0ADBF1AD0AD5103E1AC0551
:103A3000D8A015D0ADBF06D0AD5111E13D0EAC5DA3
:103A4000D8B00DD0020E0001B119D8A408D0000ED4
:103A5000126E040E116E010E46EC3BF01200030EC6
:103A600001010019D8A44FD0000E286F2951D8A405
:103A700013D0030E0001B119D8A40ED0000E01011D
:103A8000DD6F280EDC6F000E126E000E116E040E3C
:103A900046EC3BF0010E296F0101DDBF05D0DD5181
:103AA00005E1DC05D8B002D00001B1510001B1053B
:103AB000D8A410D00101DDBF05D0DD510BE1DC053C
:103AC000D8B008D0000E126E050E116E030E46EC33
:103AD0003BF007D0000E126E000E116E030E46EC86
:103AE0003BF00001A551D8A407D0000E116E0A0EBC
:103AF000106E15EC45F01200000E116E000E106EE7
:103B000015EC45F012000051D8A442D0E205E311B3
:103B1000D8A43ED01D05D8A4838E0001B105D8A439
:103B200017D0020EB419D8B403D0B405D8A408D065
:103B3000000E126E000E116E040E46EC3BF013D018
:103B4000000E126E280E116E040E46EC3BF00BD0E8
:103B5000030EB119D8B407D0000E126E000E116E0C
:103B6000040E46EC3BF0030E0001A519D8B4120078
:103B70000101BDBF07D0BD51BC11BB11BDE1BA05EC
:103B8000D8B0BAD78794000EB96F000EB86F120084
:103B90000051D8A448D000019D51D8A404D00101FF
:103BA0000005D8B40CD000019E51D8A417D09C5168
:103BB000D8B414D0020E01010019D8A40FD0000E01
:103BC000286F000E296F030E0001A519D8B412004A
:103BD000020EA519D8B41200879412000001B10595
:103BE000D8A408D0000E126E140E116E010E46EC11
:103BF0003BF007D0000E126E000E116E010E46EC67
:103C00003BF00001A505D8B404D0030EA519D8A433
:103C100002D087941200A551D8B46ED7020EA51910
:103C2000D8A4120069D7000E296F2851D8A40CD04F
:103C3000030E0001B119D8A407D0000E0101DD6FF9
:103C4000280EDC6F010E286F0101DDBF05D0DD51AC
:103C500005E1DC05D8B002D00001B151040E01012C
:103C6000E219E311D8A41BD0000E286F000E296FB3
:103C700000019D51D8A40AD09E51D8B403D09C51C4
:103C8000D8A404D0020EA419D8A407D0000E126E36
:103C9000000E116E010E46EC3BF0879412000001FD
:103CA000B105D8A408D0000E126E0A0E116E020ED5
:103CB00046EC3BF007D0000E126E000E116E020EA5
:103CC00046EC3BF00001A551D8A407D0000E116EC0
:103CD000140E106E15EC45F00DD0A505D8B404D027
:103CE000020EA519D8A406D0000E116E000E106E9B
:103CF00015EC45F0030E0001A519D8A41200879415
:103D00001200226E000E0101A96F640EA86F2250EE
:103D10006619D8B406D0010E226403D0000E686F75
:103D200005D0020E226002D069C168F1000E656FF5
:103D3000F6D0000E666F0A0E676F000E696F000EF8
:103D4000236E2350020D510EF324D96E010EF42080
:103D5000DA6E100EDF6E2350020D520EF324D96E70
:103D6000010EF420DA6E23C0DFFF232A090E23643C
:103D7000E8D707D1010E666F0A0E676F000E696FF4
:103D8000000E236E2350020D510EF324D96E010E46
:103D9000F420DA6E0E0EDF6E2350020D520EF32465
:103DA000D96E010EF420DA6E23C0DFFF232A090E3C
:103DB0002364E8D7E6D0000E656F040E666F040E2C
:103DC000676F0A0E516F130E526F170E536F0A0E64
:103DD000546F050E556F210E566F0D0E576F010E65
:103DE00051D0000E656F050E666F020E676F0D0EE7
:103DF000516F0A0E526F0D0E536F0F0E8ED0000EC4
:103E0000656F060E666F030E676F0F0E516F000E23
:103E1000526F0F0E536F050E546F0F0E556F0D0E30
:103E200073D0000E656F070E666F020E676F0A0E85
:103E3000516F0F0E526F0A0E536F100E6ED0000EA0
:103E4000656F080E666F020E676F120E516F0E0ED1
:103E5000526F110E536F0C0E60D0000E656F090E7D
:103E6000666F040E676F120E516F0A0E526F110EBD
:103E7000536F0A0E546F110E556F120E566F050ECA
:103E8000576F150E586F7DD0010E656F0A0E666F65
:103E9000020E676F110E516F100E526F100E536F9E
:103EA000120E3BD0010E656F0B0E666F020E676F30
:103EB000140E516F240E526F140E536F230E2DD01B
:103EC0000C0E666F000E686F020E676F050E516F65
:103ED000130E526F050EB0D70D0E666F010E676F91
:103EE0000D0E516F120E526F000EA76F3C0EA66F93
:103EF00048D0050E516F0C0E526F050E536F0E0E0B
:103F0000546F220E556F140E566F3BD0120E516F28
:103F10000E0E526F140E536F150E546F32D0225086
:103F2000206E216A2150000AD8A42BD02050000A0C
:103F3000D8B4FFD6010AD8B41DD7030AD8B4E6D73F
:103F4000010AD8B4D6D7070AD8B435D7010AD8B4ED
:103F500048D7030AD8B453D7010AD8B462D70F0A96
:103F6000D8B46DD7010AD8B478D7030AD8B48CD79F
:103F7000010AD8B497D7070AD8B4A2D7010AD8B48F
:103F8000ABD701016751685DD8A002D0000E686F01
:103F90000D0E2218D8A41AD06851020D520EF32427
:103FA000D96E010EF420DA6EDF501C6E000E1E6E0C
:103FB0000A0E1D6E6851020D510EF324D96E010ECA
:103FC000F420DA6EDF50C3EC48F012006851020DA5
:103FD000520EF324D96E010EF420DA6EDF501C6EFF
:103FE0006851020D510EF324D96E010EF420DA6EE1
:103FF000DF5027EC48F01200CCEC28F0336EBEEC1A
:1040000039F0326E000E01018D6F34EC48F0000E75
:104010000101506F030E43650DD0000E006FE20EDC
:10402000126E010E136E000E156E100E146E6FECF4
:1040300041F012000305D8B40CD0185119111A110F
:104040001B11D8A45FD02651D8A45CD04851D8A465
:1040500059D0020E0001A519D8A418D0AC511D6E7C
:104060001E6A1F6A206AB00E216E040E226E000EB8
:10407000236E000E246E7DEC42F01DC0BAF11EC00E
:10408000BBF11FC0BCF120C0BDF109D0000E010181
:10409000BA6F000EBB6F000EBC6F000EBD6F000E3E
:1040A0000101126F010E1C6F010E3C27000E3D2313
:1040B0003E233F23000E4A6F000E1E6F000E1F6F3F
:1040C000000E206F000E216F000E486F000E436F30
:1040D000000E006F000EA76F280EA66F0C0E106E5C
:1040E000000E126E040E116E0F0EE7EC45F0E20E9C
:1040F000126E010E136E000E156E0F0E146E6FEC25
:1041000041F012003204D8B411D0C5BF21D0C5513E
:1041100003E1C405D8A01CD04105D8A419D0CBBF59
:1041200005D0CB5115E1CA05D8B012D02751D8A47B
:104130000FD03204D8A4432B432B010E276F000E5F
:10414000BF6F0A0EBE6F000EDB6F1E0EDA6F12001D
:10415000C5BF2ED0C55103E1C405D8A029D027057D
:10416000D8A426D04505D8A405D0000E006F73EC66
:1041700032F055D7BFBF05D0BF5117E1BE05D8B04B
:1041800014D04A05D8A403D004EC40F004D040EC8D
:1041900047F073EC32F0000E0101276F010E446FFF
:1041A000000ECB6F140ECA6F1200000E006F1200CB
:1041B0002705D8A417D0000E006FBFBF05D0BF5190
:1041C00060E1BE05D8B012004A05D8A403D004ECC3
:1041D00040F004D040EC47F073EC32F0000E0101E7
:1041E000276F12000051D8A40BD0020E3218D8B499
:1041F00002D0432BBAD773EC32F0E2EC47F0120056
:10420000CDBF05D0CD510BE1CC05D8B008D04605C7
:10421000D8A405D073EC32F0000E466FEED7000143
:10422000A805D8B404D0020EA819D8A405D0040E4D
:104230003318D8B41200E1D73350D8B41200A40513
:10424000D8A413D073EC32F0E2EC47F0020E33182E
:10425000D8A41200020E0001A419D8B41200B9ECBF
:1042600048F0010E01014F6F1200040E3318D8B44C
:10427000C4D7010E0101276F000EBF6F0A0EBE6F7B
:1042800012001200000E8EB6010E0001896F8B51D4
:10429000D8A4120016D100018951D8A404D0030E6D
:1042A0000101986F12007E07D8A07F077FAF120030
:1042B000F60E7E5DFF0E7F59D8B01200000E010190
:1042C000986F120000018951D8B42CD0020E010160
:1042D000986FC80E00018D25D96EDA6A020EDA22B7
:1042E000D890DF327FBF08D0C80E8D25D96EDA6A2C
:1042F000020EDA22800EDF26000E7F6F000E7E6F28
:104300008C2B8CC001F0070E0116D8B48D2B410EFA
:104310008C19D8A41200000E0101986F010E000143
:104320008B6F12007E4B7F2B7FBF12007F5104E109
:104330000A0E7E5DD8A01200010E0101986F000EDA
:1043400000018D6F000E8C6F120000018951D8B4EE
:1043500030D07FBF0ED07F5104E1140E7E5DD8A017
:1043600008D07FBF1ED07F5104E12D0E7E5DD8A006
:1043700018D07FBFA3D77F5104E1500E7E5DD8A037
:104380009DD77FBF06D07F5199E1640E7E5DD8B086
:1043900095D7FF0E7F6FF60E7E6F040E0101986FAA
:1043A0001200000E7F6F000E7E6F020E0101986FEB
:1043B00012007E4B7F2B120000018951D8A456D0E9
:1043C000050E0101986FC80E00018D25D96EDA6ABD
:1043D000020EDA22D890DF327FBF08D0C80E8D25BA
:1043E000D96EDA6A020EDA22800EDF26000E7F6FA7
:1043F000000E7E6F8C2B8CC001F0070E0116D8A426
:1044000009D08D2BC80E8D25D96EDA6A020EDA22FC
:10441000000EDF6E0D0E8C19D8A41200000E0101E3
:10442000986F00018A05D8A41AD00201C851010171
:104430008719D8A40FD00201C95101018819D8A445
:1044400009D0010E00018B6F000E0201CA6F000E31
:10445000CB6F1200C8C287F1C9C288F11200010EE9
:104460008A6FC8C287F1C9C288F112007E4B7F2BC8
:104470007FBF12007F5104E10A0E7E5DD8A01200BA
:104480001DD700018951D8B404D0040E0101986FE2
:1044900012007E07D8A07F077FAF1200F60E7E5D68
:1044A000FF0E7F59D8B0120047D7010E986F000E4B
:1044B00000017F6F000E7E6F000E8D6F000E8C6FFF
:1044C000120001019851016E026A0250000AD8A43C
:1044D000ECD70150000AD8B4E8D7010AD8B435D7D0
:1044E000030AD8B4D8D6010AD8B4ECD6070AD8B48F
:1044F00063D7010AD8B4C5D7D8D7BEEC39F00001CC
:10450000E46F11EC3AF00001E56FCCEC28F000010B
:10451000E66FDDEC25F034EC48F0000E0101506F41
:104520000001E4518CEC47F0030E010143650DD00E
:10453000000E006FE20E126E010E136E000E156E6D
:10454000100E146E6FEC41F01200020E0019D8A488
:1045500013D0ABBF05D0AB510FE1AA05D8B00CD03A
:104560001AEC37F0E2EC47F0B9EC48F0010E01012B
:10457000506F010E8D6F12000405D8B410D0185181
:1045800019111A111B11D8A42FD02651D8A42CD040
:104590004851D8A429D0020E1C19D8A425D0040E45
:1045A0001C6FD0C01EF1D1C01FF1D2C020F1D3C00A
:1045B00021F1000E126F000E486F010E226F000EE7
:1045C000436F000EA76F280EA66F000E106E000E30
:1045D000126E040E116E0F0EE7EC45F0E2EC47F0A0
:1045E000010E0101506F12000001E505D8B412D090
:1045F0000101C5BF25D0C55103E1C405D8A020D015
:104600004105D8A41DD0CBBF05D0CB5119E1CA05B7
:10461000D8B016D001012751D8A412D00001E50569
:10462000D8B402D00101432B010E0101276F000E07
:10463000BF6F0A0EBE6F000EDB6F1E0EDA6F120028
:10464000C5BF2DD0C55103E1C405D8A028D027058A
:10465000D8A425D04405D8A405D0000E006F73EC73
:1046600032F068D7BFBF05D0BF5116E1BE05D8B044
:1046700013D02DEC47F01AEC37F0000E276F010E27
:10468000456F000ECB6F140ECA6F000ECD6F280E53
:10469000CC6F010E466F1200000E006F120027054E
:1046A000D8A40AD0000E006FBFBFE3D7BF514EE1C0
:1046B000BE05D8B01200DDD70051D8A418D0BFBFB6
:1046C00005D0BF5114E1BE05D8B011D0020E0001D3
:1046D000E519D8B407D00101432B000E006F1AEC86
:1046E00037F028D71AEC37F0E2EC47F0120000015F
:1046F000A805D8A405D0030EE619D8B41200F4D743
:10470000020EE619D8A411D0020E01010019D8A496
:104710000CD0020E0001A419D8B407D01AEC37F05F
:10472000E2EC47F0B9EC48F012000001E605D8B41D
:1047300008D0030EE619D8B404D0040EE619D8A4A4
:104740001200020EA419D8B41200CCD71200010135
:10475000185119111A111B11D8A40DD04251D8B4F7
:104760000AD02651D8A407D04851D8A404D0000EAE
:10477000006F020E07D04205D8A405D00051D8A47E
:1047800002D0000E426F0051A7EC3EF0186E185098
:10479000D8A40AD0010E01010D6FA1BF12008792AB
:1047A0008790000E166F12000001AF05D8A422D02A
:1047B0007905D8A41FD001010051D8A41BD01850EE
:1047C000D8A4C3BF17D0C35103E1C205D8A012D0EB
:1047D000DBBF05D0DB510EE1DA05D8B00BD0C3BF8B
:1047E00006D0C35103E1120EC25DD8B01200878219
:1047F0008780D7D71804D8B404D0020E1818D8A4CC
:1048000063D001010451D8A45FD091B204D000015B
:10481000B351D8B406D091B04FD00001B305D8A49D
:104820004BD091B003D0B351D8B405D091B23AD0A7
:10483000B305D8A437D0000E01010D6F000EA16F93
:10484000C80EA06F000EB56F140EB46F0305D8B478
:1048500003D01C05D8A424D0000198510A0DF3CF31
:1048600012F0F4CF13F0B0511226000E13221250A2
:10487000CC25146E1350CD21156E000ECE21166E70
:10488000000ECF21176E500E14240101186F000E78
:104890001520196F000E16201A6F000E17201B6FBF
:1048A000020E1C6F0001B351D8A402D0878001D042
:1048B0008782010E0101166F0001B351D8A402D006
:1048C0008792120087901200030E1818D8A41200C5
:1048D00001010351D8A4120091B004D00001B351DA
:1048E000D8B406D091B250D00001B305D8A44CD0B2
:1048F00091B203D0B351D8B405D091B03BD0B30539
:10490000D8A438D0000E01010D6F000EA16FC80EA3
:10491000A06F000EB56F140EB46F0405D8B404D0A8
:10492000040E1C19D8A424D0000199510A0DF3CF0C
:1049300012F0F4CF13F0B0511226000E13221250D1
:10494000D025146E1350D121156E000ED221166E93
:10495000000ED321176E500E14240101186F000EA3
:104960001520196F000E16201A6F000E17201B6FEE
:10497000030E1C6F0001B351D8A402D0878201D06E
:104980008780020E0101166F0001B351D8A402D036
:10499000879012008792120051EC38F08F6F7B05E0
:1049A000D8A40FD0C7BF08D0C75103E1C605D8A00F
:1049B00003D0000E906F05D07D517F5DD8A07EC1E1
:1049C0008FF18DA671D09251D8A46ED09151D8A4F8
:1049D00016D0EF0E00018425D96EDA6A020EDA22B3
:1049E0000101D8909331DF6E00018451D8A402D028
:1049F000010E01D0000E846F000E0101936F500E66
:104A00008F6507D0C3BF08D0C35103E1C205D8A04A
:104A100003D0869E000E0C6F912BEF0E00018425B3
:104A2000D96EDA6A020EDA2201019151DE5CD8B049
:104A300044D0590E4D6505D06A0E4D6102D0010E6D
:104A400001D0000E156F500E9F6F000E4D6F010EBE
:104A5000906F010E926F7F2B0001AF05D8A40ED08E
:104A60000101C3BF0BD0C35103E1C205D8A006D0DA
:104A7000010E7F6522D0000E7F6F1FD001017C5197
:104A80007DC105F0066A0526000E06227F51076EDD
:104A9000086A0550075C0850800A096E0650800AB3
:104AA0000958D8B0E8D709D08DB607D09251D8B4FC
:104AB00004D0000E926F000E916F8DB6932B4D2B8C
:104AC0000051E3EC3EF00001836FAF05D8A42ED077
:104AD0000101C3BF2BD0C35103E1C205D8A026D02A
:104AE000DBBF05D0DB5122E1DA05D8B01FD00001D1
:104AF0008351D8B43AD001019005D8A436D0A1BFD3
:104B000005D0A15132E1A005D8B02FD07F51D8A453
:104B10002CD0C3BF06D0C35128E10C0EC25DD8B063
:104B200024D0868EEC0EA16F780E1AD0000183512E
:104B3000D8B41BD001018F519F5DD8B016D090051D
:104B4000D8A413D0A1BF05D0A1510FE1A005D8B0C2
:104B50000CD00D51D8A409D0868EFF0EA16F380E4F
:104B6000A06F010E0C6F000E906F150E01019F617A
:104B700002D0C3BF04D000018351D8A404D0869EC4
:104B8000000E01010C6F00018351D8B40CD001015B
:104B9000A1BF09D0A15103E1A005D8A004D0A0076E
:104BA000D8A0A107120000018351D8A4120001016E
:104BB000A1AF1200A04BA12B120001012605D8A421
:104BC00017D04705D8A414D07B51D8A408D0000E24
:104BD000C76F0A0EC66F000EC96F140EC86F5BEC6C
:104BE00048F0010E7B6F000E0F6F000E0E6F12006B
:104BF0002605D8B403D00905D8A407D0000E0F6F3E
:104C0000000E0E6F000E7B6F1200030E0019D8A469
:104C100068D0030EA6EC36F0295001011E5D2A5023
:104C20001F592B5020592151800A0001DA6F2C5056
:104C3000800ADA59D8A004D001014805D8A451D07F
:104C400000019951D8B404D001011251D8B40CD04C
:104C5000010111BF05D0115144E11005D8B041D078
:104C60000001AB51D8B43DD001017B51D8A422D072
:104C70001251D8A41FD0000EC96F140EC86F0001C6
:104C8000AB51D8B408D0000E0101276F010E126F8E
:104C9000C4EC43F00FD0000E0101C76F0A0EC66FBF
:104CA0005BEC48F0010E7B6F000E0F6F000E0E6F75
:104CB000000E126F010111BF05D0115102E1100564
:104CC000D8B012001205D8A412000001AB51D8B41C
:104CD0001200000E0101C76F020EC66F000E126FA8
:104CE0007ED70101005199EC33F0E806D8A442D0F8
:104CF0009851D8B404D001011251D8B40CD001019C
:104D000011BF05D0115136E11005D8B033D00001E4
:104D1000AB51D8B42FD001017B51D8A422D012516D
:104D2000D8A41FD0000EC96F140EC86F0001AB517C
:104D3000D8B408D0000E0101276F010E126FC4EC29
:104D400043F00FD0000E0101C76F0A0EC66F000EB0
:104D5000126F5BEC48F0010E7B6F000E0F6F000EC0
:104D60000E6F010111BFAED7115135E11005D8B05A
:104D70001200A8D7010111BF12D0115103E1100593
:104D8000D8A00DD00051D8B40AD01351105D106FC7
:104D90001151D8A01105116F000E7B6F12000FBFCB
:104DA00010D00F5103E10E05D8A00BD00051D8B49C
:104DB00008D014510E5D0E6F0F51D8A00F050F6F64
:104DC000EBD7000E116F000E106F000E0F6F000E6C
:104DD0000E6F000E7B6F1200BEEC39F0206E20507B
:104DE000D8B407D001018D51D8A403D034EC48F0D9
:104DF00008D02050D8B405D001018D05D8B4B9EC45
:104E000048F0CCEC28F0216E20508CEC47F08EB2AC
:104E100013D000019D51D8B40FD001012351D8B453
:104E20000BD0350E4D18D8B407D0020E0001A419CE
:104E3000D8A402D0000E216E2150D8B45DD0000E4F
:104E40000101A76F3C0EA66F020E0001A419D8A4A1
:104E50000DD09D51D8A40AD02104D8B404D0040E9A
:104E60002118D8A403D02DEC47F01200A851D8B4D3
:104E700014D0030E2118D8A40BD001010451D8A4DA
:104E800007D0040E1C19D8B403D040EC47F0120030
:104E9000040E2118D8A41200E6D7030E01010B1945
:104EA000D8A409D02104D8A406D040EC47F0000EC5
:104EB0000101276F1200030E0B19D8A407D0020EB0
:104EC0002118D8A403D004EC40F0F1D7030E211828
:104ED000D8A405D0040E1C19D8B41200E6D70001DE
:104EE0009D51D8B407D0020EA419D8A403D034EC35
:104EF00048F012002050CED78EB20BD000019D5149
:104F0000D8B407D09D51140DF3CFACF1F4CFADF16F
:104F1000120001013A05D8A40FD02050D8A40CD01B
:104F2000000E3A6FADC023F10001AD51140DF3CF67
:104F3000ACF1F4CFADF11200ADBF05D0AD5113E12E
:104F4000AC05D8B010D00001A405D8A40CD0010144
:104F50005005D8A408D02351D8B405D0000E236F33
:104F6000000E506F80D70101ADBF05D0AD5119E1E2
:104F7000AC05D8B016D00001A405D8B412D00101F8
:104F80002351D8B40ED0000E236F2705D8A403D028
:104F9000000E276F7AD72DEC47F0000E0101486F05
:104FA000120001012205D8A412002050D8A412003A
:104FB000A7BF06D0A75103E1020EA65DD8B012002C
:104FC000000E226F1200E2C010F0E3C011F0E0C04A
:104FD00012F0E1C013F0000E156E080E146E52ECC4
:104FE00044F0080E0001E225106E000EE321116E60
:104FF000E2C012F0E3C013F0000E156E040E146E42
:1050000052EC44F0000120EE0CF0E251D926E351BD
:10501000DA2210EE07F0E251E126E351E222E750F6
:10502000E46FE4390F0BDF6EE2C010F0E3C011F063
:105030006CEC45F0E96FE951D8A419D020EE04F0EA
:10504000E251D926E351DA22DECF2EF0DECF2FF067
:10505000DECF30F0DECF31F0000E326E0F0EE225E3
:10506000336E000EE321346E80EC2AF004D0A6519A
:10507000D8A402D0000EE96F20EE04F0E251D92648
:10508000E351DA22FF0EDE14E46FFF0EDE14E56F4B
:10509000FF0EDE14E66F0F0EDE14E76F20EE04F055
:1050A000E251D926E351DA22E4C0DEFFE5C0DEFF9B
:1050B000E6C0DEFFE7C0DEFFE2C038F0E3C039F053
:1050C00026EC42F0E951D8A41BD0E2C010F0E3C0B6
:1050D00011F086EC45F00009D8A408D020EE0EF0BF
:1050E000E251D926E351DA22010E07D020EE0EF06C
:1050F000E251D926E351DA22000EDF6E000E1200D3
:10510000060EE919D8B404D0050EE919D8A41BD0AD
:1051100020EE04F0E251D926E351DA22DECF2EF060
:10512000DECF2FF0DECF30F0DECF31F0010E326E69
:105130000F0EE225336E000EE321346E80EC2AF070
:105140000009D8B4DBD7E2C010F0E3C011F086EC60
:1051500045F00009D8A40DD0BE05D8B4CFD720EEB5
:105160000EF0E251D926E351DA22010EDF6EE95149
:105170001200E2C024F0E3C025F060EC3CF0000136
:10518000E86FE805D8A4BAD720EE0EF0E251D92690
:10519000E351DA22000EEAD701012651D8A4C0D08B
:1051A000C5BF19D0C55103E1C405D8A014D0010E64
:1051B0001C6E000E1E6E140E1D6E120EC3EC48F017
:1051C000000E0101A76F0A0EA66F010E456E010EBB
:1051D0004F6E000E12000001A851D8B42FD0350E2A
:1051E0004D18D8A417D0000E0101A76F0A0EA66FA4
:1051F000000E1C6E000E1E6E040E1D6E120EC3EC11
:1052000048F0020E0001A819D8A402D0010E4F6E7A
:10521000030E1200330E4D18D8A4DBD7000E010187
:10522000A76F0A0EA66F050E1C6E000E1E6E040EF2
:105230001D6E120EC3EC48F0040E1200350E4D1810
:10524000D8A416D0000E0101A76F280EA66F000E7D
:105250001C6E000E1E6E040E1D6E120EC3EC48F086
:105260000001A905D8B4D2D7010E4F6E010E12006D
:10527000330E4D18D8A419D0000E0101A76F280EC7
:10528000A66F050E1C6E000E1E6E040E1D6E120E15
:10529000C3EC48F00001A905D8A403D0010E4F6E5D
:1052A000CBD7010E4F6E020E1200360E4D18D8A449
:1052B0000FD0000E0101A76F280EA66F130E1C6EF3
:1052C000000E1E6E040E1D6E100EC3EC48F0CCD7FF
:1052D0003B50D8B423D0060E3B18D8B41FD0050ECF
:1052E0003B18D8B41BD00A0E106E435033EC45F077
:1052F000F60DF35043241C6E000E1E6E040E1D6E40
:105300000A0E106E435033EC45F0C3EC48F0000E2B
:105310000101A76F280EA66F010E456E3B501200CB
:105320003B50D8B41BD00A0E106E435033EC45F0FE
:10533000F60DF35043241C6E000E1E6E040E1D6EFF
:105340000A0E106E435033EC45F0C3EC48F0000EEB
:105350000101A76F140EA66F010E456E3B5012009F
:10536000000E3A6E2D0E0001986504D0030E986F62
:10537000010E3A6E2D0E996504D0030E996F010E41
:105380003A6E9A51D8B403D0090E9A6504D0090E2A
:105390009A6F010E3A6E090E9B6504D0000E9B6F4A
:1053A000010E3A6E630E9C6504D00A0E9C6F010ECE
:1053B0003A6E630E9D6504D0000E9D6F010E3A6E2D
:1053C000630E9E6504D0000E9E6F010E3A6E010EB4
:1053D0009F6504D0000E9F6F010E3A6E010EA0650E
:1053E00004D0000EA06F010E3A6E010EA16504D02C
:1053F000000EA16F010E3A6E010EA26504D0010EDF
:10540000A26F010E3A6E010EA36504D0000EA36FC9
:10541000010E3A6E020EA46504D0000EA46F010EB8
:105420003A6E030EA56504D0000EA56F010E3A6E0C
:10543000010EA66504D0000EA66F010E3A6E090E8D
:10544000A76504D0000EA76F010E3A6E020EA86584
:1054500004D0000EA86F010E3A6E010EA96504D0AB
:10546000000EA96F010E3A6E090EAA6504D0000E57
:10547000AA6F010E3A6E630EAC6504D0030EAC6FDA
:10548000010E3A6E090EAD6504D0000EAD6F010E2F
:105490003A6E010EAF6504D0000EAF6F010E3A6E8A
:1054A000B051D8B403D0090EB06504D0050EB06F6A
:1054B000010E3A6E030EB16504D0030EB16F010EFA
:1054C0003A6E010EAE6504D0000EAE6F010E3A6E5C
:1054D000010EB36504D0010EB36F010E3A6E090ED2
:1054E000AB6504D0000EAB6F010E3A6E3A50D8B4E3
:1054F0001200000E50EC45F0010E50EC45F0120089
:10550000000E396E3204D8A409D0FF0E356EFF0E9E
:10551000366EFF0E376E0F0E386E04D03568366863
:1055200037683868000E3A6E56D03AC0D8F0030E8D
:10553000D817D8A41CD0000E396E3A50D86FD96B4A
:10554000D890D837D937D890D837D937000ED82542
:10555000226E020ED921236EA20E246E020E256E3B
:10556000000E276E100E266E500E1FEC3FF03950C5
:10557000040DA20EF324D96E020EF420DA6EDECFF3
:10558000D8F0DECFD9F0DECFDAF0DECFDBF0355069
:105590000001D815DC6F3650D915DD6F3750DA159C
:1055A000DE6F3850DB15DF6F2E50DC1912E12F5003
:1055B000DD190FE13050DE190CE13150DF19D8A4AC
:1055C00008D033C0D9FF34C0DAFF3AC0DFFF010E84
:1055D0001200392A3A2AB8513A5CD8A0A6D7000E50
:1055E0003A6E56D03AC0D8F0030ED817D8A41CD0C3
:1055F000000E396E3A50D86FD96BD890D837D9375A
:10560000D890D837D937000ED825226E050ED9216B
:10561000236EA20E246E020E256E000E276E100E53
:10562000266E500E1FEC3FF03950040DA20EF324ED
:10563000D96E020EF420DA6EDECFD8F0DECFD9F0CC
:10564000DECFDAF0DECFDBF035500001D815DC6FAD
:105650003650D915DD6F3750DA15DE6F3850DB154F
:10566000DF6F2E50DC1912E12F50DD190FE13050A1
:10567000DE190CE13150DF19D8A408D033C0D9FFAE
:1056800034C0DAFF3AC0DFFF020E1200392A3A2A8C
:10569000B9513A5CD8A0A6D7000E1200B1BF0AD00B
:1056A000B15103E1B005D8A005D0000ED56F140E9E
:1056B000D46F07D0D5BF09D0D55103E1D405D8A008
:1056C00004D0040E216EB00E03D0000E216E000E29
:1056D000206E7B51D8A45BD0030E0019D8A405D04E
:1056E000C8C034F1C9C035F104D0CAC034F1CBC050
:1056F00035F1366B376B37513611351104E1650ED4
:10570000345DD8A009D03751361106E1C50E345D9D
:105710003B0E3559D8A004D0C40E346F3B0E58D080
:105720009BC022F022502202F3CF10F0F4CF11F0F0
:10573000000E136E0A0E126E53EC47F010C01AF0F2
:1057400011C01BF022C010F0116AFF0E136E380E4C
:10575000126E53EC47F010501A2611501B22140EF3
:105760001A241C6E050E1B201D6E1E6A1DBE1E0611
:105770001E501F6E010134511C24346F35511D2001
:10578000356F36511E20366F37511F2046D0030E1D
:105790000019D8A409D0C0C034F1C1C035F1C2C0CD
:1057A00036F1C3C037F108D0C4C034F1C5C035F1FB
:1057B000C6C036F1C7C037F1375136110EE1890E38
:1057C000345D130E3559D8B008D0880E346F130EDF
:1057D000356F000E366F000E20D0A7C010F0116A92
:1057E000FE0E136E0C0E126E53EC47F0380E1024A2
:1057F0001A6E180E11201B6E1C6A1BBE1C061C5054
:105800001D6E1A500101345D346F1B503559356FD0
:105810001C503659366F1D503759376F205034257C
:10582000166E21503521176E000E3621186E000EAF
:105830003721196E1200A20E016E010E026E04ECE9
:1058400047F0E00E016E010E026E04EC47F0A40E6C
:10585000016E010E026E04EC47F0A60E016E010E01
:10586000026E04EC47F0A80E016E010E026E04EC0D
:1058700047F0AA0E016E010E026E04EC47F0AC0E6A
:10588000016E010E026E04EC47F0AE0E016E010EC9
:10589000026E04EC47F0B00E016E010E026E04ECD5
:1058A00047F0B40E016E010E026E04EC47F0B60E26
:1058B000016E010E026E04EC47F0B80E016E010E8F
:1058C000026E04EC47F0BE0E016E010E026E04EC97
:1058D00047F0C00E016E010E026E04EC47F0C20EDE
:1058E000016E010E026E04EC47F0C40E016E010E53
:1058F000026E04EC47F0C60E016E010E026E04EC5F
:1059000047F0C80E016E010E026E04EC47F0CA0E9D
:10591000016E010E026E04EC47F0DC0E016E010E0A
:10592000026E04EC47F0DE0E016E010E026E04EC16
:1059300047F00001AF51D8B408D00101C3BF05D072
:10594000C35109E1C205D8B006D0CC0E016E010EDC
:10595000026E04EC47F0CE0E016E010E026E04ECF6
:1059600047F0D00E016E010E026E04EC47F0D20E2D
:10597000016E010E026E04EC47F0D40E016E010EB2
:10598000026E04EC47F0D60E016E010E026E04ECBE
:1059900047F0D80E016E010E026E04EC47F0DA0EED
:1059A000016E010E026E04EC47F00101BDBF120052
:1059B000BD51BC11BB1103E1BA05D8A01200FF0E06
:1059C000BA27FF0EBB23FF0EBC23FF0EBD23120020
:1059D00000018B51D8B4B9D08A51D8A40BD0C80ECD
:1059E000E06F020EE16F920EE26F020EE36FE3ECE6
:1059F00027F00AD0C80EE06F020EE16F920EE26F40
:105A0000020EE36F8EEC3BF0876F9EC288F096C269
:105A100081F197C282F198C283F199C284F19AC24E
:105A200085F19BC286F1A0C297F101012605D8A499
:105A30001ED000018751D8B444D088513C18D8A456
:105A400040D0010181513D183CE182513E1839E1BD
:105A500083513F1836E184514018D8A432D0000158
:105A600087513B18D8A42DD0000E446E38D00001C9
:105A70008751D8B426D087513B18D8B40FD0010134
:105A8000AFBF05D0AF510AE1AE05D8B007D0855100
:105A9000411817E186514218D8A413D0000188514B
:105AA0003C18D8A40ED0010181513D180AE1825161
:105AB0003E1807E183513F1804E184514018D8B4DF
:105AC00003D0000E456ED0D7AFBF05D0AF5107E170
:105AD000AE05D8B004D0020E9719D8B4F2D7000E94
:105AE0000101AF6F0A0EAE6F87C03BF03B50D8B4D8
:105AF0001AD0000188513C18D8A415D00101815159
:105B00003D1811E182513E180EE183513F180BE11F
:105B100084514018D8A407D08551411804E186511A
:105B20004218D8B40ED088C03CF081C13DF082C18B
:105B30003EF083C13FF084C140F0A1C243F0000EAB
:105B4000446E85C141F086C142F04504D8A403D01B
:105B5000000E3B6E12003B50D8B41200FA0E4460A7
:105B60001200442A12003A6E030E0001986F090ECB
:105B70009A6F030E996F000E9F6F000EA06F000EBC
:105B8000A16F010EA26F000EA36F000EA56F000E95
:105B9000A66F000EA76F000EA86F000E9E6F030E7B
:105BA000AC6F000EAD6F000EAF6F000E9E6F010E5A
:105BB000B36F3A50D8A414D0000E9B6F000EA96F9B
:105BC000000EAE6F000E9D6F000EA46F050EB06F3D
:105BD000030EB16F000EAB6F000EAA6F0A0E39D024
:105BE0003A04D8A41BD0040E996F040E986F040ECB
:105BF0009B6F010EA96F010EAE6F000E9D6F000E20
:105C0000A46F050EB06F030EB16F000EAB6F050EE3
:105C1000AA6F000E9C6F000EB36F1CD0020E3A18D4
:105C2000D8A418D0060E996F020E986F000E9B6FC5
:105C3000000EA96F000EAE6F000E9D6F020EA46FD6
:105C4000050EB06F010EB16F050EAB6F000EAA6F9F
:105C5000000E9C6F010E50EC45F0000E50EC45F02C
:105C6000000E0001D06F000ED16F000ED26F000E3B
:105C7000D36F000ECC6F000ECD6F000ECE6F000EF6
:105C8000CF6F000EC96F000EC86F000ECB6F000EF5
:105C9000CA6F000EC06F000EC16F000EC26F000E03
:105CA000C36F000EC46F000EC56F000EC66F000EEE
:105CB000C76F8DA48DB215D08EA08DBA12D0000EF4
:105CC00001013C6F000E3D6F000E3E6F000E3F6FF6
:105CD000000E0001BA6F000EBB6F000EBC6F000E0D
:105CE000BD6F020E50EC45F0030E50EC45F0120073
:105CF000180E0001726F180E726F000E766F000E94
:105D0000756F010E776FD0EC45F090EC49F0F28E94
:105D1000F28C0F01148713871AEC48F0DCEC31F099
:105D2000F0EC47F0180E1C6E180E41EC48F0020E15
:105D300001019C6F0BD09D51D8A408D0F0EC47F026
:105D4000320E01019D6F9C07A8EC34F001019C51BB
:105D5000D8A4F1D7BD0E126E020E136E000E156E92
:105D6000000E146E000E166E52EC42F0ED0E126E26
:105D7000010E136E000E156E000E146E000E166EE0
:105D800052EC42F0E20E126E010E136E000E156E12
:105D9000000E146E000E166E52EC42F0B20E126E31
:105DA000020E136E000E156E000E146E000E166EAF
:105DB00052EC42F0000E0101A36F140EA26F010E0F
:105DC0004C6FFE0E4B6F000ED96F640ED86F000E35
:105DD000DB6F000EDA6F000E006FE0EC48F0000998
:105DE000D8B40DD026EC43F020EEF1F0060EEBCF48
:105DF000DBFFE806FCE2F10E3A6EF3EC2FF0010156
:105E00009D51D8A4EAD7320E9D6FF0EC47F0040EF6
:105E10000101496103D0DCEC40F0DFD772EC40F0C7
:105E2000E8EC2CF073EC48F00101946FA8EC34F02E
:105E300007EC33F039EC2FF0DDEC25F0A7EC23F084
:105E4000EFEC1CF0F9EC41F0ED0E0001ED6F010EEE
:105E5000EE6F50EC12F0E20E0001E76F010EE86FFA
:105E60004AEC1BF001019429D8B4B7D71AEC48F0DA
:105E7000B4D70DEC44F02CEC35F0EEEC37F0236E9B
:105E80002350386F396B4EEC2BF016C034F117C02D
:105E900035F118C036F119C037F10051D8A40FD030
:105EA000000E00018E6F000E0101416F000E456F64
:105EB000000E446F000ED36F140ED26F12007B5190
:105EC000D8A45DD0000ED36F140ED26F2E51236E66
:105ED0002F51246E256A266A2350345D245035598B
:105EE0002550365926503759D8B03ED0B5BF05D0C9
:105EF000B5513AE1B405D8B037D000019B51D8B4C0
:105F000033D00101DDBF05D0DD512EE1DC05D8B075
:105F10002BD000018E51D8B40BD0010189512E5DD8
:105F20008A512F59D8B004D0000E00018E6F02D0D4
:105F300000018E2B2EC189F12FC18AF10101C9BF49
:105F400005D0C9514FE1C805D8B01200010E0001BB
:105F50008E651200000E0101006F000EC56FC80EA5
:105F6000C46F010E416F1200000E00018E6F000E13
:105F70000101416F000E456F000E446F1200345155
:105F8000305D355131593651325937513359D8B0C6
:105F9000EBD7B5BF05D0B551E7E1B405D8B0E4D72C
:105FA000D3BF05D0D351E0E1D205D8B0DDD7000191
:105FB000A751D8B4D9D78E2B0101C9BF05D0C9517B
:105FC00011E1C805D8B01200020E00018E65120062
:105FD000000E0101006F000EC56FC80EC46F010EE8
:105FE000416F1200120091D08551D8B412003AC00E
:105FF00018F0D4EC14F012008551D8B412003A50C5
:10600000D96EDA6A00EE10F0060EDBCFEBFFE80681
:10601000FCE258EC17F012008551D8B408D0010EFC
:1060200050EC45F0000E50EC45F0000E05D001019B
:10603000ED51D8A404D0010E0001856F16D03A505E
:10604000D96EDA6A020ED926020EDE6E000EDD6E01
:106050003A50D96EDA6A00EE11F0060EDBCFEBFF94
:10606000E806FCE2FDEC45F012008551DC6FDD6BCB
:106070003A50D96EDA6A020ED926DCC0DEFFDDC0E6
:10608000DDFFE6D73A50D96EDA6A030EDF6E3A507A
:10609000D96EDA6A010ED926000EDF6E3A50D96E3B
:1060A000DA6A020ED926010EDE6E000EDD6E3A505F
:1060B000D96EDA6A00EE11F0060EDBCFEBFFE806D0
:1060C000FCE2FDEC45F03A50D96EDA6A030EDF6E61
:1060D0003A50D96EDA6A010ED926000EDF6E3A50B8
:1060E000D96EDA6A020ED926000EDE6E000EDD6E63
:1060F0003A50D96EDA6A00EE11F0060EDBCFEBFFF4
:10610000E806FCE2FDEC45F012003A50D96EDA6A7E
:10611000DF500001DC6FDD6BDD51000AD8A4D3D75E
:10612000DC51000AD8B460D7010AD8B465D7030A95
:10613000D8B472D7010AD8B4A5D7C5D7CE93A8ECE6
:1061400042F0A5EC3CF001019D51D8A49D079B5164
:10615000D8B402D09B0789D0320E9B6F1BEC2CF079
:1061600000019251D8A402D0010E01D0000E926F0E
:1061700001012651D8A434D0185119111A111B113C
:10618000D8B408D01651D8B405D01807000E195B42
:106190001A5B1B5B1605D8A40ED07B05D8A404D0CF
:1061A00000019205D8A461D0010E01011E27000E46
:1061B0001F23202313D0020E1619D8A456D07B0516
:1061C000D8A404D000019205D8A44FD0FF0E01013D
:1061D0001E27FF0E1F23FF0E2023FF0E212345D075
:1061E0001705D8A41CD01605D8A40BD04705D8B4E1
:1061F00016D0010E00016427000E65236623672375
:106200000ED0020E1619D8A40AD04705D8B407D06C
:10621000010E00016027000E612362236323010148
:106220004705D8A422D02A05D8A41FD09A51D8B4A3
:1062300002D09A071AD00A0E9A6F1605D8A409D070
:106240000001692B010E6427000E65236623672376
:106250000CD0020E1619D8A408D00001682B010E2C
:106260006027000E6123622363230201DD51DE11EA
:10627000D8B4120001D812000500FA6EDD51FD6E8F
:10628000DE51FE6EFF6AFA501200000E216E000E03
:10629000206E2268000E236E20EE04F01650D926E0
:1062A0001750DA222350060D000EF324E16E030E80
:1062B000F420E26EDE50E61818E1DE50E61815E133
:1062C000DE50E61812E1DE50E618D8A40ED02350B6
:1062D000060D040EF324D96E030EF420DA6EDECF21
:1062E00020F0DDCF21F023C022F0232A180E2364F2
:1062F000D3D722AE50D020EE04F01650D926175036
:10630000DA227AC010F07BC011F0000E136E060E78
:10631000126E53EC47F0000E1024E16E030E1120B4
:10632000E26EDECFE6FFDECFE6FFDECFE6FFDECFBA
:10633000E6FF20EE08F01650D9261750DA227AC070
:1063400010F07BC011F0000E136E060E126E53ECAF
:1063500047F0040E1024E16E030E1120E26EDECF32
:10636000E6FFDDCFE5FF00017A4B7B2B7B5104E19B
:10637000190E7A5DD8A004D0000E7B6F000E7A6FE4
:106380007CC010F07DC011F067EC48F0186E18501A
:10639000166E176A12002250060D040EF324D96EF1
:1063A000030EF420DA6E7CC0DEFF7DC0DDFF20C06E
:1063B00016F021C017F01200000E226E500ECBEC2A
:1063C00041F0FF0AD8A44CD0100E226E500ECBEC38
:1063D00041F0FF0AD8A444D0000EB3EC2DF0000E1B
:1063E0000001D06F000ED16F000ED26F000ED36F80
:1063F000000ECC6F000ECD6F000ECE6F000ECF6F73
:10640000000EC96F000EC86F000ECB6F000ECA6F72
:10641000000EC06F000EC16F000EC26F000EC36F82
:10642000000EC46F000EC56F000EC66F000EC76F62
:10643000030E50EC45F0000E0001B86F000EB96F6E
:10644000000EBE6F000EBA6F000EBB6F000EBC6F69
:10645000000EBD6F020E50EC45F0000E0001B46F4F
:10646000000E236E000E226E980E246E256A000E1A
:10647000276E100E266E500E1FEC3FF0000E236E9E
:10648000100E226EA80E246E256A000E276E100EC6
:10649000266E500E1FEC3FF0000E236E200E226E73
:1064A000B80E246E256A000E276E100E266E500E52
:1064B0001FEC3FF0000E236E300E226EC80E246ECD
:1064C000256A000E276E100E266E500E1FEC3FF050
:1064D000B0EC29F0BAC03CF1BBC03DF1BCC03EF10C
:1064E000BDC03FF11200020E0001B419D8B407D0AC
:1064F000020E01011E27000E1F23202308D0FF0ECD
:1065000001011E27FF0E1F23FF0E2023FF0E212354
:10651000010EA6EC36F001011E51295C1F512A58CC
:1065200020512B582C50800A0001D86F01012151B5
:10653000800A0001D859D8B008D0020EB419D8B4D6
:1065400004D0010EA6EC36F01AD0030EA6EC36F0FD
:10655000295001011E5D2A501F592B5020592151ED
:10656000800A0001D86F2C50800AD859D8B00FD0BB
:10657000020EB419D8B40BD0030EA6EC36F029C025
:106580001EF12AC01FF12BC020F12CC021F1000107
:1065900098510A0DF3CFD8F0F4CFD9F0000ED9BF3F
:1065A000FF0EDA6FDB6F01011E510001D85DDC6F59
:1065B00001011F510001D959DD6F01012051000176
:1065C000DA59DE6F010121510001DB59DF6FCC5137
:1065D000DC25E06FCD51DD21E16FCE51DE21E26F90
:1065E000CF51DF21E36FC80EE0250101186F000EC7
:1065F0000001E1210101196F000E0001E2210101FA
:106600001A6F000E0001E32101011B6F1200030E3F
:1066100001010019D8B40CD091A204D00001B351EB
:10662000D8B406D091A00AD00001B305D8A406D0F2
:1066300001010305D8A402D0000E006F010100057E
:10664000D8B410D0020E0019D8B40CD091A004D048
:106650000001B351D8B406D091A20AD00001B3050D
:10666000D8A406D001010405D8A402D0000E006F02
:1066700001012605D8B4120000019F05D8A42BD033
:1066800001010105D8A427D02751D8A424D00005A2
:10669000D8B404D0020E0019D8A407D00001A00578
:1066A000D8A403D0000E010115D0030E010100197A
:1066B000D8A411D00001A051D8A40DD0010111BF60
:1066C00005D0115108E11005D8B005D02705D8A490
:1066D00002D0000E006F0001A105D8B403D0AE05B2
:1066E000D8A4120001010205D8A412002751D8A491
:1066F0001200030E0019D8A408D00001A351D8A499
:1067000004D0000E0101006F120001010005D8B491
:1067100004D0020E0019D8A404D00001A305D8B4F7
:1067200004D00001AE05D8A41200000E0101006FD4
:1067300012000001D96F000E0001D86F0101480559
:10674000D8A402D0010E46D000019C51140DF3CF05
:1067500032F0F4CF33F0000E33BEFF0E346E356EE0
:10676000CC51325CCD513358CE513458CF5135587D
:10677000D8B033D0020ED919D8A42FD0D8909831E0
:106780009C6101D0DFD79C51140DF3CF32F0F4CFD0
:1067900033F0000E33BEFF0E346E356ED80E322449
:1067A000366EFF0E3320376EFF0E3420386EFF0E2C
:1067B0003520396E01011E51365C1F51375820516A
:1067C00038583950800A3A6E2151800A3A58D8A078
:1067D000B9D7000E0001D86F32D0020ED919D8B443
:1067E00003D0D905D8A42BD098511D6E1E6A1F6AFC
:1067F000206A0A0E216E000E226E000E236E000E1D
:10680000246E7DEC42F01D500001CC5D1E50CD5930
:106810001F50CE592050CF59D8A094D7D951A6ECAB
:1068200036F001011E51295C1F512A5820512B5866
:106830002C50800A326E2151800A3258C8D7D85164
:106840001200340E106E116A26C012F027C013F029
:10685000000E156E040E146E52EC44F0280E106EED
:10686000116A300E126E136A000E156E040E146E4D
:1068700052EC44F0D90E106E020E116E340E126EF0
:10688000136A000E156E040E146E52EC44F00F0ED7
:106890000201DC17300E106E116AD90E126E020E54
:1068A000136E000E156E040E146E52EC44F0338A13
:1068B0009EEC47F0300E1B6E1C6A88EC37F02C0EF5
:1068C000106E116A300E126E136A000E156E040EF1
:1068D000146E52EC44F0300E106E116AD90E126E26
:1068E000020E136E000E156E040E146E52EC44F080
:1068F000600E33129EEC47F0300E1B6E1C6A88EC63
:1069000037F0D50E106E020E116E300E126E136A35
:10691000000E156E040E146E52EC44F0D10E106E83
:10692000020E116E2C0E126E136A000E156E040EFE
:10693000146E52EC44F0300E106E116A280E126E76
